{
  "_format": "hh-sol-artifact-1",
  "contractName": "LegacyVaultAnchor",
  "sourceName": "src/LegacyVaultAnchor.sol",
  "abi": [
    {
      "inputs": [],
      "stateMutability": "nonpayable",
      "type": "constructor"
    },
    {
      "anonymous": false,
      "inputs": [
        {
          "indexed": true,
          "internalType": "string",
          "name": "vaultId",
          "type": "string"
        },
        {
          "indexed": true,
          "internalType": "address",
          "name": "attester",
          "type": "address"
        },
        {
          "indexed": false,
          "internalType": "enum LegacyVaultAnchor.AttestationRole",
          "name": "role",
          "type": "uint8"
        },
        {
          "indexed": false,
          "internalType": "enum LegacyVaultAnchor.AttestationKind",
          "name": "kind",
          "type": "uint8"
        },
        {
          "indexed": false,
          "internalType": "bytes32",
          "name": "credentialHash",
          "type": "bytes32"
        },
        {
          "indexed": false,
          "internalType": "uint256",
          "name": "timestamp",
          "type": "uint256"
        }
      ],
      "name": "AttestationRecorded",
      "type": "event"
    },
    {
      "anonymous": false,
      "inputs": [
        {
          "indexed": true,
          "internalType": "string",
          "name": "vaultId",
          "type": "string"
        },
        {
          "indexed": false,
          "internalType": "bytes32",
          "name": "manifestHash",
          "type": "bytes32"
        },
        {
          "indexed": false,
          "internalType": "string",
          "name": "ipfsCID",
          "type": "string"
        },
        {
          "indexed": false,
          "internalType": "uint32",
          "name": "version",
          "type": "uint32"
        },
        {
          "indexed": false,
          "internalType": "address",
          "name": "anchoredBy",
          "type": "address"
        },
        {
          "indexed": false,
          "internalType": "uint256",
          "name": "timestamp",
          "type": "uint256"
        }
      ],
      "name": "ManifestAnchored",
      "type": "event"
    },
    {
      "inputs": [
        {
          "internalType": "address",
          "name": "op",
          "type": "address"
        }
      ],
      "name": "addOperator",
      "outputs": [],
      "stateMutability": "nonpayable",
      "type": "function"
    },
    {
      "inputs": [
        {
          "internalType": "string",
          "name": "vaultId",
          "type": "string"
        },
        {
          "internalType": "bytes32",
          "name": "manifestHash",
          "type": "bytes32"
        },
        {
          "internalType": "string",
          "name": "ipfsCID",
          "type": "string"
        }
      ],
      "name": "anchorManifest",
      "outputs": [
        {
          "internalType": "uint32",
          "name": "version",
          "type": "uint32"
        }
      ],
      "stateMutability": "nonpayable",
      "type": "function"
    },
    {
      "inputs": [
        {
          "internalType": "string",
          "name": "vaultId",
          "type": "string"
        }
      ],
      "name": "getAnchors",
      "outputs": [
        {
          "components": [
            {
              "internalType": "string",
              "name": "vaultId",
              "type": "string"
            },
            {
              "internalType": "bytes32",
              "name": "manifestHash",
              "type": "bytes32"
            },
            {
              "internalType": "string",
              "name": "ipfsCID",
              "type": "string"
            },
            {
              "internalType": "uint32",
              "name": "version",
              "type": "uint32"
            },
            {
              "internalType": "address",
              "name": "anchoredBy",
              "type": "address"
            },
            {
              "internalType": "uint256",
              "name": "anchoredAt",
              "type": "uint256"
            }
          ],
          "internalType": "struct LegacyVaultAnchor.ManifestAnchor[]",
          "name": "",
          "type": "tuple[]"
        }
      ],
      "stateMutability": "view",
      "type": "function"
    },
    {
      "inputs": [
        {
          "internalType": "string",
          "name": "vaultId",
          "type": "string"
        }
      ],
      "name": "getAttestations",
      "outputs": [
        {
          "components": [
            {
              "internalType": "string",
              "name": "vaultId",
              "type": "string"
            },
            {
              "internalType": "address",
              "name": "attester",
              "type": "address"
            },
            {
              "internalType": "string",
              "name": "attesterDID",
              "type": "string"
            },
            {
              "internalType": "enum LegacyVaultAnchor.AttestationRole",
              "name": "role",
              "type": "uint8"
            },
            {
              "internalType": "enum LegacyVaultAnchor.AttestationKind",
              "name": "kind",
              "type": "uint8"
            },
            {
              "internalType": "bytes32",
              "name": "credentialHash",
              "type": "bytes32"
            },
            {
              "internalType": "bytes32",
              "name": "evidenceHash",
              "type": "bytes32"
            },
            {
              "internalType": "uint256",
              "name": "timestamp",
              "type": "uint256"
            },
            {
              "internalType": "uint256",
              "name": "blockHeight",
              "type": "uint256"
            }
          ],
          "internalType": "struct LegacyVaultAnchor.Attestation[]",
          "name": "",
          "type": "tuple[]"
        }
      ],
      "stateMutability": "view",
      "type": "function"
    },
    {
      "inputs": [
        {
          "internalType": "string",
          "name": "vaultId",
          "type": "string"
        }
      ],
      "name": "getCurrentVersion",
      "outputs": [
        {
          "internalType": "uint32",
          "name": "",
          "type": "uint32"
        }
      ],
      "stateMutability": "view",
      "type": "function"
    },
    {
      "inputs": [
        {
          "internalType": "string",
          "name": "vaultId",
          "type": "string"
        }
      ],
      "name": "getLatestAnchor",
      "outputs": [
        {
          "components": [
            {
              "internalType": "string",
              "name": "vaultId",
              "type": "string"
            },
            {
              "internalType": "bytes32",
              "name": "manifestHash",
              "type": "bytes32"
            },
            {
              "internalType": "string",
              "name": "ipfsCID",
              "type": "string"
            },
            {
              "internalType": "uint32",
              "name": "version",
              "type": "uint32"
            },
            {
              "internalType": "address",
              "name": "anchoredBy",
              "type": "address"
            },
            {
              "internalType": "uint256",
              "name": "anchoredAt",
              "type": "uint256"
            }
          ],
          "internalType": "struct LegacyVaultAnchor.ManifestAnchor",
          "name": "",
          "type": "tuple"
        }
      ],
      "stateMutability": "view",
      "type": "function"
    },
    {
      "inputs": [
        {
          "internalType": "address",
          "name": "",
          "type": "address"
        }
      ],
      "name": "operators",
      "outputs": [
        {
          "internalType": "bool",
          "name": "",
          "type": "bool"
        }
      ],
      "stateMutability": "view",
      "type": "function"
    },
    {
      "inputs": [],
      "name": "owner",
      "outputs": [
        {
          "internalType": "address",
          "name": "",
          "type": "address"
        }
      ],
      "stateMutability": "view",
      "type": "function"
    },
    {
      "inputs": [
        {
          "internalType": "string",
          "name": "vaultId",
          "type": "string"
        },
        {
          "internalType": "address",
          "name": "attester",
          "type": "address"
        },
        {
          "internalType": "string",
          "name": "attesterDID",
          "type": "string"
        },
        {
          "internalType": "enum LegacyVaultAnchor.AttestationRole",
          "name": "role",
          "type": "uint8"
        },
        {
          "internalType": "enum LegacyVaultAnchor.AttestationKind",
          "name": "kind",
          "type": "uint8"
        },
        {
          "internalType": "bytes32",
          "name": "credentialHash",
          "type": "bytes32"
        },
        {
          "internalType": "bytes32",
          "name": "evidenceHash",
          "type": "bytes32"
        }
      ],
      "name": "recordAttestation",
      "outputs": [],
      "stateMutability": "nonpayable",
      "type": "function"
    },
    {
      "inputs": [
        {
          "internalType": "address",
          "name": "op",
          "type": "address"
        }
      ],
      "name": "removeOperator",
      "outputs": [],
      "stateMutability": "nonpayable",
      "type": "function"
    },
    {
      "inputs": [
        {
          "internalType": "address",
          "name": "newOwner",
          "type": "address"
        }
      ],
      "name": "transferOwnership",
      "outputs": [],
      "stateMutability": "nonpayable",
      "type": "function"
    },
    {
      "inputs": [
        {
          "internalType": "string",
          "name": "vaultId",
          "type": "string"
        },
        {
          "internalType": "bytes32",
          "name": "manifestHash",
          "type": "bytes32"
        },
        {
          "internalType": "uint32",
          "name": "version",
          "type": "uint32"
        }
      ],
      "name": "verifyManifest",
      "outputs": [
        {
          "internalType": "bool",
          "name": "",
          "type": "bool"
        }
      ],
      "stateMutability": "view",
      "type": "function"
    }
  ],
  "bytecode": "0x608060405234801561000f575f80fd5b505f80546001600160a01b0319163390811782558152600160208190526040909120805460ff1916909117905561182a806100495f395ff3fe608060405234801561000f575f80fd5b50600436106100b1575f3560e01c80638da5cb5b1161006e5780638da5cb5b146101875780639870d7fe146101b1578063ac8a584a146101c6578063b8bac103146101d9578063be8214f4146101ec578063f2fde38b146101ff575f80fd5b806313e7c9d8146100b55780631d583a4b146100ec578063452597d21461010c5780636f75f2dd14610134578063879c30c614610154578063896aadb514610167575b5f80fd5b6100d76100c33660046110d4565b60016020525f908152604090205460ff1681565b60405190151581526020015b60405180910390f35b6100ff6100fa366004611139565b610212565b6040516100e39190611235565b61011f61011a366004611247565b610483565b60405163ffffffff90911681526020016100e3565b610147610142366004611139565b610718565b6040516100e391906112f3565b61011f610162366004611139565b61098e565b61017a610175366004611139565b6109ed565b6040516100e391906113e5565b5f54610199906001600160a01b031681565b6040516001600160a01b0390911681526020016100e3565b6101c46101bf3660046110d4565b610bed565b005b6101c46101d43660046110d4565b610c3c565b6101c46101e7366004611447565b610c85565b6100d76101fa366004611501565b610f58565b6101c461020d3660046110d4565b61102e565b6040805160c08101825260608082525f6020830181905292820181905281018290526080810182905260a08101919091525f61028284848080601f0160208091040260200160405190810160405280939291908181526020018383808284375f9201919091525061108a92505050565b5f8181526002602052604090208054919250906102e65760405162461bcd60e51b815260206004820152601960248201527f4c56413a206e6f20616e63686f727320666f72207661756c740000000000000060448201526064015b60405180910390fd5b805481906102f690600190611578565b815481106103065761030661158b565b905f5260205f2090600502016040518060c00160405290815f8201805461032c9061159f565b80601f01602080910402602001604051908101604052809291908181526020018280546103589061159f565b80156103a35780601f1061037a576101008083540402835291602001916103a3565b820191905f5260205f20905b81548152906001019060200180831161038657829003601f168201915b50505050508152602001600182015481526020016002820180546103c69061159f565b80601f01602080910402602001604051908101604052809291908181526020018280546103f29061159f565b801561043d5780601f106104145761010080835404028352916020019161043d565b820191905f5260205f20905b81548152906001019060200180831161042057829003601f168201915b5050509183525050600382015463ffffffff8116602083015264010000000090046001600160a01b03166040820152600490910154606090910152925050505b92915050565b335f9081526001602052604081205460ff16806104a957505f546001600160a01b031633145b6104e95760405162461bcd60e51b8152602060048201526011602482015270262b209d103737ba1037b832b930ba37b960791b60448201526064016102dd565b5f61052887878080601f0160208091040260200160405190810160405280939291908181526020018383808284375f9201919091525061108a92505050565b5f818152600460205260408120805492935060019290919061055190849063ffffffff166115d7565b82546101009290920a63ffffffff8181021990931691831602179091555f8381526004602090815260408083205460028352928190208151601f8d01849004909302830160e090810190925260c083018c8152939094169650929350918291908b908b90819085018382808284375f92019190915250505090825250602080820189905260408051601f890183900483028101830182528881529201919088908890819084018382808284375f92018290525093855250505063ffffffff861660208084019190915233604084015242606090930192909252835460018101855593815220815191926005020190819061064b908261165b565b50602082015160018201556040820151600282019061066a908261165b565b50606082015160038201805460808501516001600160a01b0316640100000000026001600160c01b031990911663ffffffff9093169290921791909117905560a0909101516004909101556040516106c5908890889061171b565b60405180910390207f78d32793009d3cc8c1ef51d60151fdaee999adb4cd45ae2235485f29a2cbbb648686868633426040516107069695949392919061172a565b60405180910390a25095945050505050565b606060035f61075b85858080601f0160208091040260200160405190810160405280939291908181526020018383808284375f9201919091525061108a92505050565b81526020019081526020015f20805480602002602001604051908101604052809291908181526020015f905b82821015610982578382905f5260205f209060080201604051806101200160405290815f820180546107b89061159f565b80601f01602080910402602001604051908101604052809291908181526020018280546107e49061159f565b801561082f5780601f106108065761010080835404028352916020019161082f565b820191905f5260205f20905b81548152906001019060200180831161081257829003601f168201915b505050918352505060018201546001600160a01b0316602082015260028201805460409092019161085f9061159f565b80601f016020809104026020016040519081016040528092919081815260200182805461088b9061159f565b80156108d65780601f106108ad576101008083540402835291602001916108d6565b820191905f5260205f20905b8154815290600101906020018083116108b957829003601f168201915b5050509183525050600382015460209091019060ff1660048111156108fd576108fd6112bb565b600481111561090e5761090e6112bb565b81526020016003820160019054906101000a900460ff166006811115610936576109366112bb565b6006811115610947576109476112bb565b815260200160048201548152602001600582015481526020016006820154815260200160078201548152505081526020019060010190610787565b50505050905092915050565b5f60045f6109d085858080601f0160208091040260200160405190810160405280939291908181526020018383808284375f9201919091525061108a92505050565b815260208101919091526040015f205463ffffffff169392505050565b606060025f610a3085858080601f0160208091040260200160405190810160405280939291908181526020018383808284375f9201919091525061108a92505050565b81526020019081526020015f20805480602002602001604051908101604052809291908181526020015f905b82821015610982578382905f5260205f2090600502016040518060c00160405290815f82018054610a8c9061159f565b80601f0160208091040260200160405190810160405280929190818152602001828054610ab89061159f565b8015610b035780601f10610ada57610100808354040283529160200191610b03565b820191905f5260205f20905b815481529060010190602001808311610ae657829003601f168201915b5050505050815260200160018201548152602001600282018054610b269061159f565b80601f0160208091040260200160405190810160405280929190818152602001828054610b529061159f565b8015610b9d5780601f10610b7457610100808354040283529160200191610b9d565b820191905f5260205f20905b815481529060010190602001808311610b8057829003601f168201915b5050509183525050600382015463ffffffff81166020808401919091526401000000009091046001600160a01b031660408301526004909201546060909101529082526001929092019101610a5c565b5f546001600160a01b03163314610c165760405162461bcd60e51b81526004016102dd90611784565b6001600160a01b03165f908152600160208190526040909120805460ff19169091179055565b5f546001600160a01b03163314610c655760405162461bcd60e51b81526004016102dd90611784565b6001600160a01b03165f908152600160205260409020805460ff19169055565b335f9081526001602052604090205460ff1680610cab57505f546001600160a01b031633145b610ceb5760405162461bcd60e51b8152602060048201526011602482015270262b209d103737ba1037b832b930ba37b960791b60448201526064016102dd565b5f610d2a8a8a8080601f0160208091040260200160405190810160405280939291908181526020018383808284375f9201919091525061108a92505050565b5f818152600360209081526040918290208251610140601f8f018490049093028101830190935261012083018d81529394509282918e908e90819085018382808284375f920191909152505050908252506001600160a01b038b1660208083019190915260408051601f8c0183900483028101830182528b8152920191908b908b90819084018382808284375f92019190915250505090825250602001876004811115610dd957610dd96112bb565b8152602001866006811115610df057610df06112bb565b81526020808201879052604082018690524260608301524360809092019190915282546001810184555f93845292208151919260080201908190610e34908261165b565b5060208201516001820180546001600160a01b0319166001600160a01b0390921691909117905560408201516002820190610e6f908261165b565b50606082015160038201805460ff19166001836004811115610e9357610e936112bb565b0217905550608082015160038201805461ff001916610100836006811115610ebd57610ebd6112bb565b021790555060a0820151816004015560c0820151816005015560e0820151816006015561010082015181600701555050876001600160a01b03168a8a604051610f0792919061171b565b60405180910390207fd64e00029183473cfa214e4a7decd98c21e1b6dfef5b57fdd34bd6e27ec5fb9187878742604051610f4494939291906117ac565b60405180910390a350505050505050505050565b5f80610f9886868080601f0160208091040260200160405190810160405280939291908181526020018383808284375f9201919091525061108a92505050565b5f8181526002602052604081209192505b815481101561101f578463ffffffff16828281548110610fcb57610fcb61158b565b5f91825260209091206003600590920201015463ffffffff16036110175785828281548110610ffc57610ffc61158b565b905f5260205f20906005020160010154149350505050611026565b600101610fa9565b505f925050505b949350505050565b5f546001600160a01b031633146110575760405162461bcd60e51b81526004016102dd90611784565b6001600160a01b038116611069575f80fd5b5f80546001600160a01b0319166001600160a01b0392909216919091179055565b5f8160405160200161109c91906117d9565b604051602081830303815290604052805190602001209050919050565b80356001600160a01b03811681146110cf575f80fd5b919050565b5f602082840312156110e4575f80fd5b6110ed826110b9565b9392505050565b5f8083601f840112611104575f80fd5b50813567ffffffffffffffff81111561111b575f80fd5b602083019150836020828501011115611132575f80fd5b9250929050565b5f806020838503121561114a575f80fd5b823567ffffffffffffffff811115611160575f80fd5b61116c858286016110f4565b90969095509350505050565b5f5b8381101561119257818101518382015260200161117a565b50505f910152565b5f81518084526111b1816020860160208601611178565b601f01601f19169290920160200192915050565b5f815160c084526111d960c085018261119a565b905060208301516020850152604083015184820360408601526111fc828261119a565b60608581015163ffffffff16908701526080808601516001600160a01b03169087015260a0948501519490950193909352509192915050565b602081525f6110ed60208301846111c5565b5f805f805f6060868803121561125b575f80fd5b853567ffffffffffffffff80821115611272575f80fd5b61127e89838a016110f4565b909750955060208801359450604088013591508082111561129d575f80fd5b506112aa888289016110f4565b969995985093965092949392505050565b634e487b7160e01b5f52602160045260245ffd5b600581106112df576112df6112bb565b9052565b600781106112df576112df6112bb565b5f60208083018184528085518083526040925060408601915060408160051b8701018488015f5b838110156113d757603f19898403018552815161012081518186526113418287018261119a565b9150508882015161135c8a8701826001600160a01b03169052565b508782015185820389870152611372828261119a565b915050606080830151611387828801826112cf565b505060808083015161139b828801826112e3565b505060a0828101519086015260c0808301519086015260e08083015190860152610100918201519190940152938601939086019060010161131a565b509098975050505050505050565b5f60208083016020845280855180835260408601915060408160051b8701019250602087015f5b8281101561143a57603f198886030184526114288583516111c5565b9450928501929085019060010161140c565b5092979650505050505050565b5f805f805f805f805f60e08a8c03121561145f575f80fd5b893567ffffffffffffffff80821115611476575f80fd5b6114828d838e016110f4565b909b50995089915061149660208d016110b9565b985060408c01359150808211156114ab575f80fd5b506114b88c828d016110f4565b90975095505060608a0135600581106114cf575f80fd5b935060808a0135600781106114e2575f80fd5b8093505060a08a0135915060c08a013590509295985092959850929598565b5f805f8060608587031215611514575f80fd5b843567ffffffffffffffff81111561152a575f80fd5b611536878288016110f4565b90955093505060208501359150604085013563ffffffff81168114611559575f80fd5b939692955090935050565b634e487b7160e01b5f52601160045260245ffd5b8181038181111561047d5761047d611564565b634e487b7160e01b5f52603260045260245ffd5b600181811c908216806115b357607f821691505b6020821081036115d157634e487b7160e01b5f52602260045260245ffd5b50919050565b63ffffffff8181168382160190808211156115f4576115f4611564565b5092915050565b634e487b7160e01b5f52604160045260245ffd5b601f82111561165657805f5260205f20601f840160051c810160208510156116345750805b601f840160051c820191505b81811015611653575f8155600101611640565b50505b505050565b815167ffffffffffffffff811115611675576116756115fb565b61168981611683845461159f565b8461160f565b602080601f8311600181146116bc575f84156116a55750858301515b5f19600386901b1c1916600185901b178555611713565b5f85815260208120601f198616915b828110156116ea578886015182559484019460019091019084016116cb565b508582101561170757878501515f19600388901b60f8161c191681555b505060018460011b0185555b505050505050565b818382375f9101908152919050565b86815260a060208201528460a0820152848660c08301375f60c086830181019190915263ffffffff9490941660408201526001600160a01b039290921660608301526080820152601f909201601f19169091010192915050565b6020808252600e908201526d262b209d103737ba1037bbb732b960911b604082015260600190565b608081016117ba82876112cf565b6117c760208301866112e3565b60408201939093526060015292915050565b5f82516117ea818460208701611178565b919091019291505056fea2646970667358221220dabb2d12a3b762ce23a81814e839434f58fc1111aaad3ab43102b1fa0691339664736f6c63430008180033",
  "linkReferences": {},
  "deployedLinkReferences": {}
}