{
  "_format": "hh-sol-artifact-1",
  "contractName": "LegacyPolicyEngine",
  "sourceName": "src/LegacyPolicyEngine.sol",
  "abi": [
    {
      "inputs": [],
      "stateMutability": "nonpayable",
      "type": "constructor"
    },
    {
      "anonymous": false,
      "inputs": [
        {
          "indexed": true,
          "internalType": "string",
          "name": "claimId",
          "type": "string"
        },
        {
          "indexed": false,
          "internalType": "string",
          "name": "reason",
          "type": "string"
        },
        {
          "indexed": false,
          "internalType": "address",
          "name": "deniedBy",
          "type": "address"
        },
        {
          "indexed": false,
          "internalType": "uint256",
          "name": "timestamp",
          "type": "uint256"
        }
      ],
      "name": "ClaimDenied",
      "type": "event"
    },
    {
      "anonymous": false,
      "inputs": [
        {
          "indexed": true,
          "internalType": "string",
          "name": "vaultId",
          "type": "string"
        },
        {
          "indexed": true,
          "internalType": "string",
          "name": "claimId",
          "type": "string"
        },
        {
          "indexed": false,
          "internalType": "address",
          "name": "claimant",
          "type": "address"
        },
        {
          "indexed": false,
          "internalType": "uint256",
          "name": "timestamp",
          "type": "uint256"
        }
      ],
      "name": "ClaimOpened",
      "type": "event"
    },
    {
      "anonymous": false,
      "inputs": [
        {
          "indexed": true,
          "internalType": "string",
          "name": "claimId",
          "type": "string"
        },
        {
          "indexed": false,
          "internalType": "enum LegacyPolicyEngine.ReleaseCondition",
          "name": "condition",
          "type": "uint8"
        },
        {
          "indexed": false,
          "internalType": "address",
          "name": "satisfiedBy",
          "type": "address"
        },
        {
          "indexed": false,
          "internalType": "bytes32",
          "name": "evidenceHash",
          "type": "bytes32"
        },
        {
          "indexed": false,
          "internalType": "uint256",
          "name": "timestamp",
          "type": "uint256"
        }
      ],
      "name": "ConditionSatisfied",
      "type": "event"
    },
    {
      "anonymous": false,
      "inputs": [
        {
          "indexed": true,
          "internalType": "string",
          "name": "claimId",
          "type": "string"
        },
        {
          "indexed": false,
          "internalType": "string",
          "name": "reason",
          "type": "string"
        },
        {
          "indexed": false,
          "internalType": "address",
          "name": "raisedBy",
          "type": "address"
        },
        {
          "indexed": false,
          "internalType": "uint256",
          "name": "timestamp",
          "type": "uint256"
        }
      ],
      "name": "DisputeRaised",
      "type": "event"
    },
    {
      "anonymous": false,
      "inputs": [
        {
          "indexed": true,
          "internalType": "string",
          "name": "claimId",
          "type": "string"
        },
        {
          "indexed": false,
          "internalType": "bool",
          "name": "releaseProceeds",
          "type": "bool"
        },
        {
          "indexed": false,
          "internalType": "address",
          "name": "resolvedBy",
          "type": "address"
        },
        {
          "indexed": false,
          "internalType": "uint256",
          "name": "timestamp",
          "type": "uint256"
        }
      ],
      "name": "DisputeResolved",
      "type": "event"
    },
    {
      "anonymous": false,
      "inputs": [
        {
          "indexed": true,
          "internalType": "string",
          "name": "vaultId",
          "type": "string"
        },
        {
          "indexed": false,
          "internalType": "string",
          "name": "policyId",
          "type": "string"
        },
        {
          "indexed": false,
          "internalType": "uint256",
          "name": "policyHash",
          "type": "uint256"
        },
        {
          "indexed": false,
          "internalType": "uint32",
          "name": "version",
          "type": "uint32"
        },
        {
          "indexed": false,
          "internalType": "uint256",
          "name": "timestamp",
          "type": "uint256"
        }
      ],
      "name": "PolicyAnchored",
      "type": "event"
    },
    {
      "anonymous": false,
      "inputs": [
        {
          "indexed": true,
          "internalType": "string",
          "name": "vaultId",
          "type": "string"
        },
        {
          "indexed": true,
          "internalType": "string",
          "name": "claimId",
          "type": "string"
        },
        {
          "indexed": false,
          "internalType": "bytes32",
          "name": "conditionsHash",
          "type": "bytes32"
        },
        {
          "indexed": false,
          "internalType": "address",
          "name": "authorisedBy",
          "type": "address"
        },
        {
          "indexed": false,
          "internalType": "uint256",
          "name": "timestamp",
          "type": "uint256"
        }
      ],
      "name": "ReleaseAuthorised",
      "type": "event"
    },
    {
      "anonymous": false,
      "inputs": [
        {
          "indexed": true,
          "internalType": "string",
          "name": "claimId",
          "type": "string"
        },
        {
          "indexed": false,
          "internalType": "uint256",
          "name": "endsAt",
          "type": "uint256"
        }
      ],
      "name": "WaitingPeriodStarted",
      "type": "event"
    },
    {
      "inputs": [
        {
          "internalType": "address",
          "name": "op",
          "type": "address"
        }
      ],
      "name": "addOperator",
      "outputs": [],
      "stateMutability": "nonpayable",
      "type": "function"
    },
    {
      "inputs": [
        {
          "internalType": "string",
          "name": "claimId",
          "type": "string"
        }
      ],
      "name": "allConditionsMet",
      "outputs": [
        {
          "internalType": "bool",
          "name": "",
          "type": "bool"
        }
      ],
      "stateMutability": "view",
      "type": "function"
    },
    {
      "inputs": [
        {
          "internalType": "string",
          "name": "vaultId",
          "type": "string"
        },
        {
          "internalType": "string",
          "name": "policyId",
          "type": "string"
        },
        {
          "internalType": "bool",
          "name": "requireExecutorIdentity",
          "type": "bool"
        },
        {
          "internalType": "bool",
          "name": "requireDeathCertificate",
          "type": "bool"
        },
        {
          "internalType": "bool",
          "name": "requireAttorneyAttestation",
          "type": "bool"
        },
        {
          "internalType": "bool",
          "name": "requireGuardianQuorum",
          "type": "bool"
        },
        {
          "internalType": "uint32",
          "name": "guardianQuorumN",
          "type": "uint32"
        },
        {
          "internalType": "uint32",
          "name": "guardianQuorumM",
          "type": "uint32"
        },
        {
          "internalType": "uint32",
          "name": "waitingPeriodDays",
          "type": "uint32"
        }
      ],
      "name": "anchorPolicy",
      "outputs": [],
      "stateMutability": "nonpayable",
      "type": "function"
    },
    {
      "inputs": [
        {
          "internalType": "string",
          "name": "vaultId",
          "type": "string"
        },
        {
          "internalType": "string",
          "name": "claimId",
          "type": "string"
        }
      ],
      "name": "authoriseRelease",
      "outputs": [
        {
          "internalType": "bytes32",
          "name": "conditionsHash",
          "type": "bytes32"
        }
      ],
      "stateMutability": "nonpayable",
      "type": "function"
    },
    {
      "inputs": [
        {
          "internalType": "string",
          "name": "claimId",
          "type": "string"
        },
        {
          "internalType": "string",
          "name": "reason",
          "type": "string"
        }
      ],
      "name": "denyClaim",
      "outputs": [],
      "stateMutability": "nonpayable",
      "type": "function"
    },
    {
      "inputs": [
        {
          "internalType": "string",
          "name": "claimId",
          "type": "string"
        }
      ],
      "name": "getClaimState",
      "outputs": [
        {
          "components": [
            {
              "internalType": "string",
              "name": "vaultId",
              "type": "string"
            },
            {
              "internalType": "string",
              "name": "claimId",
              "type": "string"
            },
            {
              "internalType": "bool",
              "name": "identityVerified",
              "type": "bool"
            },
            {
              "internalType": "bool",
              "name": "deathCertUploaded",
              "type": "bool"
            },
            {
              "internalType": "bool",
              "name": "attorneyAttested",
              "type": "bool"
            },
            {
              "internalType": "uint32",
              "name": "guardianApprovals",
              "type": "uint32"
            },
            {
              "internalType": "bool",
              "name": "guardianQuorumMet",
              "type": "bool"
            },
            {
              "internalType": "uint256",
              "name": "quorumMetAt",
              "type": "uint256"
            },
            {
              "internalType": "bool",
              "name": "waitingPeriodComplete",
              "type": "bool"
            },
            {
              "internalType": "uint256",
              "name": "waitingPeriodEndsAt",
              "type": "uint256"
            },
            {
              "internalType": "bool",
              "name": "disputed",
              "type": "bool"
            },
            {
              "internalType": "bool",
              "name": "released",
              "type": "bool"
            },
            {
              "internalType": "bool",
              "name": "denied",
              "type": "bool"
            },
            {
              "internalType": "bool",
              "name": "exists",
              "type": "bool"
            }
          ],
          "internalType": "struct LegacyPolicyEngine.ReleaseState",
          "name": "",
          "type": "tuple"
        }
      ],
      "stateMutability": "view",
      "type": "function"
    },
    {
      "inputs": [
        {
          "internalType": "string",
          "name": "claimId",
          "type": "string"
        }
      ],
      "name": "getConditions",
      "outputs": [
        {
          "components": [
            {
              "internalType": "enum LegacyPolicyEngine.ReleaseCondition",
              "name": "condition",
              "type": "uint8"
            },
            {
              "internalType": "address",
              "name": "satisfiedBy",
              "type": "address"
            },
            {
              "internalType": "bytes32",
              "name": "evidenceHash",
              "type": "bytes32"
            },
            {
              "internalType": "uint256",
              "name": "satisfiedAt",
              "type": "uint256"
            }
          ],
          "internalType": "struct LegacyPolicyEngine.ConditionRecord[]",
          "name": "",
          "type": "tuple[]"
        }
      ],
      "stateMutability": "view",
      "type": "function"
    },
    {
      "inputs": [
        {
          "internalType": "string",
          "name": "vaultId",
          "type": "string"
        }
      ],
      "name": "getPolicy",
      "outputs": [
        {
          "components": [
            {
              "internalType": "string",
              "name": "vaultId",
              "type": "string"
            },
            {
              "internalType": "string",
              "name": "policyId",
              "type": "string"
            },
            {
              "internalType": "bool",
              "name": "requireExecutorIdentity",
              "type": "bool"
            },
            {
              "internalType": "bool",
              "name": "requireDeathCertificate",
              "type": "bool"
            },
            {
              "internalType": "bool",
              "name": "requireAttorneyAttestation",
              "type": "bool"
            },
            {
              "internalType": "bool",
              "name": "requireGuardianQuorum",
              "type": "bool"
            },
            {
              "internalType": "uint32",
              "name": "guardianQuorumN",
              "type": "uint32"
            },
            {
              "internalType": "uint32",
              "name": "guardianQuorumM",
              "type": "uint32"
            },
            {
              "internalType": "uint32",
              "name": "waitingPeriodDays",
              "type": "uint32"
            },
            {
              "internalType": "uint256",
              "name": "policyHash",
              "type": "uint256"
            },
            {
              "internalType": "uint256",
              "name": "anchoredAt",
              "type": "uint256"
            },
            {
              "internalType": "uint32",
              "name": "version",
              "type": "uint32"
            },
            {
              "internalType": "bool",
              "name": "exists",
              "type": "bool"
            }
          ],
          "internalType": "struct LegacyPolicyEngine.ReleasePolicy",
          "name": "",
          "type": "tuple"
        }
      ],
      "stateMutability": "view",
      "type": "function"
    },
    {
      "inputs": [
        {
          "internalType": "string",
          "name": "vaultId",
          "type": "string"
        },
        {
          "internalType": "string",
          "name": "claimId",
          "type": "string"
        },
        {
          "internalType": "address",
          "name": "claimant",
          "type": "address"
        }
      ],
      "name": "openClaim",
      "outputs": [],
      "stateMutability": "nonpayable",
      "type": "function"
    },
    {
      "inputs": [
        {
          "internalType": "address",
          "name": "",
          "type": "address"
        }
      ],
      "name": "operators",
      "outputs": [
        {
          "internalType": "bool",
          "name": "",
          "type": "bool"
        }
      ],
      "stateMutability": "view",
      "type": "function"
    },
    {
      "inputs": [],
      "name": "owner",
      "outputs": [
        {
          "internalType": "address",
          "name": "",
          "type": "address"
        }
      ],
      "stateMutability": "view",
      "type": "function"
    },
    {
      "inputs": [
        {
          "internalType": "string",
          "name": "claimId",
          "type": "string"
        },
        {
          "internalType": "string",
          "name": "reason",
          "type": "string"
        }
      ],
      "name": "raiseDispute",
      "outputs": [],
      "stateMutability": "nonpayable",
      "type": "function"
    },
    {
      "inputs": [
        {
          "internalType": "address",
          "name": "op",
          "type": "address"
        }
      ],
      "name": "removeOperator",
      "outputs": [],
      "stateMutability": "nonpayable",
      "type": "function"
    },
    {
      "inputs": [
        {
          "internalType": "string",
          "name": "claimId",
          "type": "string"
        },
        {
          "internalType": "bool",
          "name": "releaseProceeds",
          "type": "bool"
        }
      ],
      "name": "resolveDispute",
      "outputs": [],
      "stateMutability": "nonpayable",
      "type": "function"
    },
    {
      "inputs": [
        {
          "internalType": "string",
          "name": "claimId",
          "type": "string"
        },
        {
          "internalType": "enum LegacyPolicyEngine.ReleaseCondition",
          "name": "condition",
          "type": "uint8"
        },
        {
          "internalType": "bytes32",
          "name": "evidenceHash",
          "type": "bytes32"
        }
      ],
      "name": "satisfyCondition",
      "outputs": [],
      "stateMutability": "nonpayable",
      "type": "function"
    },
    {
      "inputs": [
        {
          "internalType": "address",
          "name": "newOwner",
          "type": "address"
        }
      ],
      "name": "transferOwnership",
      "outputs": [],
      "stateMutability": "nonpayable",
      "type": "function"
    }
  ],
  "bytecode": "0x608060405234801561000f575f80fd5b505f80546001600160a01b0319163390811782558152600160208190526040909120805460ff19169091179055612d7a806100495f395ff3fe608060405234801561000f575f80fd5b50600436106100fb575f3560e01c8063a968e89411610093578063d311114611610063578063d311114614610248578063d42dd4e614610268578063d48ef9801461027b578063f2fde38b1461028e575f80fd5b8063a968e894146101e1578063ac8a584a14610202578063ce42262614610215578063cf94bb9814610228575f80fd5b806360dd5f90116100ce57806360dd5f90146101715780638da5cb5b1461019157806397493f2f146101bb5780639870d7fe146101ce575f80fd5b806313e7c9d8146100ff5780632daffe77146101365780633e3c794f1461014b57806343a1dc3f1461015e575b5f80fd5b61012161010d366004612327565b60016020525f908152604090205460ff1681565b60405190151581526020015b60405180910390f35b61014961014436600461238c565b6102a1565b005b6101216101593660046123e8565b6108b5565b61014961016c366004612427565b610a63565b61018461017f3660046123e8565b610e93565b60405161012d91906124ef565b5f546101a3906001600160a01b031681565b6040516001600160a01b03909116815260200161012d565b6101496101c93660046125f4565b611120565b6101496101dc366004612327565b61128b565b6101f46101ef3660046125f4565b6112da565b60405190815260200161012d565b610149610210366004612327565b6117cd565b61014961022336600461266a565b611816565b61023b6102363660046123e8565b61198c565b60405161012d91906126ee565b61025b6102563660046123e8565b611aa7565b60405161012d9190612761565b610149610276366004612870565b611d7d565b6101496102893660046125f4565b612129565b61014961029c366004612327565b612281565b335f9081526001602052604090205460ff16806102c757505f546001600160a01b031633145b6102ec5760405162461bcd60e51b81526004016102e39061294c565b60405180910390fd5b5f61032b85858080601f0160208091040260200160405190810160405280939291908181526020018383808284375f920191909152506122dd92505050565b5f8181526003602052604090206006810154919250906301000000900460ff166103675760405162461bcd60e51b81526004016102e390612977565b6006810154610100900460ff16156103b95760405162461bcd60e51b81526020600482015260156024820152741314114e88185b1c9958591e481c995b19585cd959605a1b60448201526064016102e3565b600681015462010000900460ff16156104085760405162461bcd60e51b81526020600482015260116024820152701314114e8818db185a5b4819195b9a5959607a1b60448201526064016102e3565b600681015460ff16156104535760405162461bcd60e51b81526020600482015260136024820152721314114e8818db185a5b48191a5cdc1d5d1959606a1b60448201526064016102e3565b5f846004811115610466576104666126ba565b0361047f5760028101805460ff19166001179055610793565b6001846004811115610493576104936126ba565b036104ae5760028101805461ff001916610100179055610793565b60028460048111156104c2576104c26126ba565b036104df5760028101805462ff0000191662010000179055610793565b60038460048111156104f3576104f36126ba565b036106c55760018160020160038282829054906101000a900463ffffffff1661051c91906129b9565b92506101000a81548163ffffffff021916908363ffffffff1602179055505f6105cd825f01805461054c906129dd565b80601f0160208091040260200160405190810160405280929190818152602001828054610578906129dd565b80156105c35780601f1061059a576101008083540402835291602001916105c3565b820191905f5260205f20905b8154815290600101906020018083116105a657829003601f168201915b50505050506122dd565b5f81815260026020819052604090912080820154918501549293509164010000000090910463ffffffff9081166301000000909204161080159061061d57506002830154600160381b900460ff16155b156106be576002808401805460ff60381b1916600160381b1790554260038501558101545f9061065e9063ffffffff600160601b9091041662015180612a15565b6106689042612a2c565b60058501819055604051909150610682908a908a90612a3f565b604051908190038120828252907fb5e1d61508d8d2e18c5c79015b3ea6c28577c65310f8594f7ea9d60253a8b8019060200160405180910390a2505b5050610793565b60048460048111156106d9576106d96126ba565b03610793576002810154600160381b900460ff1661072f5760405162461bcd60e51b81526020600482015260136024820152721314114e881c5d5bdc9d5b481b9bdd081b595d606a1b60448201526064016102e3565b80600501544210156107835760405162461bcd60e51b815260206004820152601f60248201527f4c50453a2077616974696e6720706572696f64206e6f7420656c61707365640060448201526064016102e3565b60048101805460ff191660011790555b60045f8381526020019081526020015f2060405180608001604052808660048111156107c1576107c16126ba565b81523360208083019190915260408201879052426060909201919091528254600181810185555f9485529190932082516003909402018054929390929091839160ff191690836004811115610818576108186126ba565b0217905550602082015181546001600160a01b0390911661010002610100600160a81b03199091161781556040808301516001830155606090920151600290910155516108689087908790612a3f565b60405180910390207f8d7dc5de2a7449a4fb662129fd7055e1800a11d76a64c10aa966b01131ffc048853386426040516108a59493929190612a4e565b60405180910390a2505050505050565b5f806108f584848080601f0160208091040260200160405190810160405280939291908181526020018383808284375f920191909152506122dd92505050565b5f8181526003602052604090206006810154919250906301000000900460ff16158061092b5750600681015462010000900460ff165b8061093a5750600681015460ff165b15610949575f92505050610a5d565b5f61095b825f01805461054c906129dd565b5f8181526002602081905260408220908101549293509160ff1615806109855750600284015460ff165b60028301549091505f90610100900460ff1615806109ac57506002850154610100900460ff165b60028401549091505f9062010000900460ff1615806109d55750600286015462010000900460ff165b60028501549091505f906301000000900460ff161580610a0057506002870154600160381b900460ff165b60048801549091505f9060ff1680610a2a57505f8860050154118015610a2a575087600501544210155b9050848015610a365750835b8015610a3f5750825b8015610a485750815b8015610a515750805b99505050505050505050505b92915050565b335f9081526001602052604090205460ff1680610a8957505f546001600160a01b031633145b610aa55760405162461bcd60e51b81526004016102e39061294c565b5f610ae486868080601f0160208091040260200160405190810160405280939291908181526020018383808284375f920191909152506122dd92505050565b90505f610b2585858080601f0160208091040260200160405190810160405280939291908181526020018383808284375f920191909152506122dd92505050565b5f83815260026020526040902060050154909150640100000000900460ff16610b905760405162461bcd60e51b815260206004820152601860248201527f4c50453a206e6f20706f6c69637920666f72207661756c74000000000000000060448201526064016102e3565b5f818152600360205260409020600601546301000000900460ff1615610bf85760405162461bcd60e51b815260206004820152601960248201527f4c50453a20636c61696d20616c7265616479206578697374730000000000000060448201526064016102e3565b604051806101c0016040528088888080601f0160208091040260200160405190810160405280939291908181526020018383808284375f92019190915250505090825250604080516020601f8901819004810282018101909252878152918101919088908890819084018382808284375f92018290525093855250505060208083018290526040808401839052606084018390526080840183905260a0840183905260c0840183905260e084018390526101008401839052610120840183905261014084018390526101608401839052600161018090940193909352848252600390522081518190610cea9082612ae0565b5060208201516001820190610cff9082612ae0565b506040828101516002830180546060860151608087015160a088015160c089015161ffff1994851696151561ff00199081169790971761010094151585021766ffffffffff0000191662010000931515840266ffffffff000000191617630100000063ffffffff90931683021760ff60381b1916600160381b911515919091021790945560e088015160038801558188015160048801805460ff1916911515919091179055610120880151600580890191909155610140890151600690980180546101608b01516101808c01516101a0909c015191909616991515909716989098179315159092029290921763ffff0000191696151590910263ff00000019169590951791151502179091555f8481526020929092529081902082905551610e2a9086908690612a3f565b60405180910390208787604051610e42929190612a3f565b604080519182900382206001600160a01b0387168352426020840152917f2ed6a9fe185827df866d29930e5191162f591f196bebcb22f048cd728c01e7fb910160405180910390a350505050505050565b604080516101a0810182526060808252602082018190525f92820183905281018290526080810182905260a0810182905260c0810182905260e08101829052610100810182905261012081018290526101408101829052610160810182905261018081019190915260025f610f3c85858080601f0160208091040260200160405190810160405280939291908181526020018383808284375f920191909152506122dd92505050565b81526020019081526020015f20604051806101a00160405290815f82018054610f64906129dd565b80601f0160208091040260200160405190810160405280929190818152602001828054610f90906129dd565b8015610fdb5780601f10610fb257610100808354040283529160200191610fdb565b820191905f5260205f20905b815481529060010190602001808311610fbe57829003601f168201915b50505050508152602001600182018054610ff4906129dd565b80601f0160208091040260200160405190810160405280929190818152602001828054611020906129dd565b801561106b5780601f106110425761010080835404028352916020019161106b565b820191905f5260205f20905b81548152906001019060200180831161104e57829003601f168201915b5050509183525050600282015460ff808216151560208401526101008083048216151560408501526201000083048216151560608501526301000000830482161515608085015263ffffffff640100000000808504821660a0870152600160401b8504821660c0870152600160601b909404811660e086015260038601549185019190915260048501546101208501526005909401549384166101408401529204909116151561016090910152905092915050565b335f9081526001602052604090205460ff168061114657505f546001600160a01b031633145b6111625760405162461bcd60e51b81526004016102e39061294c565b5f6111a185858080601f0160208091040260200160405190810160405280939291908181526020018383808284375f920191909152506122dd92505050565b5f8181526003602052604090206006810154919250906301000000900460ff1680156111d757506006810154610100900460ff16155b80156111ee5750600681015462010000900460ff16155b61122f5760405162461bcd60e51b81526020600482015260126024820152714c50453a20696e76616c696420737461746560701b60448201526064016102e3565b60068101805460ff1916600117905560405161124e9087908790612a3f565b60405180910390207f505044aa55a2a47558945f22c9f2120d62eb879b14f61d3b67983e93ae578f9d858533426040516108a59493929190612bc8565b5f546001600160a01b031633146112b45760405162461bcd60e51b81526004016102e390612bf7565b6001600160a01b03165f908152600160208190526040909120805460ff19169091179055565b335f9081526001602052604081205460ff168061130057505f546001600160a01b031633145b61131c5760405162461bcd60e51b81526004016102e39061294c565b5f61135b86868080601f0160208091040260200160405190810160405280939291908181526020018383808284375f920191909152506122dd92505050565b90505f61139c85858080601f0160208091040260200160405190810160405280939291908181526020018383808284375f920191909152506122dd92505050565b5f8181526003602090815260408083208684526002909252909120600682015492935090916301000000900460ff166113e75760405162461bcd60e51b81526004016102e390612977565b6006820154610100900460ff16156114395760405162461bcd60e51b81526020600482015260156024820152741314114e88185b1c9958591e481c995b19585cd959605a1b60448201526064016102e3565b600682015462010000900460ff16156114885760405162461bcd60e51b81526020600482015260116024820152701314114e8818db185a5b4819195b9a5959607a1b60448201526064016102e3565b600682015460ff16156114d65760405162461bcd60e51b81526020600482015260166024820152751314114e8818db185a5b481a5cc8191a5cdc1d5d195960521b60448201526064016102e3565b600281015460ff1615806114ee5750600282015460ff165b61153a5760405162461bcd60e51b815260206004820152601a60248201527f4c50453a206964656e74697479206e6f7420766572696669656400000000000060448201526064016102e3565b6002810154610100900460ff16158061155c57506002820154610100900460ff165b6115a85760405162461bcd60e51b815260206004820152601c60248201527f4c50453a2064656174682063657274206e6f742075706c6f616465640000000060448201526064016102e3565b600281015462010000900460ff1615806115cc5750600282015462010000900460ff165b6116185760405162461bcd60e51b815260206004820152601a60248201527f4c50453a206174746f726e6579206e6f7420617474657374656400000000000060448201526064016102e3565b60028101546301000000900460ff16158061163e57506002820154600160381b900460ff165b6116805760405162461bcd60e51b81526020600482015260136024820152721314114e881c5d5bdc9d5b481b9bdd081b595d606a1b60448201526064016102e3565b600482015460ff1680611697575081600501544210155b6116e35760405162461bcd60e51b815260206004820152601a60248201527f4c50453a2077616974696e6720706572696f642061637469766500000000000060448201526064016102e3565b60068201805461ff0019166101009081179091556002830154600584015460405161173a938b938b9360ff828116949383048116936201000084049091169263ffffffff6301000000909104169190602001612c1f565b6040516020818303038152906040528051906020012094508686604051611762929190612a3f565b6040518091039020898960405161177a929190612a3f565b604080519182900382208883523360208401524283830152905190917f65a854de2ee2f21b33d5e1e4d53151829b3c5d0b6867414078d76de0719715a8919081900360600190a350505050949350505050565b5f546001600160a01b031633146117f65760405162461bcd60e51b81526004016102e390612bf7565b6001600160a01b03165f908152600160205260409020805460ff19169055565b335f9081526001602052604090205460ff168061183c57505f546001600160a01b031633145b6118585760405162461bcd60e51b81526004016102e39061294c565b5f61189784848080601f0160208091040260200160405190810160405280939291908181526020018383808284375f920191909152506122dd92505050565b5f8181526003602052604090206006810154919250906301000000900460ff1680156118c75750600681015460ff165b6119075760405162461bcd60e51b81526020600482015260116024820152701314114e881b9bdd08191a5cdc1d5d1959607a1b60448201526064016102e3565b60068101805460ff191690558261192c5760068101805462ff00001916620100001790555b848460405161193c929190612a3f565b6040805191829003822085151583523360208401524283830152905190917f8d0e98aef4d85d348d57e4cbfeb62a4757630a03b8a5d7dcb72210e777439743919081900360600190a25050505050565b606060045f6119cf85858080601f0160208091040260200160405190810160405280939291908181526020018383808284375f920191909152506122dd92505050565b81526020019081526020015f20805480602002602001604051908101604052809291908181526020015f905b82821015611a9b575f848152602090206040805160808101909152600384029091018054829060ff166004811115611a3557611a356126ba565b6004811115611a4657611a466126ba565b81526020015f820160019054906101000a90046001600160a01b03166001600160a01b03166001600160a01b0316815260200160018201548152602001600282015481525050815260200190600101906119fb565b50505050905092915050565b604080516101c0810182526060808252602082018190525f92820183905281018290526080810182905260a0810182905260c0810182905260e08101829052610100810182905261012081018290526101408101829052610160810182905261018081018290526101a08101919091525f611b5684848080601f0160208091040260200160405190810160405280939291908181526020018383808284375f920191909152506122dd92505050565b5f818152600360205260409020600601549091506301000000900460ff16611b905760405162461bcd60e51b81526004016102e390612977565b5f818152600360205260409081902081516101c08101909252805482908290611bb8906129dd565b80601f0160208091040260200160405190810160405280929190818152602001828054611be4906129dd565b8015611c2f5780601f10611c0657610100808354040283529160200191611c2f565b820191905f5260205f20905b815481529060010190602001808311611c1257829003601f168201915b50505050508152602001600182018054611c48906129dd565b80601f0160208091040260200160405190810160405280929190818152602001828054611c74906129dd565b8015611cbf5780601f10611c9657610100808354040283529160200191611cbf565b820191905f5260205f20905b815481529060010190602001808311611ca257829003601f168201915b5050509183525050600282015460ff8082161515602084015261010080830482161515604085015262010000808404831615156060860152630100000080850463ffffffff166080870152600160381b9094048316151560a0860152600386015460c086015260048601548316151560e0860152600586015482860152600690950154808316151561012086015290810482161515610140850152938404811615156101608401529204909116151561018090910152949350505050565b335f9081526001602052604090205460ff1680611da357505f546001600160a01b031633145b611dbf5760405162461bcd60e51b81526004016102e39061294c565b5f611dfe8c8c8080601f0160208091040260200160405190810160405280939291908181526020018383808284375f920191909152506122dd92505050565b5f8181526002602052604081206005015491925090640100000000900460ff16611e29576001611e4b565b5f82815260026020526040902060050154611e4b9063ffffffff1660016129b9565b90505f8b8b8b8b8b8b8b8b8b8a604051602001611e719a99989796959493929190612c6c565b604051602081830303815290604052805190602001205f1c9050604051806101a001604052808f8f8080601f0160208091040260200160405190810160405280939291908181526020018383808284375f81840152601f19601f8201169050808301925050505050505081526020018d8d8080601f0160208091040260200160405190810160405280939291908181526020018383808284375f9201829052509385525050508c15156020808401919091528c15156040808501919091528c151560608501528b1515608085015263ffffffff808c1660a08601528a811660c086015289811660e08601526101008501879052426101208601528716610140850152600161016090940193909352868252600290522081518190611f959082612ae0565b5060208201516001820190611faa9082612ae0565b506040828101516002830180546060860151608087015160a088015160c089015160e08a0151610100808c015161ffff1990971698151561ff001916989098179415159097029390931763ffff00001916620100009215159290920263ff000000191691909117630100000091151591909102176bffffffffffffffff00000000191664010000000063ffffffff92831681026bffffffff0000000000000000191691909117600160401b958316959095029490941763ffffffff60601b1916600160601b92821692909202919091179091556101208501516003850155610140850151600485015561016085015160059094018054610180909601519490911664ffffffffff19909516949094179215150291909117909155516120d2908f908f90612a3f565b60405180910390207f279bf5a45d2bd78ddcf47fe027582771d21bff1fc5c85156ca67680b43e7d3f18d8d848642604051612111959493929190612cf3565b60405180910390a25050505050505050505050505050565b335f9081526001602052604090205460ff168061214f57505f546001600160a01b031633145b61216b5760405162461bcd60e51b81526004016102e39061294c565b5f6121aa85858080601f0160208091040260200160405190810160405280939291908181526020018383808284375f920191909152506122dd92505050565b5f8181526003602052604090206006810154919250906301000000900460ff1680156121e057506006810154610100900460ff16155b6122215760405162461bcd60e51b81526020600482015260126024820152714c50453a20696e76616c696420737461746560701b60448201526064016102e3565b60068101805462ff00001916620100001790556040516122449087908790612a3f565b60405180910390207fe1e87775e773b757206f75bd6f37e3330fd42049d12b74dbb34776e5c3b6a4b4858533426040516108a59493929190612bc8565b5f546001600160a01b031633146122aa5760405162461bcd60e51b81526004016102e390612bf7565b6001600160a01b0381166122bc575f80fd5b5f80546001600160a01b0319166001600160a01b0392909216919091179055565b5f816040516020016122ef9190612d29565b604051602081830303815290604052805190602001209050919050565b80356001600160a01b0381168114612322575f80fd5b919050565b5f60208284031215612337575f80fd5b6123408261230c565b9392505050565b5f8083601f840112612357575f80fd5b50813567ffffffffffffffff81111561236e575f80fd5b602083019150836020828501011115612385575f80fd5b9250929050565b5f805f806060858703121561239f575f80fd5b843567ffffffffffffffff8111156123b5575f80fd5b6123c187828801612347565b9095509350506020850135600581106123d8575f80fd5b9396929550929360400135925050565b5f80602083850312156123f9575f80fd5b823567ffffffffffffffff81111561240f575f80fd5b61241b85828601612347565b90969095509350505050565b5f805f805f6060868803121561243b575f80fd5b853567ffffffffffffffff80821115612452575f80fd5b61245e89838a01612347565b90975095506020880135915080821115612476575f80fd5b5061248388828901612347565b909450925061249690506040870161230c565b90509295509295909350565b5f5b838110156124bc5781810151838201526020016124a4565b50505f910152565b5f81518084526124db8160208601602086016124a2565b601f01601f19169290920160200192915050565b602081525f82516101a080602085015261250d6101c08501836124c4565b91506020850151601f1985840301604086015261252a83826124c4565b9250506040850151612540606086018215159052565b506060850151801515608086015250608085015180151560a08601525060a085015180151560c08601525060c085015163ffffffff811660e08601525060e08501516101006125968187018363ffffffff169052565b86015190506101206125af8682018363ffffffff169052565b860151610140868101919091528601516101608087019190915286015190506101806125e28187018363ffffffff169052565b90950151151593019290925250919050565b5f805f8060408587031215612607575f80fd5b843567ffffffffffffffff8082111561261e575f80fd5b61262a88838901612347565b90965094506020870135915080821115612642575f80fd5b5061264f87828801612347565b95989497509550505050565b80358015158114612322575f80fd5b5f805f6040848603121561267c575f80fd5b833567ffffffffffffffff811115612692575f80fd5b61269e86828701612347565b90945092506126b190506020850161265b565b90509250925092565b634e487b7160e01b5f52602160045260245ffd5b600581106126ea57634e487b7160e01b5f52602160045260245ffd5b9052565b602080825282518282018190525f919060409081850190868401855b8281101561275457815161271f8582516126ce565b808701516001600160a01b0316858801528581015186860152606090810151908501526080909301929085019060010161270a565b5091979650505050505050565b602081525f82516101c080602085015261277f6101e08501836124c4565b91506020850151601f1985840301604086015261279c83826124c4565b92505060408501516127b2606086018215159052565b506060850151801515608086015250608085015180151560a08601525060a085015163ffffffff811660c08601525060c085015180151560e08601525060e0850151610100858101919091528501516101206128118187018315159052565b8601516101408681019190915286015190506101606128338187018315159052565b86015190506101806128488682018315159052565b86015190506101a06125e28682018315159052565b803563ffffffff81168114612322575f80fd5b5f805f805f805f805f805f6101208c8e03121561288b575f80fd5b67ffffffffffffffff808d3511156128a1575f80fd5b6128ae8e8e358f01612347565b909c509a5060208d01358110156128c3575f80fd5b506128d48d60208e01358e01612347565b90995097506128e560408d0161265b565b96506128f360608d0161265b565b955061290160808d0161265b565b945061290f60a08d0161265b565b935061291d60c08d0161285d565b925061292b60e08d0161285d565b915061293a6101008d0161285d565b90509295989b509295989b9093969950565b6020808252601190820152702628229d103737ba1037b832b930ba37b960791b604082015260600190565b6020808252601490820152731314114e8818db185a5b481b9bdd08199bdd5b9960621b604082015260600190565b634e487b7160e01b5f52601160045260245ffd5b63ffffffff8181168382160190808211156129d6576129d66129a5565b5092915050565b600181811c908216806129f157607f821691505b602082108103612a0f57634e487b7160e01b5f52602260045260245ffd5b50919050565b8082028115828204841417610a5d57610a5d6129a5565b80820180821115610a5d57610a5d6129a5565b818382375f9101908152919050565b60808101612a5c82876126ce565b6001600160a01b039490941660208201526040810192909252606090910152919050565b634e487b7160e01b5f52604160045260245ffd5b601f821115612adb57805f5260205f20601f840160051c81016020851015612ab95750805b601f840160051c820191505b81811015612ad8575f8155600101612ac5565b50505b505050565b815167ffffffffffffffff811115612afa57612afa612a80565b612b0e81612b0884546129dd565b84612a94565b602080601f831160018114612b41575f8415612b2a5750858301515b5f19600386901b1c1916600185901b178555612b98565b5f85815260208120601f198616915b82811015612b6f57888601518255948401946001909101908401612b50565b5085821015612b8c57878501515f19600388901b60f8161c191681555b505060018460011b0185555b505050505050565b81835281816020850137505f828201602090810191909152601f909101601f19169091010190565b606081525f612bdb606083018688612ba0565b6001600160a01b03949094166020830152506040015292915050565b6020808252600e908201526d2628229d103737ba1037bbb732b960911b604082015260600190565b8688823794151560f890811b95909601948552921515851b600185015290151590931b600283015260e09290921b6001600160e01b03191660038201526007810191909152602701919050565b898b82375f8a82018a151560f81b815289151560f81b600182015288151560f81b600282015287151560f81b600382015263ffffffff60e01b808860e01b166004830152808760e01b166008830152808660e01b16600c83015250612ce0601082018560e01b6001600160e01b0319169052565b6014019c9b505050505050505050505050565b608081525f612d06608083018789612ba0565b60208301959095525063ffffffff92909216604083015260609091015292915050565b5f8251612d3a8184602087016124a2565b919091019291505056fea2646970667358221220d5deb4fe568836f338f8a7dfda2c36b59bcdc37bfdae3963dca39cfbb7a8db8264736f6c63430008180033",
  "linkReferences": {},
  "deployedLinkReferences": {}
}