{
  "_format": "hh-sol-artifact-1",
  "contractName": "LegacyVaultExecutionUtility",
  "sourceName": "src/LegacyVaultExecutionUtility.sol",
  "abi": [
    {
      "inputs": [
        {
          "internalType": "address",
          "name": "_vaultRegistry",
          "type": "address"
        },
        {
          "internalType": "address",
          "name": "_policyEngine",
          "type": "address"
        }
      ],
      "stateMutability": "nonpayable",
      "type": "constructor"
    },
    {
      "inputs": [
        {
          "internalType": "address",
          "name": "owner",
          "type": "address"
        }
      ],
      "name": "OwnableInvalidOwner",
      "type": "error"
    },
    {
      "inputs": [
        {
          "internalType": "address",
          "name": "account",
          "type": "address"
        }
      ],
      "name": "OwnableUnauthorizedAccount",
      "type": "error"
    },
    {
      "anonymous": false,
      "inputs": [
        {
          "indexed": true,
          "internalType": "string",
          "name": "vaultId",
          "type": "string"
        },
        {
          "components": [
            {
              "internalType": "address",
              "name": "beneficiary",
              "type": "address"
            },
            {
              "internalType": "uint256",
              "name": "basisPoints",
              "type": "uint256"
            }
          ],
          "indexed": false,
          "internalType": "struct LegacyVaultExecutionUtility.Share[]",
          "name": "shares",
          "type": "tuple[]"
        }
      ],
      "name": "BeneficiarySharesUpdated",
      "type": "event"
    },
    {
      "anonymous": false,
      "inputs": [
        {
          "indexed": true,
          "internalType": "address",
          "name": "operator",
          "type": "address"
        },
        {
          "indexed": false,
          "internalType": "bool",
          "name": "status",
          "type": "bool"
        }
      ],
      "name": "OperatorUpdated",
      "type": "event"
    },
    {
      "anonymous": false,
      "inputs": [
        {
          "indexed": true,
          "internalType": "address",
          "name": "previousOwner",
          "type": "address"
        },
        {
          "indexed": true,
          "internalType": "address",
          "name": "newOwner",
          "type": "address"
        }
      ],
      "name": "OwnershipTransferred",
      "type": "event"
    },
    {
      "anonymous": false,
      "inputs": [
        {
          "indexed": true,
          "internalType": "string",
          "name": "vaultId",
          "type": "string"
        },
        {
          "indexed": true,
          "internalType": "address",
          "name": "token",
          "type": "address"
        },
        {
          "indexed": false,
          "internalType": "uint256",
          "name": "totalDistributed",
          "type": "uint256"
        },
        {
          "indexed": false,
          "internalType": "uint256",
          "name": "beneficiariesCount",
          "type": "uint256"
        }
      ],
      "name": "VaultEstateDistributed",
      "type": "event"
    },
    {
      "inputs": [
        {
          "internalType": "string",
          "name": "vaultId",
          "type": "string"
        },
        {
          "internalType": "string",
          "name": "claimId",
          "type": "string"
        },
        {
          "internalType": "address",
          "name": "tbaAddress",
          "type": "address"
        },
        {
          "internalType": "address",
          "name": "tokenAddress",
          "type": "address"
        }
      ],
      "name": "executeVaultRelease",
      "outputs": [],
      "stateMutability": "nonpayable",
      "type": "function"
    },
    {
      "inputs": [
        {
          "internalType": "string",
          "name": "vaultId",
          "type": "string"
        }
      ],
      "name": "getBeneficiaryShares",
      "outputs": [
        {
          "components": [
            {
              "internalType": "address",
              "name": "beneficiary",
              "type": "address"
            },
            {
              "internalType": "uint256",
              "name": "basisPoints",
              "type": "uint256"
            }
          ],
          "internalType": "struct LegacyVaultExecutionUtility.Share[]",
          "name": "",
          "type": "tuple[]"
        }
      ],
      "stateMutability": "view",
      "type": "function"
    },
    {
      "inputs": [
        {
          "internalType": "address",
          "name": "",
          "type": "address"
        }
      ],
      "name": "operators",
      "outputs": [
        {
          "internalType": "bool",
          "name": "",
          "type": "bool"
        }
      ],
      "stateMutability": "view",
      "type": "function"
    },
    {
      "inputs": [],
      "name": "owner",
      "outputs": [
        {
          "internalType": "address",
          "name": "",
          "type": "address"
        }
      ],
      "stateMutability": "view",
      "type": "function"
    },
    {
      "inputs": [],
      "name": "policyEngine",
      "outputs": [
        {
          "internalType": "address",
          "name": "",
          "type": "address"
        }
      ],
      "stateMutability": "view",
      "type": "function"
    },
    {
      "inputs": [],
      "name": "renounceOwnership",
      "outputs": [],
      "stateMutability": "nonpayable",
      "type": "function"
    },
    {
      "inputs": [
        {
          "internalType": "string",
          "name": "vaultId",
          "type": "string"
        },
        {
          "internalType": "address[]",
          "name": "beneficiaries",
          "type": "address[]"
        },
        {
          "internalType": "uint256[]",
          "name": "basisPoints",
          "type": "uint256[]"
        }
      ],
      "name": "setBeneficiaryShares",
      "outputs": [],
      "stateMutability": "nonpayable",
      "type": "function"
    },
    {
      "inputs": [
        {
          "internalType": "address",
          "name": "op",
          "type": "address"
        },
        {
          "internalType": "bool",
          "name": "status",
          "type": "bool"
        }
      ],
      "name": "setOperators",
      "outputs": [],
      "stateMutability": "nonpayable",
      "type": "function"
    },
    {
      "inputs": [
        {
          "internalType": "address",
          "name": "_vaultRegistry",
          "type": "address"
        },
        {
          "internalType": "address",
          "name": "_policyEngine",
          "type": "address"
        }
      ],
      "name": "setRegistries",
      "outputs": [],
      "stateMutability": "nonpayable",
      "type": "function"
    },
    {
      "inputs": [
        {
          "internalType": "address",
          "name": "newOwner",
          "type": "address"
        }
      ],
      "name": "transferOwnership",
      "outputs": [],
      "stateMutability": "nonpayable",
      "type": "function"
    },
    {
      "inputs": [],
      "name": "vaultRegistry",
      "outputs": [
        {
          "internalType": "address",
          "name": "",
          "type": "address"
        }
      ],
      "stateMutability": "view",
      "type": "function"
    }
  ],
  "bytecode": "0x608060405234801562000010575f80fd5b50604051620017b6380380620017b683398101604081905262000033916200011e565b33806200005957604051631e4fbdf760e01b81525f600482015260240160405180910390fd5b6200006481620000b3565b50600180546001600160a01b039384166001600160a01b03199182161782556002805493909416921691909117909155335f908152600460205260409020805460ff1916909117905562000154565b5f80546001600160a01b038381166001600160a01b0319831681178455604051919092169283917f8be0079c531659141344cd1fd0a4f28419497f9722a3daafe3b4186f6b6457e09190a35050565b80516001600160a01b038116811462000119575f80fd5b919050565b5f806040838503121562000130575f80fd5b6200013b8362000102565b91506200014b6020840162000102565b90509250929050565b61165480620001625f395ff3fe608060405234801561000f575f80fd5b50600436106100a6575f3560e01c80638da5cb5b1161006e5780638da5cb5b14610131578063927399a514610155578063cdd7b38a14610168578063d8ff87761461017b578063f2fde38b1461018e578063f370a328146101a1575f80fd5b806313e7c9d8146100aa5780633099eea8146100e1578063399bdf2a146101015780635cfbfc6d14610116578063715018a614610129575b5f80fd5b6100cc6100b8366004610e7c565b60046020525f908152604090205460ff1681565b60405190151581526020015b60405180910390f35b6100f46100ef366004610ee1565b6101b4565b6040516100d89190610f20565b61011461010f366004610f77565b610262565b005b610114610124366004610fb5565b610298565b6101146102fe565b5f546001600160a01b03165b6040516001600160a01b0390911681526020016100d8565b60025461013d906001600160a01b031681565b60015461013d906001600160a01b031681565b61011461018936600461102b565b610311565b61011461019c366004610e7c565b610713565b6101146101af3660046110be565b610750565b606060035f84846040516020016101cc929190611148565b6040516020818303038152906040528051906020012081526020019081526020015f20805480602002602001604051908101604052809291908181526020015f905b82821015610255575f848152602090819020604080518082019091526002850290910180546001600160a01b0316825260019081015482840152908352909201910161020e565b5050505090505b92915050565b61026a610da4565b600180546001600160a01b039384166001600160a01b03199182161790915560028054929093169116179055565b6102a0610da4565b6001600160a01b0382165f81815260046020908152604091829020805460ff191685151590811790915591519182527f966c160e1c4dbc7df8d69af4ace01e9297c3cf016397b7914971f2fbfa32672d910160405180910390a25050565b610306610da4565b61030f5f610dd0565b565b335f9081526004602052604090205460ff168061033757505f546001600160a01b031633145b61037d5760405162461bcd60e51b8152602060048201526012602482015271262b22aa9d103737ba1037b832b930ba37b960711b60448201526064015b60405180910390fd5b8281146103cc5760405162461bcd60e51b815260206004820152601c60248201527f4c5645553a20617272617973206c656e677468206d69736d61746368000000006044820152606401610374565b826104195760405162461bcd60e51b815260206004820152601f60248201527f4c5645553a20656d7074792062656e65666963696172696573206172726179006044820152606401610374565b5f868660405160200161042d929190611148565b60408051601f1981840301815291815281516020928301205f818152600390935290822090925061045d91610e1f565b5f805b85811015610635575f87878381811061047b5761047b611157565b90506020020160208101906104909190610e7c565b6001600160a01b0316036104e65760405162461bcd60e51b815260206004820152601e60248201527f4c5645553a207a65726f20616464726573732062656e656669636961727900006044820152606401610374565b5f8585838181106104f9576104f9611157565b90506020020135116105585760405162461bcd60e51b815260206004820152602260248201527f4c5645553a207368617265206d7573742062652067726561746572207468616e604482015261020360f41b6064820152608401610374565b60035f8481526020019081526020015f20604051806040016040528089898581811061058657610586611157565b905060200201602081019061059b9190610e7c565b6001600160a01b031681526020018787858181106105bb576105bb611157565b602090810292909201359092528354600180820186555f95865294829020845160029092020180546001600160a01b0319166001600160a01b0390921691909117815592015191909201555084848281811061061957610619611157565b905060200201358261062b919061117f565b9150600101610460565b5080612710146106ad5760405162461bcd60e51b815260206004820152603760248201527f4c5645553a20746f74616c20736861726573206d75737420657175616c20313060448201527f30303020626173697320706f696e7473202831303025290000000000000000006064820152608401610374565b87876040516106bd929190611148565b604080519182900382205f85815260036020529190912090917f97a3929680a6deaff1e6fa86ded328658e3fe6478c82e9fb1315266b2bbca2ff9161070191611192565b60405180910390a25050505050505050565b61071b610da4565b6001600160a01b03811661074457604051631e4fbdf760e01b81525f6004820152602401610374565b61074d81610dd0565b50565b335f9081526004602052604090205460ff168061077657505f546001600160a01b031633145b6107b75760405162461bcd60e51b8152602060048201526012602482015271262b22aa9d103737ba1037b832b930ba37b960711b6044820152606401610374565b600254600154604051633e3c794f60e01b81526001600160a01b0392831692909116908290633e3c794f906107f2908990899060040161120c565b602060405180830381865afa15801561080d573d5f803e3d5ffd5b505050506040513d601f19601f820116820180604052508101906108319190611232565b61088b5760405162461bcd60e51b815260206004820152602560248201527f4c5645553a20506f6c69637920636f6e646974696f6e73206e6f7420736174696044820152641cd99a595960da1b6064820152608401610374565b60405163698888a360e11b81525f906001600160a01b0384169063d3111146906108bb908a908a9060040161120c565b5f60405180830381865afa1580156108d5573d5f803e3d5ffd5b505050506040513d5f823e601f3d908101601f191682016040526108fc9190810190611350565b90508888604051602001610911929190611148565b60408051601f198184030181529082905280516020918201208351909261093892016114ae565b604051602081830303815290604052805190602001201461099b5760405162461bcd60e51b815260206004820181905260248201527f4c5645553a20436c61696d20646f6573206e6f74206d61746368207661756c746044820152606401610374565b806101600151610a1957604051632a5a3a2560e21b81526001600160a01b0384169063a968e894906109d7908c908c908c908c906004016114c9565b6020604051808303815f875af11580156109f3573d5f803e3d5ffd5b505050506040513d601f19601f82011682018060405250810190610a1791906114fa565b505b604051630399437360e01b81526001600160a01b03831690630399437390610a4a908c908c90600390600401611511565b5f604051808303815f87803b158015610a61575f80fd5b505af1158015610a73573d5f803e3d5ffd5b505050505f8989604051602001610a8b929190611148565b60408051601f1981840301815291815281516020928301205f81815260039093529120805491925090610b105760405162461bcd60e51b815260206004820152602760248201527f4c5645553a2042656e656669636961727920736861726573206e6f7420636f6e604482015266199a59dd5c995960ca1b6064820152608401610374565b6040516370a0823160e01b81526001600160a01b03888116600483015287915f918316906370a0823190602401602060405180830381865afa158015610b58573d5f803e3d5ffd5b505050506040513d601f19601f82011682018060405250810190610b7c91906114fa565b90505f8111610bcd5760405162461bcd60e51b815260206004820152601c60248201527f4c5645553a2054424120746f6b656e2062616c616e63652069732030000000006044820152606401610374565b82545f90815b81811015610d38575f868281548110610bee57610bee611157565b5f918252602082206002909102015488546001600160a01b03909116925061271090899085908110610c2257610c22611157565b905f5260205f2090600202016001015487610c3d9190611550565b610c479190611567565b90508015610d2e576040516001600160a01b0383166024820152604481018290525f9063a9059cbb60e01b90606401604051602081830303815290604052906001600160e01b0319166020820180516001600160e01b03838183161783525050505090508e6001600160a01b031663519454478f5f845f6040518563ffffffff1660e01b8152600401610cdd9493929190611586565b5f604051808303815f875af1158015610cf8573d5f803e3d5ffd5b505050506040513d5f823e601f3d908101601f19168201604052610d1f91908101906115d9565b50610d2a828761117f565b9550505b5050600101610bd3565b50896001600160a01b03168f8f604051610d53929190611148565b6040805191829003822085835260208301859052917f77d8be1dd26763659d54ef7768e5e83f2e41c8046c469067db65b8f4aa4034f2910160405180910390a3505050505050505050505050505050565b5f546001600160a01b0316331461030f5760405163118cdaa760e01b8152336004820152602401610374565b5f80546001600160a01b038381166001600160a01b0319831681178455604051919092169283917f8be0079c531659141344cd1fd0a4f28419497f9722a3daafe3b4186f6b6457e09190a35050565b5080545f8255600202905f5260205f209081019061074d91905b80821115610e5d5780546001600160a01b03191681555f6001820155600201610e39565b5090565b80356001600160a01b0381168114610e77575f80fd5b919050565b5f60208284031215610e8c575f80fd5b610e9582610e61565b9392505050565b5f8083601f840112610eac575f80fd5b50813567ffffffffffffffff811115610ec3575f80fd5b602083019150836020828501011115610eda575f80fd5b9250929050565b5f8060208385031215610ef2575f80fd5b823567ffffffffffffffff811115610f08575f80fd5b610f1485828601610e9c565b90969095509350505050565b602080825282518282018190525f919060409081850190868401855b82811015610f6a57815180516001600160a01b03168552860151868501529284019290850190600101610f3c565b5091979650505050505050565b5f8060408385031215610f88575f80fd5b610f9183610e61565b9150610f9f60208401610e61565b90509250929050565b801515811461074d575f80fd5b5f8060408385031215610fc6575f80fd5b610fcf83610e61565b91506020830135610fdf81610fa8565b809150509250929050565b5f8083601f840112610ffa575f80fd5b50813567ffffffffffffffff811115611011575f80fd5b6020830191508360208260051b8501011115610eda575f80fd5b5f805f805f8060608789031215611040575f80fd5b863567ffffffffffffffff80821115611057575f80fd5b6110638a838b01610e9c565b9098509650602089013591508082111561107b575f80fd5b6110878a838b01610fea565b9096509450604089013591508082111561109f575f80fd5b506110ac89828a01610fea565b979a9699509497509295939492505050565b5f805f805f80608087890312156110d3575f80fd5b863567ffffffffffffffff808211156110ea575f80fd5b6110f68a838b01610e9c565b9098509650602089013591508082111561110e575f80fd5b5061111b89828a01610e9c565b909550935061112e905060408801610e61565b915061113c60608801610e61565b90509295509295509295565b818382375f9101908152919050565b634e487b7160e01b5f52603260045260245ffd5b634e487b7160e01b5f52601160045260245ffd5b8082018082111561025c5761025c61116b565b5f60208083016020845280855480835260409250604086019150865f5260205f205f5b82811015610f6a5781546001600160a01b031684526001828101548786015293850193600290920191016111b5565b81835281816020850137505f828201602090810191909152601f909101601f19169091010190565b602081525f61121f6020830184866111e4565b949350505050565b8051610e7781610fa8565b5f60208284031215611242575f80fd5b8151610e9581610fa8565b634e487b7160e01b5f52604160045260245ffd5b6040516101c0810167ffffffffffffffff811182821017156112855761128561124d565b60405290565b5f5b838110156112a557818101518382015260200161128d565b50505f910152565b5f67ffffffffffffffff808411156112c7576112c761124d565b604051601f8501601f19908116603f011681019082821181831017156112ef576112ef61124d565b81604052809350858152868686011115611307575f80fd5b61131586602083018761128b565b5050509392505050565b5f82601f83011261132e575f80fd5b610e95838351602085016112ad565b805163ffffffff81168114610e77575f80fd5b5f60208284031215611360575f80fd5b815167ffffffffffffffff80821115611377575f80fd5b908301906101c0828603121561138b575f80fd5b611393611261565b8251828111156113a1575f80fd5b6113ad8782860161131f565b8252506020830151828111156113c1575f80fd5b6113cd8782860161131f565b6020830152506113df60408401611227565b60408201526113f060608401611227565b606082015261140160808401611227565b608082015261141260a0840161133d565b60a082015261142360c08401611227565b60c082015260e083015160e08201526101009150611442828401611227565b82820152610120915081830151828201526101409150611463828401611227565b828201526101609150611477828401611227565b82820152610180915061148b828401611227565b828201526101a0915061149f828401611227565b91810191909152949350505050565b5f82516114bf81846020870161128b565b9190910192915050565b604081525f6114dc6040830186886111e4565b82810360208401526114ef8185876111e4565b979650505050505050565b5f6020828403121561150a575f80fd5b5051919050565b604081525f6115246040830185876111e4565b90506006831061154257634e487b7160e01b5f52602160045260245ffd5b826020830152949350505050565b808202811582820484141761025c5761025c61116b565b5f8261158157634e487b7160e01b5f52601260045260245ffd5b500490565b60018060a01b0385168152836020820152608060408201525f83518060808401526115b88160a085016020880161128b565b60ff93909316606083015250601f91909101601f19160160a0019392505050565b5f602082840312156115e9575f80fd5b815167ffffffffffffffff8111156115ff575f80fd5b8201601f8101841361160f575f80fd5b61121f848251602084016112ad56fea2646970667358221220e4ad512388beb7c5be64c58fa53f068c6632a7b093bb3c8b12c64f34dfab8fb064736f6c63430008180033",
  "linkReferences": {},
  "deployedLinkReferences": {}
}