{
  "_format": "hh-sol-artifact-1",
  "contractName": "MockTBAHelper",
  "sourceName": "src/MockTBAHelper.sol",
  "abi": [
    {
      "inputs": [
        {
          "internalType": "address",
          "name": "to",
          "type": "address"
        },
        {
          "internalType": "uint256",
          "name": "value",
          "type": "uint256"
        },
        {
          "internalType": "bytes",
          "name": "data",
          "type": "bytes"
        },
        {
          "internalType": "uint8",
          "name": "",
          "type": "uint8"
        }
      ],
      "name": "execute",
      "outputs": [
        {
          "internalType": "bytes",
          "name": "",
          "type": "bytes"
        }
      ],
      "stateMutability": "payable",
      "type": "function"
    },
    {
      "stateMutability": "payable",
      "type": "receive"
    }
  ],
  "bytecode": "0x608060405234801561000f575f80fd5b5061025c8061001d5f395ff3fe608060405260043610610020575f3560e01c8063519454471461002b575f80fd5b3661002757005b5f80fd5b61003e610039366004610128565b610054565b60405161004b91906101cb565b60405180910390f35b60605f80876001600160a01b0316878787604051610073929190610217565b5f6040518083038185875af1925050503d805f81146100ad576040519150601f19603f3d011682016040523d82523d5f602084013e6100b2565b606091505b5091509150816101085760405162461bcd60e51b815260206004820152601f60248201527f4d6f636b54424148656c7065723a20657865637574696f6e206661696c656400604482015260640160405180910390fd5b979650505050505050565b803560ff81168114610123575f80fd5b919050565b5f805f805f6080868803121561013c575f80fd5b85356001600160a01b0381168114610152575f80fd5b945060208601359350604086013567ffffffffffffffff80821115610175575f80fd5b818801915088601f830112610188575f80fd5b813581811115610196575f80fd5b8960208285010111156101a7575f80fd5b6020830195508094505050506101bf60608701610113565b90509295509295909350565b5f602080835283518060208501525f5b818110156101f7578581018301518582016040015282016101db565b505f604082860101526040601f19601f8301168501019250505092915050565b818382375f910190815291905056fea26469706673582212208a7e700f0261181766aa7193f8030c34de73f184b4dcbd3716c6d4e01924bc0a64736f6c63430008180033",
  "linkReferences": {},
  "deployedLinkReferences": {}
}