{
  "_format": "hh-sol-artifact-1",
  "contractName": "AffiliateBadge",
  "sourceName": "src/AffiliateBadge.sol",
  "abi": [
    {
      "inputs": [],
      "stateMutability": "nonpayable",
      "type": "constructor"
    },
    {
      "inputs": [
        {
          "internalType": "address",
          "name": "sender",
          "type": "address"
        },
        {
          "internalType": "uint256",
          "name": "tokenId",
          "type": "uint256"
        },
        {
          "internalType": "address",
          "name": "owner",
          "type": "address"
        }
      ],
      "name": "ERC721IncorrectOwner",
      "type": "error"
    },
    {
      "inputs": [
        {
          "internalType": "address",
          "name": "operator",
          "type": "address"
        },
        {
          "internalType": "uint256",
          "name": "tokenId",
          "type": "uint256"
        }
      ],
      "name": "ERC721InsufficientApproval",
      "type": "error"
    },
    {
      "inputs": [
        {
          "internalType": "address",
          "name": "approver",
          "type": "address"
        }
      ],
      "name": "ERC721InvalidApprover",
      "type": "error"
    },
    {
      "inputs": [
        {
          "internalType": "address",
          "name": "operator",
          "type": "address"
        }
      ],
      "name": "ERC721InvalidOperator",
      "type": "error"
    },
    {
      "inputs": [
        {
          "internalType": "address",
          "name": "owner",
          "type": "address"
        }
      ],
      "name": "ERC721InvalidOwner",
      "type": "error"
    },
    {
      "inputs": [
        {
          "internalType": "address",
          "name": "receiver",
          "type": "address"
        }
      ],
      "name": "ERC721InvalidReceiver",
      "type": "error"
    },
    {
      "inputs": [
        {
          "internalType": "address",
          "name": "sender",
          "type": "address"
        }
      ],
      "name": "ERC721InvalidSender",
      "type": "error"
    },
    {
      "inputs": [
        {
          "internalType": "uint256",
          "name": "tokenId",
          "type": "uint256"
        }
      ],
      "name": "ERC721NonexistentToken",
      "type": "error"
    },
    {
      "inputs": [
        {
          "internalType": "address",
          "name": "owner",
          "type": "address"
        }
      ],
      "name": "OwnableInvalidOwner",
      "type": "error"
    },
    {
      "inputs": [
        {
          "internalType": "address",
          "name": "account",
          "type": "address"
        }
      ],
      "name": "OwnableUnauthorizedAccount",
      "type": "error"
    },
    {
      "anonymous": false,
      "inputs": [
        {
          "indexed": true,
          "internalType": "address",
          "name": "owner",
          "type": "address"
        },
        {
          "indexed": true,
          "internalType": "address",
          "name": "approved",
          "type": "address"
        },
        {
          "indexed": true,
          "internalType": "uint256",
          "name": "tokenId",
          "type": "uint256"
        }
      ],
      "name": "Approval",
      "type": "event"
    },
    {
      "anonymous": false,
      "inputs": [
        {
          "indexed": true,
          "internalType": "address",
          "name": "owner",
          "type": "address"
        },
        {
          "indexed": true,
          "internalType": "address",
          "name": "operator",
          "type": "address"
        },
        {
          "indexed": false,
          "internalType": "bool",
          "name": "approved",
          "type": "bool"
        }
      ],
      "name": "ApprovalForAll",
      "type": "event"
    },
    {
      "anonymous": false,
      "inputs": [
        {
          "indexed": true,
          "internalType": "address",
          "name": "recipient",
          "type": "address"
        },
        {
          "indexed": true,
          "internalType": "uint256",
          "name": "tokenId",
          "type": "uint256"
        },
        {
          "indexed": false,
          "internalType": "uint256",
          "name": "timestamp",
          "type": "uint256"
        }
      ],
      "name": "BadgeMinted",
      "type": "event"
    },
    {
      "anonymous": false,
      "inputs": [
        {
          "indexed": true,
          "internalType": "address",
          "name": "previousOwner",
          "type": "address"
        },
        {
          "indexed": true,
          "internalType": "address",
          "name": "newOwner",
          "type": "address"
        }
      ],
      "name": "OwnershipTransferred",
      "type": "event"
    },
    {
      "anonymous": false,
      "inputs": [
        {
          "indexed": true,
          "internalType": "address",
          "name": "from",
          "type": "address"
        },
        {
          "indexed": true,
          "internalType": "address",
          "name": "to",
          "type": "address"
        },
        {
          "indexed": true,
          "internalType": "uint256",
          "name": "tokenId",
          "type": "uint256"
        }
      ],
      "name": "Transfer",
      "type": "event"
    },
    {
      "inputs": [
        {
          "internalType": "address",
          "name": "to",
          "type": "address"
        },
        {
          "internalType": "uint256",
          "name": "tokenId",
          "type": "uint256"
        }
      ],
      "name": "approve",
      "outputs": [],
      "stateMutability": "nonpayable",
      "type": "function"
    },
    {
      "inputs": [
        {
          "internalType": "address",
          "name": "owner",
          "type": "address"
        }
      ],
      "name": "balanceOf",
      "outputs": [
        {
          "internalType": "uint256",
          "name": "",
          "type": "uint256"
        }
      ],
      "stateMutability": "view",
      "type": "function"
    },
    {
      "inputs": [
        {
          "internalType": "uint256",
          "name": "tokenId",
          "type": "uint256"
        }
      ],
      "name": "getApproved",
      "outputs": [
        {
          "internalType": "address",
          "name": "",
          "type": "address"
        }
      ],
      "stateMutability": "view",
      "type": "function"
    },
    {
      "inputs": [
        {
          "internalType": "address",
          "name": "",
          "type": "address"
        }
      ],
      "name": "hasBadge",
      "outputs": [
        {
          "internalType": "bool",
          "name": "",
          "type": "bool"
        }
      ],
      "stateMutability": "view",
      "type": "function"
    },
    {
      "inputs": [
        {
          "internalType": "address",
          "name": "owner",
          "type": "address"
        },
        {
          "internalType": "address",
          "name": "operator",
          "type": "address"
        }
      ],
      "name": "isApprovedForAll",
      "outputs": [
        {
          "internalType": "bool",
          "name": "",
          "type": "bool"
        }
      ],
      "stateMutability": "view",
      "type": "function"
    },
    {
      "inputs": [
        {
          "internalType": "address",
          "name": "to",
          "type": "address"
        }
      ],
      "name": "mint",
      "outputs": [],
      "stateMutability": "nonpayable",
      "type": "function"
    },
    {
      "inputs": [],
      "name": "name",
      "outputs": [
        {
          "internalType": "string",
          "name": "",
          "type": "string"
        }
      ],
      "stateMutability": "view",
      "type": "function"
    },
    {
      "inputs": [],
      "name": "owner",
      "outputs": [
        {
          "internalType": "address",
          "name": "",
          "type": "address"
        }
      ],
      "stateMutability": "view",
      "type": "function"
    },
    {
      "inputs": [
        {
          "internalType": "uint256",
          "name": "tokenId",
          "type": "uint256"
        }
      ],
      "name": "ownerOf",
      "outputs": [
        {
          "internalType": "address",
          "name": "",
          "type": "address"
        }
      ],
      "stateMutability": "view",
      "type": "function"
    },
    {
      "inputs": [],
      "name": "renounceOwnership",
      "outputs": [],
      "stateMutability": "nonpayable",
      "type": "function"
    },
    {
      "inputs": [
        {
          "internalType": "address",
          "name": "from",
          "type": "address"
        },
        {
          "internalType": "address",
          "name": "to",
          "type": "address"
        },
        {
          "internalType": "uint256",
          "name": "tokenId",
          "type": "uint256"
        }
      ],
      "name": "safeTransferFrom",
      "outputs": [],
      "stateMutability": "nonpayable",
      "type": "function"
    },
    {
      "inputs": [
        {
          "internalType": "address",
          "name": "from",
          "type": "address"
        },
        {
          "internalType": "address",
          "name": "to",
          "type": "address"
        },
        {
          "internalType": "uint256",
          "name": "tokenId",
          "type": "uint256"
        },
        {
          "internalType": "bytes",
          "name": "data",
          "type": "bytes"
        }
      ],
      "name": "safeTransferFrom",
      "outputs": [],
      "stateMutability": "nonpayable",
      "type": "function"
    },
    {
      "inputs": [
        {
          "internalType": "address",
          "name": "operator",
          "type": "address"
        },
        {
          "internalType": "bool",
          "name": "approved",
          "type": "bool"
        }
      ],
      "name": "setApprovalForAll",
      "outputs": [],
      "stateMutability": "nonpayable",
      "type": "function"
    },
    {
      "inputs": [
        {
          "internalType": "bytes4",
          "name": "interfaceId",
          "type": "bytes4"
        }
      ],
      "name": "supportsInterface",
      "outputs": [
        {
          "internalType": "bool",
          "name": "",
          "type": "bool"
        }
      ],
      "stateMutability": "view",
      "type": "function"
    },
    {
      "inputs": [],
      "name": "symbol",
      "outputs": [
        {
          "internalType": "string",
          "name": "",
          "type": "string"
        }
      ],
      "stateMutability": "view",
      "type": "function"
    },
    {
      "inputs": [
        {
          "internalType": "uint256",
          "name": "tokenId",
          "type": "uint256"
        }
      ],
      "name": "tokenURI",
      "outputs": [
        {
          "internalType": "string",
          "name": "",
          "type": "string"
        }
      ],
      "stateMutability": "view",
      "type": "function"
    },
    {
      "inputs": [
        {
          "internalType": "address",
          "name": "from",
          "type": "address"
        },
        {
          "internalType": "address",
          "name": "to",
          "type": "address"
        },
        {
          "internalType": "uint256",
          "name": "tokenId",
          "type": "uint256"
        }
      ],
      "name": "transferFrom",
      "outputs": [],
      "stateMutability": "nonpayable",
      "type": "function"
    },
    {
      "inputs": [
        {
          "internalType": "address",
          "name": "newOwner",
          "type": "address"
        }
      ],
      "name": "transferOwnership",
      "outputs": [],
      "stateMutability": "nonpayable",
      "type": "function"
    }
  ],
  "bytecode": "0x608060405234801562000010575f80fd5b50336040518060400160405280601b81526020017f466c617368526f7574657220416666696c69617465204261646765000000000081525060405180604001604052806004815260200163232920a160e11b815250815f9081620000759190620001b6565b506001620000848282620001b6565b5050506001600160a01b038116620000b557604051631e4fbdf760e01b81525f600482015260240160405180910390fd5b620000c081620000c7565b5062000282565b600680546001600160a01b038381166001600160a01b0319831681179093556040519116919082907f8be0079c531659141344cd1fd0a4f28419497f9722a3daafe3b4186f6b6457e0905f90a35050565b634e487b7160e01b5f52604160045260245ffd5b600181811c908216806200014157607f821691505b6020821081036200016057634e487b7160e01b5f52602260045260245ffd5b50919050565b601f821115620001b157805f5260205f20601f840160051c810160208510156200018d5750805b601f840160051c820191505b81811015620001ae575f815560010162000199565b50505b505050565b81516001600160401b03811115620001d257620001d262000118565b620001ea81620001e384546200012c565b8462000166565b602080601f83116001811462000220575f8415620002085750858301515b5f19600386901b1c1916600185901b1785556200027a565b5f85815260208120601f198616915b8281101562000250578886015182559484019460019091019084016200022f565b50858210156200026e57878501515f19600388901b60f8161c191681555b505060018460011b0185555b505050505050565b61125880620002905f395ff3fe608060405234801561000f575f80fd5b5060043610610111575f3560e01c806370a082311161009e578063a22cb4651161006e578063a22cb46514610242578063b88d4fde14610255578063c87b56dd14610268578063e985e9c51461027b578063f2fde38b1461028e575f80fd5b806370a0823114610200578063715018a6146102215780638da5cb5b1461022957806395d89b411461023a575f80fd5b806323b872dd116100e457806323b872dd1461019257806342842e0e146101a55780635e50864f146101b85780636352211e146101da5780636a627842146101ed575f80fd5b806301ffc9a71461011557806306fdde031461013d578063081812fc14610152578063095ea7b31461017d575b5f80fd5b610128610123366004610ec8565b6102a1565b60405190151581526020015b60405180910390f35b6101456102f2565b6040516101349190610f30565b610165610160366004610f42565b610381565b6040516001600160a01b039091168152602001610134565b61019061018b366004610f74565b6103a8565b005b6101906101a0366004610f9c565b6103b7565b6101906101b3366004610f9c565b610445565b6101286101c6366004610fd5565b60086020525f908152604090205460ff1681565b6101656101e8366004610f42565b610464565b6101906101fb366004610fd5565b61046e565b61021361020e366004610fd5565b610559565b604051908152602001610134565b61019061059e565b6006546001600160a01b0316610165565b6101456105b1565b610190610250366004610fee565b6105c0565b61019061026336600461103b565b6105cb565b610145610276366004610f42565b6105e3565b610128610289366004611110565b610654565b61019061029c366004610fd5565b610681565b5f6001600160e01b031982166380ac58cd60e01b14806102d157506001600160e01b03198216635b5e139f60e01b145b806102ec57506301ffc9a760e01b6001600160e01b03198316145b92915050565b60605f805461030090611141565b80601f016020809104026020016040519081016040528092919081815260200182805461032c90611141565b80156103775780601f1061034e57610100808354040283529160200191610377565b820191905f5260205f20905b81548152906001019060200180831161035a57829003601f168201915b5050505050905090565b5f61038b826106be565b505f828152600460205260409020546001600160a01b03166102ec565b6103b38282336106f6565b5050565b6001600160a01b0382166103e557604051633250574960e11b81525f60048201526024015b60405180910390fd5b5f6103f1838333610703565b9050836001600160a01b0316816001600160a01b03161461043f576040516364283d7b60e01b81526001600160a01b03808616600483015260248201849052821660448201526064016103dc565b50505050565b61045f83838360405180602001604052805f8152506105cb565b505050565b5f6102ec826106be565b610476610793565b6001600160a01b0381165f9081526008602052604090205460ff16156104d65760405162461bcd60e51b815260206004820152601560248201527441423a20616c72656164792068617320626164676560581b60448201526064016103dc565b600780545f91826104e683611179565b9190505590506104f682826107c0565b6001600160a01b0382165f8181526008602052604090819020805460ff19166001179055518291907f7e6f783c7d2fd31e9979cbb09639e191e20de085caf64b2875d53ff862aa3baa9061054d9042815260200190565b60405180910390a35050565b5f6001600160a01b038216610583576040516322718ad960e21b81525f60048201526024016103dc565b506001600160a01b03165f9081526003602052604090205490565b6105a6610793565b6105af5f6107d9565b565b60606001805461030090611141565b6103b333838361082a565b6105d68484846103b7565b61043f33858585856108f1565b60606105ee826106be565b505f61060460408051602081019091525f815290565b90505f8151116106225760405180602001604052805f81525061064d565b8061062c84610a19565b60405160200161063d92919061119d565b6040516020818303038152906040525b9392505050565b6001600160a01b039182165f90815260056020908152604080832093909416825291909152205460ff1690565b610689610793565b6001600160a01b0381166106b257604051631e4fbdf760e01b81525f60048201526024016103dc565b6106bb816107d9565b50565b5f818152600260205260408120546001600160a01b0316806102ec57604051637e27328960e01b8152600481018490526024016103dc565b61045f8383836001610aa9565b5f80610710858585610bad565b90506001600160a01b038116158061072f57506001600160a01b038516155b61078b5760405162461bcd60e51b815260206004820152602760248201527f41423a20536f756c626f756e6420746f6b656e206973206e6f6e2d7472616e7360448201526666657261626c6560c81b60648201526084016103dc565b949350505050565b6006546001600160a01b031633146105af5760405163118cdaa760e01b81523360048201526024016103dc565b6103b3828260405180602001604052805f815250610c9f565b600680546001600160a01b038381166001600160a01b0319831681179093556040519116919082907f8be0079c531659141344cd1fd0a4f28419497f9722a3daafe3b4186f6b6457e0905f90a35050565b6001600160a01b0383166108535760405163a9fbf51f60e01b81525f60048201526024016103dc565b6001600160a01b03821661088557604051630b61174360e31b81526001600160a01b03831660048201526024016103dc565b6001600160a01b038381165f81815260056020908152604080832094871680845294825291829020805460ff191686151590811790915591519182527f17307eab39ab6107e8899845ad3d59bd9653f200f220920489ca2b5937696c31910160405180910390a3505050565b6001600160a01b0383163b15610a1257604051630a85bd0160e11b81526001600160a01b0384169063150b7a02906109339088908890879087906004016111cb565b6020604051808303815f875af192505050801561096d575060408051601f3d908101601f1916820190925261096a91810190611207565b60015b6109d4573d80801561099a576040519150601f19603f3d011682016040523d82523d5f602084013e61099f565b606091505b5080515f036109cc57604051633250574960e11b81526001600160a01b03851660048201526024016103dc565b805160208201fd5b6001600160e01b03198116630a85bd0160e11b14610a1057604051633250574960e11b81526001600160a01b03851660048201526024016103dc565b505b5050505050565b60605f610a2583610cb6565b60010190505f8167ffffffffffffffff811115610a4457610a44611027565b6040519080825280601f01601f191660200182016040528015610a6e576020820181803683370190505b5090508181016020015b5f19016f181899199a1a9b1b9c1cb0b131b232b360811b600a86061a8153600a8504945084610a7857509392505050565b8080610abd57506001600160a01b03821615155b15610b7e575f610acc846106be565b90506001600160a01b03831615801590610af85750826001600160a01b0316816001600160a01b031614155b8015610b0b5750610b098184610654565b155b15610b345760405163a9fbf51f60e01b81526001600160a01b03841660048201526024016103dc565b8115610b7c5783856001600160a01b0316826001600160a01b03167f8c5be1e5ebec7d5bd14f71427d1e84f3dd0314c0f7b2291e5b200ac8c7c3b92560405160405180910390a45b505b50505f90815260046020526040902080546001600160a01b0319166001600160a01b0392909216919091179055565b5f828152600260205260408120546001600160a01b0390811690831615610bd957610bd9818486610d8d565b6001600160a01b03811615610c1357610bf45f855f80610aa9565b6001600160a01b0381165f90815260036020526040902080545f190190555b6001600160a01b03851615610c41576001600160a01b0385165f908152600360205260409020805460010190555b5f8481526002602052604080822080546001600160a01b0319166001600160a01b0389811691821790925591518793918516917fddf252ad1be2c89b69c2b068fc378daa952ba7f163c4a11628f55a4df523b3ef91a4949350505050565b610ca98383610df1565b61045f335f8585856108f1565b5f8072184f03e93ff9f4daa797ed6e38ed64bf6a1f0160401b8310610cf45772184f03e93ff9f4daa797ed6e38ed64bf6a1f0160401b830492506040015b6d04ee2d6d415b85acef81000000008310610d20576d04ee2d6d415b85acef8100000000830492506020015b662386f26fc100008310610d3e57662386f26fc10000830492506010015b6305f5e1008310610d56576305f5e100830492506008015b6127108310610d6a57612710830492506004015b60648310610d7c576064830492506002015b600a83106102ec5760010192915050565b610d98838383610e52565b61045f576001600160a01b038316610dc657604051637e27328960e01b8152600481018290526024016103dc565b60405163177e802f60e01b81526001600160a01b0383166004820152602481018290526044016103dc565b6001600160a01b038216610e1a57604051633250574960e11b81525f60048201526024016103dc565b5f610e2683835f610703565b90506001600160a01b0381161561045f576040516339e3563760e11b81525f60048201526024016103dc565b5f6001600160a01b0383161580159061078b5750826001600160a01b0316846001600160a01b03161480610e8b5750610e8b8484610654565b8061078b5750505f908152600460205260409020546001600160a01b03908116911614919050565b6001600160e01b0319811681146106bb575f80fd5b5f60208284031215610ed8575f80fd5b813561064d81610eb3565b5f5b83811015610efd578181015183820152602001610ee5565b50505f910152565b5f8151808452610f1c816020860160208601610ee3565b601f01601f19169290920160200192915050565b602081525f61064d6020830184610f05565b5f60208284031215610f52575f80fd5b5035919050565b80356001600160a01b0381168114610f6f575f80fd5b919050565b5f8060408385031215610f85575f80fd5b610f8e83610f59565b946020939093013593505050565b5f805f60608486031215610fae575f80fd5b610fb784610f59565b9250610fc560208501610f59565b9150604084013590509250925092565b5f60208284031215610fe5575f80fd5b61064d82610f59565b5f8060408385031215610fff575f80fd5b61100883610f59565b91506020830135801515811461101c575f80fd5b809150509250929050565b634e487b7160e01b5f52604160045260245ffd5b5f805f806080858703121561104e575f80fd5b61105785610f59565b935061106560208601610f59565b925060408501359150606085013567ffffffffffffffff80821115611088575f80fd5b818701915087601f83011261109b575f80fd5b8135818111156110ad576110ad611027565b604051601f8201601f19908116603f011681019083821181831017156110d5576110d5611027565b816040528281528a60208487010111156110ed575f80fd5b826020860160208301375f60208483010152809550505050505092959194509250565b5f8060408385031215611121575f80fd5b61112a83610f59565b915061113860208401610f59565b90509250929050565b600181811c9082168061115557607f821691505b60208210810361117357634e487b7160e01b5f52602260045260245ffd5b50919050565b5f6001820161119657634e487b7160e01b5f52601160045260245ffd5b5060010190565b5f83516111ae818460208801610ee3565b8351908301906111c2818360208801610ee3565b01949350505050565b6001600160a01b03858116825284166020820152604081018390526080606082018190525f906111fd90830184610f05565b9695505050505050565b5f60208284031215611217575f80fd5b815161064d81610eb356fea264697066735822122026ad9d289e4fb98902bce6bec5dffdd708fa29650bda094cb39e3cf5c566dc8b64736f6c63430008180033",
  "linkReferences": {},
  "deployedLinkReferences": {}
}