{
  "_format": "hh-sol-artifact-1",
  "contractName": "LegacyNamespaceRegistry",
  "sourceName": "src/LegacyNamespaceRegistry.sol",
  "abi": [
    {
      "inputs": [],
      "stateMutability": "nonpayable",
      "type": "constructor"
    },
    {
      "anonymous": false,
      "inputs": [
        {
          "indexed": true,
          "internalType": "bytes32",
          "name": "labelHash",
          "type": "bytes32"
        },
        {
          "indexed": true,
          "internalType": "address",
          "name": "account",
          "type": "address"
        },
        {
          "indexed": false,
          "internalType": "string",
          "name": "did",
          "type": "string"
        },
        {
          "indexed": false,
          "internalType": "enum LegacyNamespaceRegistry.NamespaceRole",
          "name": "role",
          "type": "uint8"
        },
        {
          "indexed": false,
          "internalType": "uint256",
          "name": "timestamp",
          "type": "uint256"
        }
      ],
      "name": "MemberAdded",
      "type": "event"
    },
    {
      "anonymous": false,
      "inputs": [
        {
          "indexed": true,
          "internalType": "bytes32",
          "name": "labelHash",
          "type": "bytes32"
        },
        {
          "indexed": true,
          "internalType": "address",
          "name": "account",
          "type": "address"
        },
        {
          "indexed": false,
          "internalType": "uint256",
          "name": "timestamp",
          "type": "uint256"
        }
      ],
      "name": "MemberRemoved",
      "type": "event"
    },
    {
      "anonymous": false,
      "inputs": [
        {
          "indexed": true,
          "internalType": "bytes32",
          "name": "labelHash",
          "type": "bytes32"
        },
        {
          "indexed": false,
          "internalType": "string",
          "name": "label",
          "type": "string"
        },
        {
          "indexed": false,
          "internalType": "address",
          "name": "ownerAddr",
          "type": "address"
        },
        {
          "indexed": false,
          "internalType": "string",
          "name": "ownerDID",
          "type": "string"
        },
        {
          "indexed": false,
          "internalType": "uint256",
          "name": "planTier",
          "type": "uint256"
        },
        {
          "indexed": false,
          "internalType": "uint256",
          "name": "timestamp",
          "type": "uint256"
        }
      ],
      "name": "NamespaceRegistered",
      "type": "event"
    },
    {
      "anonymous": false,
      "inputs": [
        {
          "indexed": true,
          "internalType": "bytes32",
          "name": "labelHash",
          "type": "bytes32"
        },
        {
          "indexed": false,
          "internalType": "enum LegacyNamespaceRegistry.NamespaceStatus",
          "name": "previousStatus",
          "type": "uint8"
        },
        {
          "indexed": false,
          "internalType": "enum LegacyNamespaceRegistry.NamespaceStatus",
          "name": "newStatus",
          "type": "uint8"
        },
        {
          "indexed": false,
          "internalType": "address",
          "name": "changedBy",
          "type": "address"
        },
        {
          "indexed": false,
          "internalType": "uint256",
          "name": "timestamp",
          "type": "uint256"
        }
      ],
      "name": "NamespaceStatusChanged",
      "type": "event"
    },
    {
      "anonymous": false,
      "inputs": [
        {
          "indexed": true,
          "internalType": "bytes32",
          "name": "labelHash",
          "type": "bytes32"
        },
        {
          "indexed": true,
          "internalType": "address",
          "name": "from",
          "type": "address"
        },
        {
          "indexed": true,
          "internalType": "address",
          "name": "to",
          "type": "address"
        },
        {
          "indexed": false,
          "internalType": "uint256",
          "name": "timestamp",
          "type": "uint256"
        }
      ],
      "name": "OwnershipTransferred",
      "type": "event"
    },
    {
      "inputs": [
        {
          "internalType": "string",
          "name": "label",
          "type": "string"
        },
        {
          "internalType": "address",
          "name": "memberAddr",
          "type": "address"
        },
        {
          "internalType": "string",
          "name": "memberDID",
          "type": "string"
        },
        {
          "internalType": "enum LegacyNamespaceRegistry.NamespaceRole",
          "name": "role",
          "type": "uint8"
        }
      ],
      "name": "addMember",
      "outputs": [],
      "stateMutability": "nonpayable",
      "type": "function"
    },
    {
      "inputs": [
        {
          "internalType": "address",
          "name": "op",
          "type": "address"
        }
      ],
      "name": "addOperator",
      "outputs": [],
      "stateMutability": "nonpayable",
      "type": "function"
    },
    {
      "inputs": [
        {
          "internalType": "string",
          "name": "label",
          "type": "string"
        }
      ],
      "name": "getMembers",
      "outputs": [
        {
          "components": [
            {
              "internalType": "address",
              "name": "account",
              "type": "address"
            },
            {
              "internalType": "string",
              "name": "did",
              "type": "string"
            },
            {
              "internalType": "enum LegacyNamespaceRegistry.NamespaceRole",
              "name": "role",
              "type": "uint8"
            },
            {
              "internalType": "uint256",
              "name": "addedAt",
              "type": "uint256"
            },
            {
              "internalType": "bool",
              "name": "active",
              "type": "bool"
            }
          ],
          "internalType": "struct LegacyNamespaceRegistry.Member[]",
          "name": "",
          "type": "tuple[]"
        }
      ],
      "stateMutability": "view",
      "type": "function"
    },
    {
      "inputs": [
        {
          "internalType": "string",
          "name": "label",
          "type": "string"
        }
      ],
      "name": "getNamespace",
      "outputs": [
        {
          "components": [
            {
              "internalType": "bytes32",
              "name": "labelHash",
              "type": "bytes32"
            },
            {
              "internalType": "string",
              "name": "label",
              "type": "string"
            },
            {
              "internalType": "address",
              "name": "ownerAddr",
              "type": "address"
            },
            {
              "internalType": "string",
              "name": "ownerDID",
              "type": "string"
            },
            {
              "internalType": "enum LegacyNamespaceRegistry.NamespaceStatus",
              "name": "status",
              "type": "uint8"
            },
            {
              "internalType": "uint256",
              "name": "planTier",
              "type": "uint256"
            },
            {
              "internalType": "uint256",
              "name": "createdAt",
              "type": "uint256"
            },
            {
              "internalType": "uint256",
              "name": "updatedAt",
              "type": "uint256"
            },
            {
              "internalType": "bool",
              "name": "exists",
              "type": "bool"
            }
          ],
          "internalType": "struct LegacyNamespaceRegistry.NamespaceRecord",
          "name": "",
          "type": "tuple"
        }
      ],
      "stateMutability": "view",
      "type": "function"
    },
    {
      "inputs": [
        {
          "internalType": "address",
          "name": "ownerAddr",
          "type": "address"
        }
      ],
      "name": "getOwnerNamespaces",
      "outputs": [
        {
          "internalType": "bytes32[]",
          "name": "",
          "type": "bytes32[]"
        }
      ],
      "stateMutability": "view",
      "type": "function"
    },
    {
      "inputs": [
        {
          "internalType": "string",
          "name": "label",
          "type": "string"
        }
      ],
      "name": "namespaceExists",
      "outputs": [
        {
          "internalType": "bool",
          "name": "",
          "type": "bool"
        }
      ],
      "stateMutability": "view",
      "type": "function"
    },
    {
      "inputs": [
        {
          "internalType": "address",
          "name": "",
          "type": "address"
        }
      ],
      "name": "operators",
      "outputs": [
        {
          "internalType": "bool",
          "name": "",
          "type": "bool"
        }
      ],
      "stateMutability": "view",
      "type": "function"
    },
    {
      "inputs": [],
      "name": "owner",
      "outputs": [
        {
          "internalType": "address",
          "name": "",
          "type": "address"
        }
      ],
      "stateMutability": "view",
      "type": "function"
    },
    {
      "inputs": [
        {
          "internalType": "string",
          "name": "label",
          "type": "string"
        },
        {
          "internalType": "address",
          "name": "ownerAddr",
          "type": "address"
        },
        {
          "internalType": "string",
          "name": "ownerDID",
          "type": "string"
        },
        {
          "internalType": "uint256",
          "name": "planTier",
          "type": "uint256"
        }
      ],
      "name": "registerNamespace",
      "outputs": [],
      "stateMutability": "nonpayable",
      "type": "function"
    },
    {
      "inputs": [
        {
          "internalType": "string",
          "name": "label",
          "type": "string"
        },
        {
          "internalType": "address",
          "name": "memberAddr",
          "type": "address"
        }
      ],
      "name": "removeMember",
      "outputs": [],
      "stateMutability": "nonpayable",
      "type": "function"
    },
    {
      "inputs": [
        {
          "internalType": "address",
          "name": "op",
          "type": "address"
        }
      ],
      "name": "removeOperator",
      "outputs": [],
      "stateMutability": "nonpayable",
      "type": "function"
    },
    {
      "inputs": [
        {
          "internalType": "string",
          "name": "label",
          "type": "string"
        },
        {
          "internalType": "enum LegacyNamespaceRegistry.NamespaceStatus",
          "name": "newStatus",
          "type": "uint8"
        }
      ],
      "name": "setNamespaceStatus",
      "outputs": [],
      "stateMutability": "nonpayable",
      "type": "function"
    },
    {
      "inputs": [
        {
          "internalType": "string",
          "name": "label",
          "type": "string"
        },
        {
          "internalType": "address",
          "name": "newOwner",
          "type": "address"
        },
        {
          "internalType": "string",
          "name": "newOwnerDID",
          "type": "string"
        }
      ],
      "name": "transferNamespaceOwnership",
      "outputs": [],
      "stateMutability": "nonpayable",
      "type": "function"
    },
    {
      "inputs": [
        {
          "internalType": "address",
          "name": "newOwner",
          "type": "address"
        }
      ],
      "name": "transferOwnership",
      "outputs": [],
      "stateMutability": "nonpayable",
      "type": "function"
    }
  ],
  "bytecode": "0x608060405234801561000f575f80fd5b505f80546001600160a01b0319163390811782558152600160208190526040909120805460ff19169091179055611be6806100495f395ff3fe608060405234801561000f575f80fd5b50600436106100e5575f3560e01c80638da5cb5b11610088578063ac8a584a11610063578063ac8a584a146101fe578063af7a316814610211578063f2fde38b14610224578063f5b8411d14610237575f80fd5b80638da5cb5b146101ae5780639870d7fe146101d8578063ab0ce68d146101eb575f80fd5b80636f9d5c6c116100c35780636f9d5c6c1461015557806373ceaebe1461016857806374afebbd146101885780637a4a77001461019b575f80fd5b806313e7c9d8146100e957806356250571146101205780635dc32cd814610140575b5f80fd5b61010b6100f7366004611305565b60016020525f908152604090205460ff1681565b60405190151581526020015b60405180910390f35b61013361012e36600461136a565b610257565b604051610117919061141f565b61015361014e3660046114c8565b61041c565b005b610153610163366004611546565b61057b565b61017b61017636600461136a565b61082a565b60405161011791906115a3565b610153610196366004611658565b610a9a565b61010b6101a936600461136a565b610d9b565b5f546101c0906001600160a01b031681565b6040516001600160a01b039091168152602001610117565b6101536101e6366004611305565b610de4565b6101536101f93660046116ea565b610e33565b61015361020c366004611305565b610f65565b61015361021f36600461177a565b610fae565b610153610232366004611305565b6110d2565b61024a610245366004611305565b611166565b60405161011791906117cd565b60605f838360405160200161026d929190611810565b60408051601f1981840301815291815281516020928301205f818152600290935291206008015490915060ff166102bf5760405162461bcd60e51b81526004016102b69061181f565b60405180910390fd5b5f81815260036020908152604080832080548251818502810185019093528083529193909284015b8282101561040f575f8481526020908190206040805160a081019091526005850290910180546001600160a01b03168252600181018054929391929184019161032f90611856565b80601f016020809104026020016040519081016040528092919081815260200182805461035b90611856565b80156103a65780601f1061037d576101008083540402835291602001916103a6565b820191905f5260205f20905b81548152906001019060200180831161038957829003601f168201915b5050509183525050600282015460209091019060ff1660068111156103cd576103cd6113ec565b60068111156103de576103de6113ec565b8152600382015460208083019190915260049092015460ff16151560409091015290825260019290920191016102e7565b5050505091505092915050565b335f9081526001602052604090205460ff168061044257505f546001600160a01b031633145b61045e5760405162461bcd60e51b81526004016102b69061188e565b5f8585604051602001610472929190611810565b60408051601f1981840301815291815281516020928301205f818152600290935291206008015490915060ff166104bb5760405162461bcd60e51b81526004016102b69061181f565b5f81815260026020819052604090912090810180546001600160a01b038781166001600160a01b031983161790925516600382016104fa858783611919565b5042600783018190556001600160a01b038088165f818152600560209081526040808320805460018101825590845291909220018790555190929184169186917fa52922d09c6a1791e36eb59a9e49d10485a999fa47c3930dde6f6bf4329579d1916105699190815260200190565b60405180910390a45050505050505050565b335f9081526001602052604090205460ff16806105a157505f546001600160a01b031633145b6105bd5760405162461bcd60e51b81526004016102b69061188e565b5f83836040516020016105d1929190611810565b60408051601f1981840301815291815281516020928301205f818152600290935291206008015490915060ff1661061a5760405162461bcd60e51b81526004016102b69061181f565b5f8181526004602090815260408083206001600160a01b0386168452825280832054848452600390925290912054811061068e5760405162461bcd60e51b81526020600482015260156024820152741313948e881b595b58995c881b9bdd08199bdd5b99605a1b60448201526064016102b6565b5f8281526003602052604090208054829081106106ad576106ad6119d3565b5f91825260209091206004600590920201015460ff166107085760405162461bcd60e51b81526020600482015260166024820152754c4e523a206d656d626572206e6f742061637469766560501b60448201526064016102b6565b5f828152600360205260408120805483908110610727576107276119d3565b5f91825260209091206002600590920201015460ff16600681111561074e5761074e6113ec565b0361079b5760405162461bcd60e51b815260206004820152601860248201527f4c4e523a2063616e6e6f742072656d6f7665206f776e6572000000000000000060448201526064016102b6565b5f8281526003602052604081208054839081106107ba576107ba6119d3565b905f5260205f2090600502016004015f6101000a81548160ff021916908315150217905550826001600160a01b0316827f31bd20fe15001ee66b7528035447ad30c320a25815eb7d5de52d8e35ec2660004260405161081b91815260200190565b60405180910390a35050505050565b61087860408051610120810182525f8082526060602083018190529282018190528282019290925290608082019081526020015f81526020015f81526020015f81526020015f151581525090565b5f838360405160200161088c929190611810565b60408051601f1981840301815291815281516020928301205f818152600290935291206008015490915060ff166108d55760405162461bcd60e51b81526004016102b69061181f565b60025f8281526020019081526020015f20604051806101200160405290815f820154815260200160018201805461090b90611856565b80601f016020809104026020016040519081016040528092919081815260200182805461093790611856565b80156109825780601f1061095957610100808354040283529160200191610982565b820191905f5260205f20905b81548152906001019060200180831161096557829003601f168201915b505050918352505060028201546001600160a01b031660208201526003820180546040909201916109b290611856565b80601f01602080910402602001604051908101604052809291908181526020018280546109de90611856565b8015610a295780601f10610a0057610100808354040283529160200191610a29565b820191905f5260205f20905b815481529060010190602001808311610a0c57829003601f168201915b5050509183525050600482015460209091019060ff166006811115610a5057610a506113ec565b6006811115610a6157610a616113ec565b815260058201546020820152600682015460408201526007820154606082015260089091015460ff161515608090910152949350505050565b335f9081526001602052604090205460ff1680610ac057505f546001600160a01b031633145b610adc5760405162461bcd60e51b81526004016102b69061188e565b5f8686604051602001610af0929190611810565b60408051601f1981840301815291815281516020928301205f818152600290935291206008015490915060ff1615610b6a5760405162461bcd60e51b815260206004820152601c60248201527f4c4e523a206e616d65737061636520616c72656164792074616b656e0000000060448201526064016102b6565b60405180610120016040528082815260200188888080601f0160208091040260200160405190810160405280939291908181526020018383808284375f920191909152505050908252506001600160a01b03871660208083019190915260408051601f880183900483028101830182528781529201919087908790819084018382808284375f9201829052509385525050506020808301829052604080840187905242606085018190526080850152600160a09094018490528583526002825290912083518155908301519091820190610c4490826119e7565b5060408201516002820180546001600160a01b0319166001600160a01b0390921691909117905560608201516003820190610c7f90826119e7565b50608082015160048201805460ff19166001836006811115610ca357610ca36113ec565b021790555060a082015160058281019190915560c0830151600683015560e08301516007830155610100909201516008909101805460ff19169115159190911790556001600160a01b0386165f908152602091825260408082208054600181018255908352918390209091018390558051601f8601839004830281018301909152848152610d4e918391889188908890819084018382808284375f92018290525092506111cf915050565b807fc2040c7b4245f8da5572f62de5e9dbd24e5c3afad15c357d8474f4e6991d6f4a88888888888842604051610d8a9796959493929190611acf565b60405180910390a250505050505050565b5f60025f8484604051602001610db2929190611810565b60408051808303601f190181529181528151602092830120835290820192909252015f206008015460ff169392505050565b5f546001600160a01b03163314610e0d5760405162461bcd60e51b81526004016102b690611b1b565b6001600160a01b03165f908152600160208190526040909120805460ff19169091179055565b335f9081526001602052604090205460ff1680610e5957505f546001600160a01b031633145b610e755760405162461bcd60e51b81526004016102b69061188e565b5f8686604051602001610e89929190611810565b60408051601f1981840301815291815281516020928301205f818152600290935291206008015490915060ff16610ed25760405162461bcd60e51b81526004016102b69061181f565b610f14818686868080601f0160208091040260200160405190810160405280939291908181526020018383808284375f920191909152508892506111cf915050565b846001600160a01b0316817fc3d2a8a31c2aed34091042236848c305d5e56726410287bb8b1996ddf96dfd5f86868642604051610f549493929190611b43565b60405180910390a350505050505050565b5f546001600160a01b03163314610f8e5760405162461bcd60e51b81526004016102b690611b1b565b6001600160a01b03165f908152600160205260409020805460ff19169055565b335f9081526001602052604090205460ff1680610fd457505f546001600160a01b031633145b610ff05760405162461bcd60e51b81526004016102b69061188e565b5f8383604051602001611004929190611810565b60408051601f1981840301815291815281516020928301205f818152600290935291206008015490915060ff1661104d5760405162461bcd60e51b81526004016102b69061181f565b5f81815260026020526040902060048101805460ff811691859160ff1916600183600681111561107f5761107f6113ec565b0217905550426007830181905560405184917fe909718a069c33ef302cca1532bcbbf8b5864615589091cc0c0c7832be3e5067916110c291859189913391611b73565b60405180910390a2505050505050565b5f546001600160a01b031633146110fb5760405162461bcd60e51b81526004016102b690611b1b565b6001600160a01b0381166111455760405162461bcd60e51b81526020600482015260116024820152704c4e523a207a65726f206164647265737360781b60448201526064016102b6565b5f80546001600160a01b0319166001600160a01b0392909216919091179055565b6001600160a01b0381165f908152600560209081526040918290208054835181840281018401909452808452606093928301828280156111c357602002820191905f5260205f20905b8154815260200190600101908083116111af575b50505050509050919050565b5f848152600360209081526040918290208054835160a0810185526001600160a01b0388168152928301869052929091908101846006811115611214576112146113ec565b81524260208083019190915260016040909201829052835480830185555f94855293819020835160059095020180546001600160a01b0319166001600160a01b039095169490941784558201519192919082019061127290826119e7565b50604082015160028201805460ff19166001836006811115611296576112966113ec565b0217905550606082015160038201556080909101516004918201805460ff19169115159190911790555f958652602090815260408087206001600160a01b0396909616875294905292909320919091555050565b80356001600160a01b0381168114611300575f80fd5b919050565b5f60208284031215611315575f80fd5b61131e826112ea565b9392505050565b5f8083601f840112611335575f80fd5b50813567ffffffffffffffff81111561134c575f80fd5b602083019150836020828501011115611363575f80fd5b9250929050565b5f806020838503121561137b575f80fd5b823567ffffffffffffffff811115611391575f80fd5b61139d85828601611325565b90969095509350505050565b5f81518084525f5b818110156113cd576020818501810151868301820152016113b1565b505f602082860101526020601f19601f83011685010191505092915050565b634e487b7160e01b5f52602160045260245ffd5b6007811061141c57634e487b7160e01b5f52602160045260245ffd5b50565b5f60208083018184528085518083526040925060408601915060408160051b8701018488015f5b838110156114ba57888303603f19018552815180516001600160a01b031684528781015160a08986018190529061147f828701826113a9565b9150508782015161148f81611400565b8589015260608281015190860152608091820151151591909401529386019390860190600101611446565b509098975050505050505050565b5f805f805f606086880312156114dc575f80fd5b853567ffffffffffffffff808211156114f3575f80fd5b6114ff89838a01611325565b9097509550859150611513602089016112ea565b94506040880135915080821115611528575f80fd5b5061153588828901611325565b969995985093965092949392505050565b5f805f60408486031215611558575f80fd5b833567ffffffffffffffff81111561156e575f80fd5b61157a86828701611325565b909450925061158d9050602085016112ea565b90509250925092565b61159f81611400565b9052565b60208152815160208201525f60208301516101208060408501526115cb6101408501836113a9565b915060408501516115e760608601826001600160a01b03169052565b506060850151848303601f1901608086015261160383826113a9565b925050608085015161161860a0860182611596565b5060a085015160c085015260c085015160e085015260e085015161010081818701528087015191505061164e8286018215159052565b5090949350505050565b5f805f805f806080878903121561166d575f80fd5b863567ffffffffffffffff80821115611684575f80fd5b6116908a838b01611325565b90985096508691506116a460208a016112ea565b955060408901359150808211156116b9575f80fd5b506116c689828a01611325565b979a9699509497949695606090950135949350505050565b6007811061141c575f80fd5b5f805f805f80608087890312156116ff575f80fd5b863567ffffffffffffffff80821115611716575f80fd5b6117228a838b01611325565b909850965086915061173660208a016112ea565b9550604089013591508082111561174b575f80fd5b5061175889828a01611325565b909450925050606087013561176c816116de565b809150509295509295509295565b5f805f6040848603121561178c575f80fd5b833567ffffffffffffffff8111156117a2575f80fd5b6117ae86828701611325565b90945092505060208401356117c2816116de565b809150509250925092565b602080825282518282018190525f9190848201906040850190845b81811015611804578351835292840192918401916001016117e8565b50909695505050505050565b818382375f9101908152919050565b60208082526018908201527f4c4e523a206e616d657370616365206e6f7420666f756e640000000000000000604082015260600190565b600181811c9082168061186a57607f821691505b60208210810361188857634e487b7160e01b5f52602260045260245ffd5b50919050565b6020808252601190820152702627291d103737ba1037b832b930ba37b960791b604082015260600190565b634e487b7160e01b5f52604160045260245ffd5b601f82111561191457805f5260205f20601f840160051c810160208510156118f25750805b601f840160051c820191505b81811015611911575f81556001016118fe565b50505b505050565b67ffffffffffffffff831115611931576119316118b9565b6119458361193f8354611856565b836118cd565b5f601f841160018114611976575f851561195f5750838201355b5f19600387901b1c1916600186901b178355611911565b5f83815260208120601f198716915b828110156119a55786850135825560209485019460019092019101611985565b50868210156119c1575f1960f88860031b161c19848701351681555b505060018560011b0183555050505050565b634e487b7160e01b5f52603260045260245ffd5b815167ffffffffffffffff811115611a0157611a016118b9565b611a1581611a0f8454611856565b846118cd565b602080601f831160018114611a48575f8415611a315750858301515b5f19600386901b1c1916600185901b178555611a9f565b5f85815260208120601f198616915b82811015611a7657888601518255948401946001909101908401611a57565b5085821015611a9357878501515f19600388901b60f8161c191681555b505060018460011b0185555b505050505050565b81835281816020850137505f828201602090810191909152601f909101601f19169091010190565b60a081525f611ae260a08301898b611aa7565b6001600160a01b03881660208401528281036040840152611b04818789611aa7565b606084019590955250506080015295945050505050565b6020808252600e908201526d2627291d103737ba1037bbb732b960911b604082015260600190565b606081525f611b56606083018688611aa7565b9050611b6184611400565b60208201939093526040015292915050565b60808101611b8086611400565b858252611b8c85611400565b60208201949094526001600160a01b0392909216604083015260609091015291905056fea2646970667358221220bc34ed18cd13bace7e4b55888e067c3e5e824ccc6d65b388b0e09df65e6e799264736f6c63430008180033",
  "linkReferences": {},
  "deployedLinkReferences": {}
}