{
  "_format": "hh-sol-artifact-1",
  "contractName": "LegacyFeeDistributionUtility",
  "sourceName": "src/LegacyFeeDistributionUtility.sol",
  "abi": [
    {
      "inputs": [
        {
          "internalType": "address",
          "name": "_referralContract",
          "type": "address"
        },
        {
          "internalType": "address",
          "name": "_affiliateBadgeContract",
          "type": "address"
        },
        {
          "internalType": "address",
          "name": "_treasury",
          "type": "address"
        }
      ],
      "stateMutability": "nonpayable",
      "type": "constructor"
    },
    {
      "inputs": [
        {
          "internalType": "address",
          "name": "owner",
          "type": "address"
        }
      ],
      "name": "OwnableInvalidOwner",
      "type": "error"
    },
    {
      "inputs": [
        {
          "internalType": "address",
          "name": "account",
          "type": "address"
        }
      ],
      "name": "OwnableUnauthorizedAccount",
      "type": "error"
    },
    {
      "inputs": [
        {
          "internalType": "address",
          "name": "token",
          "type": "address"
        }
      ],
      "name": "SafeERC20FailedOperation",
      "type": "error"
    },
    {
      "anonymous": false,
      "inputs": [
        {
          "indexed": false,
          "internalType": "address",
          "name": "referral",
          "type": "address"
        },
        {
          "indexed": false,
          "internalType": "address",
          "name": "badge",
          "type": "address"
        },
        {
          "indexed": false,
          "internalType": "address",
          "name": "treasuryAddr",
          "type": "address"
        }
      ],
      "name": "AddressesUpdated",
      "type": "event"
    },
    {
      "anonymous": false,
      "inputs": [
        {
          "indexed": false,
          "internalType": "uint256",
          "name": "newDiscountBps",
          "type": "uint256"
        }
      ],
      "name": "DiscountUpdated",
      "type": "event"
    },
    {
      "anonymous": false,
      "inputs": [
        {
          "indexed": true,
          "internalType": "address",
          "name": "user",
          "type": "address"
        },
        {
          "indexed": false,
          "internalType": "string",
          "name": "label",
          "type": "string"
        },
        {
          "indexed": false,
          "internalType": "address",
          "name": "token",
          "type": "address"
        },
        {
          "indexed": false,
          "internalType": "uint256",
          "name": "amountPaid",
          "type": "uint256"
        }
      ],
      "name": "NamespaceRegistrationPaid",
      "type": "event"
    },
    {
      "anonymous": false,
      "inputs": [
        {
          "indexed": true,
          "internalType": "address",
          "name": "previousOwner",
          "type": "address"
        },
        {
          "indexed": true,
          "internalType": "address",
          "name": "newOwner",
          "type": "address"
        }
      ],
      "name": "OwnershipTransferred",
      "type": "event"
    },
    {
      "anonymous": false,
      "inputs": [
        {
          "indexed": false,
          "internalType": "string",
          "name": "feeType",
          "type": "string"
        },
        {
          "indexed": false,
          "internalType": "uint256",
          "name": "tierOrId",
          "type": "uint256"
        },
        {
          "indexed": false,
          "internalType": "address",
          "name": "token",
          "type": "address"
        },
        {
          "indexed": false,
          "internalType": "uint256",
          "name": "price",
          "type": "uint256"
        }
      ],
      "name": "PriceUpdated",
      "type": "event"
    },
    {
      "anonymous": false,
      "inputs": [
        {
          "indexed": true,
          "internalType": "address",
          "name": "user",
          "type": "address"
        },
        {
          "indexed": false,
          "internalType": "uint256",
          "name": "tier",
          "type": "uint256"
        },
        {
          "indexed": false,
          "internalType": "address",
          "name": "token",
          "type": "address"
        },
        {
          "indexed": false,
          "internalType": "uint256",
          "name": "amountPaid",
          "type": "uint256"
        }
      ],
      "name": "SubscriptionPurchased",
      "type": "event"
    },
    {
      "inputs": [],
      "name": "affiliateBadgeContract",
      "outputs": [
        {
          "internalType": "address",
          "name": "",
          "type": "address"
        }
      ],
      "stateMutability": "view",
      "type": "function"
    },
    {
      "inputs": [],
      "name": "badgeDiscountBps",
      "outputs": [
        {
          "internalType": "uint256",
          "name": "",
          "type": "uint256"
        }
      ],
      "stateMutability": "view",
      "type": "function"
    },
    {
      "inputs": [
        {
          "internalType": "address",
          "name": "user",
          "type": "address"
        },
        {
          "internalType": "address",
          "name": "token",
          "type": "address"
        }
      ],
      "name": "getRegistrationPrice",
      "outputs": [
        {
          "internalType": "uint256",
          "name": "",
          "type": "uint256"
        }
      ],
      "stateMutability": "view",
      "type": "function"
    },
    {
      "inputs": [
        {
          "internalType": "address",
          "name": "user",
          "type": "address"
        },
        {
          "internalType": "address",
          "name": "token",
          "type": "address"
        },
        {
          "internalType": "uint256",
          "name": "tier",
          "type": "uint256"
        }
      ],
      "name": "getSubscriptionPrice",
      "outputs": [
        {
          "internalType": "uint256",
          "name": "",
          "type": "uint256"
        }
      ],
      "stateMutability": "view",
      "type": "function"
    },
    {
      "inputs": [
        {
          "internalType": "address",
          "name": "user",
          "type": "address"
        }
      ],
      "name": "hasAffiliateDiscount",
      "outputs": [
        {
          "internalType": "bool",
          "name": "",
          "type": "bool"
        }
      ],
      "stateMutability": "view",
      "type": "function"
    },
    {
      "inputs": [],
      "name": "nativeRootRegistrationFee",
      "outputs": [
        {
          "internalType": "uint256",
          "name": "",
          "type": "uint256"
        }
      ],
      "stateMutability": "view",
      "type": "function"
    },
    {
      "inputs": [
        {
          "internalType": "uint256",
          "name": "",
          "type": "uint256"
        }
      ],
      "name": "nativeTierPrices",
      "outputs": [
        {
          "internalType": "uint256",
          "name": "",
          "type": "uint256"
        }
      ],
      "stateMutability": "view",
      "type": "function"
    },
    {
      "inputs": [],
      "name": "owner",
      "outputs": [
        {
          "internalType": "address",
          "name": "",
          "type": "address"
        }
      ],
      "stateMutability": "view",
      "type": "function"
    },
    {
      "inputs": [
        {
          "internalType": "string",
          "name": "label",
          "type": "string"
        }
      ],
      "name": "payRegistrationWithNative",
      "outputs": [],
      "stateMutability": "payable",
      "type": "function"
    },
    {
      "inputs": [
        {
          "internalType": "string",
          "name": "label",
          "type": "string"
        },
        {
          "internalType": "address",
          "name": "token",
          "type": "address"
        }
      ],
      "name": "payRegistrationWithToken",
      "outputs": [],
      "stateMutability": "nonpayable",
      "type": "function"
    },
    {
      "inputs": [
        {
          "internalType": "uint256",
          "name": "tier",
          "type": "uint256"
        }
      ],
      "name": "purchaseSubscriptionWithNative",
      "outputs": [],
      "stateMutability": "payable",
      "type": "function"
    },
    {
      "inputs": [
        {
          "internalType": "address",
          "name": "token",
          "type": "address"
        },
        {
          "internalType": "uint256",
          "name": "tier",
          "type": "uint256"
        }
      ],
      "name": "purchaseSubscriptionWithToken",
      "outputs": [],
      "stateMutability": "nonpayable",
      "type": "function"
    },
    {
      "inputs": [],
      "name": "referralContract",
      "outputs": [
        {
          "internalType": "address",
          "name": "",
          "type": "address"
        }
      ],
      "stateMutability": "view",
      "type": "function"
    },
    {
      "inputs": [],
      "name": "renounceOwnership",
      "outputs": [],
      "stateMutability": "nonpayable",
      "type": "function"
    },
    {
      "inputs": [
        {
          "internalType": "address",
          "name": "_referralContract",
          "type": "address"
        },
        {
          "internalType": "address",
          "name": "_affiliateBadgeContract",
          "type": "address"
        },
        {
          "internalType": "address",
          "name": "_treasury",
          "type": "address"
        }
      ],
      "name": "setAddresses",
      "outputs": [],
      "stateMutability": "nonpayable",
      "type": "function"
    },
    {
      "inputs": [
        {
          "internalType": "uint256",
          "name": "_discountBps",
          "type": "uint256"
        }
      ],
      "name": "setBadgeDiscount",
      "outputs": [],
      "stateMutability": "nonpayable",
      "type": "function"
    },
    {
      "inputs": [
        {
          "internalType": "uint256",
          "name": "nativeFee",
          "type": "uint256"
        },
        {
          "internalType": "address",
          "name": "token",
          "type": "address"
        },
        {
          "internalType": "uint256",
          "name": "tokenFee",
          "type": "uint256"
        }
      ],
      "name": "setRegistrationFees",
      "outputs": [],
      "stateMutability": "nonpayable",
      "type": "function"
    },
    {
      "inputs": [
        {
          "internalType": "uint256",
          "name": "tier",
          "type": "uint256"
        },
        {
          "internalType": "uint256",
          "name": "nativePrice",
          "type": "uint256"
        },
        {
          "internalType": "address",
          "name": "token",
          "type": "address"
        },
        {
          "internalType": "uint256",
          "name": "tokenPrice",
          "type": "uint256"
        }
      ],
      "name": "setTierPrices",
      "outputs": [],
      "stateMutability": "nonpayable",
      "type": "function"
    },
    {
      "inputs": [
        {
          "internalType": "address",
          "name": "",
          "type": "address"
        }
      ],
      "name": "tokenRootRegistrationFees",
      "outputs": [
        {
          "internalType": "uint256",
          "name": "",
          "type": "uint256"
        }
      ],
      "stateMutability": "view",
      "type": "function"
    },
    {
      "inputs": [
        {
          "internalType": "address",
          "name": "",
          "type": "address"
        },
        {
          "internalType": "uint256",
          "name": "",
          "type": "uint256"
        }
      ],
      "name": "tokenTierPrices",
      "outputs": [
        {
          "internalType": "uint256",
          "name": "",
          "type": "uint256"
        }
      ],
      "stateMutability": "view",
      "type": "function"
    },
    {
      "inputs": [
        {
          "internalType": "address",
          "name": "newOwner",
          "type": "address"
        }
      ],
      "name": "transferOwnership",
      "outputs": [],
      "stateMutability": "nonpayable",
      "type": "function"
    },
    {
      "inputs": [],
      "name": "treasury",
      "outputs": [
        {
          "internalType": "address",
          "name": "",
          "type": "address"
        }
      ],
      "stateMutability": "view",
      "type": "function"
    }
  ],
  "bytecode": "0x60806040526103e860045534801562000016575f80fd5b5060405162001870380380620018708339810160408190526200003991620001b0565b33806200005f57604051631e4fbdf760e01b81525f600482015260240160405180910390fd5b6200006a8162000145565b50600180546001600160a01b039485166001600160a01b03199182161790915560028054938516938216939093179092556003805491909316911617815566b1a2bc2ec500006005556103e86004556007602052662386f26fc100007fb39221ace053465ec3453ce2b36430bd138b997ecea25c1043da0c366812b82855666a94d74f4300007fb7c774451310d1be4108bc180d1b52823cb0ee0274a6c0081bcaf94f115fb96d555f5267016345785d8a00007f3be6fd20d5acfde5b873b48692cd31f4d3c7e8ee8a813af4696af8859e5ca6c655620001f7565b5f80546001600160a01b038381166001600160a01b0319831681178455604051919092169283917f8be0079c531659141344cd1fd0a4f28419497f9722a3daafe3b4186f6b6457e09190a35050565b80516001600160a01b0381168114620001ab575f80fd5b919050565b5f805f60608486031215620001c3575f80fd5b620001ce8462000194565b9250620001de6020850162000194565b9150620001ee6040850162000194565b90509250925092565b61166b80620002055f395ff3fe608060405260043610610131575f3560e01c8063688e90bf116100a8578063959123161161006d5780639591231614610347578063993aa038146103665780639b517abd14610385578063ab5cd42c146103b4578063b0ca3c8d146103d3578063f2fde38b146103f2575f80fd5b8063688e90bf146102ba578063715018a6146102d95780637dad19db146102ed5780638da5cb5b1461030c578063923df20414610328575f80fd5b8063363bf964116100f9578063363bf964146101f157806347ba8e8e146102105780634f42d5ce146102255780635b7494221461025057806361d027b314610265578063657e71dc14610284575f80fd5b806306631f1a146101355780630bb3561014610171578063102415141461019257806322b0b75e146101cb5780632dd1f557146101de575b5f80fd5b348015610140575f80fd5b50600254610154906001600160a01b031681565b6040516001600160a01b0390911681526020015b60405180910390f35b34801561017c575f80fd5b5061019061018b36600461128d565b610411565b005b34801561019d575f80fd5b506101bd6101ac3660046112dd565b60076020525f908152604090205481565b604051908152602001610168565b6101906101d93660046112f4565b61065e565b6101906101ec3660046112dd565b6107de565b3480156101fc575f80fd5b5061019061020b366004611333565b610968565b34801561021b575f80fd5b506101bd60045481565b348015610230575f80fd5b506101bd61023f36600461136a565b60066020525f908152604090205481565b34801561025b575f80fd5b506101bd60055481565b348015610270575f80fd5b50600354610154906001600160a01b031681565b34801561028f575f80fd5b506101bd61029e366004611383565b600860209081525f928352604080842090915290825290205481565b3480156102c5575f80fd5b506101906102d4366004611383565b6109f5565b3480156102e4575f80fd5b50610190610c45565b3480156102f8575f80fd5b50600154610154906001600160a01b031681565b348015610317575f80fd5b505f546001600160a01b0316610154565b348015610333575f80fd5b506101906103423660046112dd565b610c58565b348015610352575f80fd5b506101906103613660046113ab565b610ced565b348015610371575f80fd5b506101906103803660046113dd565b610d6e565b348015610390575f80fd5b506103a461039f36600461136a565b610e21565b6040519015158152602001610168565b3480156103bf575f80fd5b506101bd6103ce366004611417565b610f30565b3480156103de575f80fd5b506101bd6103ed366004611448565b610faa565b3480156103fd575f80fd5b5061019061040c36600461136a565b61103b565b6001600160a01b03811661046c5760405162461bcd60e51b815260206004820152601b60248201527f4c4644553a20496e76616c696420746f6b656e2061646472657373000000000060448201526064015b60405180910390fd5b5f6104773383610f30565b90505f81116104c85760405162461bcd60e51b815260206004820152601f60248201527f4c4644553a205072696365206973203020666f72207468697320746f6b656e006044820152606401610463565b6104dd6001600160a01b038316333084611078565b6001546001600160a01b0316156105cf5760015460405163095ea7b360e01b81526001600160a01b039182166004820152602481018390529083169063095ea7b3906044016020604051808303815f875af115801561053e573d5f803e3d5ffd5b505050506040513d601f19601f820116820180604052508101906105629190611471565b5060015460405163099452df60e01b81523360048201526001600160a01b038481166024830152604482018490529091169063099452df906064015f604051808303815f87803b1580156105b4575f80fd5b505af11580156105c6573d5f803e3d5ffd5b50505050610611565b600354610611906001600160a01b03166105f3575f546001600160a01b0316610600565b6003546001600160a01b03165b6001600160a01b03841690836110ae565b336001600160a01b03167f98c4754f4640bdc5efaf6307c0274d194dd012e9c7f22c8d32fc29fa9930ce35858585856040516106509493929190611490565b60405180910390a250505050565b5f610669335f610f30565b90508034101561068b5760405162461bcd60e51b8152600401610463906114d8565b5f610696823461152d565b905080156106ca57604051339082156108fc029083905f818181858888f193505050501580156106c8573d5f803e3d5ffd5b505b6001546001600160a01b03161561073b57600154604051637b06ef9b60e11b81523360048201526001600160a01b039091169063f60ddf369084906024015f604051808303818588803b15801561071f575f80fd5b505af1158015610731573d5f803e3d5ffd5b505050505061079f565b6003546001600160a01b031661075b575f546001600160a01b0316610768565b6003546001600160a01b03165b6001600160a01b03166108fc8390811502906040515f60405180830381858888f1935050505015801561079d573d5f803e3d5ffd5b505b336001600160a01b03167f98c4754f4640bdc5efaf6307c0274d194dd012e9c7f22c8d32fc29fa9930ce3585855f866040516106509493929190611490565b5f6107ea335f84610faa565b90508034101561080c5760405162461bcd60e51b8152600401610463906114d8565b5f610817823461152d565b9050801561084b57604051339082156108fc029083905f818181858888f19350505050158015610849573d5f803e3d5ffd5b505b6001546001600160a01b0316156108bc57600154604051637b06ef9b60e11b81523360048201526001600160a01b039091169063f60ddf369084906024015f604051808303818588803b1580156108a0575f80fd5b505af11580156108b2573d5f803e3d5ffd5b5050505050610920565b6003546001600160a01b03166108dc575f546001600160a01b03166108e9565b6003546001600160a01b03165b6001600160a01b03166108fc8390811502906040515f60405180830381858888f1935050505015801561091e573d5f803e3d5ffd5b505b604080518481525f602082015290810183905233907f3c969f868e5e122e505d15be27843dbf7f4b091c1f7c41bf709875492923f3e0906060015b60405180910390a2505050565b6109706110e3565b600180546001600160a01b038581166001600160a01b0319928316811790935560028054868316908416811790915560038054928616929093168217909255604080519384526020840192909252908201527f97a48c4be738bdf3e84e8f3927df6d4e52ccc94c58e96a666faca603e456d490906060015b60405180910390a1505050565b6001600160a01b038216610a4b5760405162461bcd60e51b815260206004820152601b60248201527f4c4644553a20496e76616c696420746f6b656e206164647265737300000000006044820152606401610463565b5f610a57338484610faa565b90505f8111610ab45760405162461bcd60e51b8152602060048201526024808201527f4c4644553a2054696572207072696365206973203020666f722074686973207460448201526337b5b2b760e11b6064820152608401610463565b610ac96001600160a01b038416333084611078565b6001546001600160a01b031615610bbb5760015460405163095ea7b360e01b81526001600160a01b039182166004820152602481018390529084169063095ea7b3906044016020604051808303815f875af1158015610b2a573d5f803e3d5ffd5b505050506040513d601f19601f82011682018060405250810190610b4e9190611471565b5060015460405163099452df60e01b81523360048201526001600160a01b038581166024830152604482018490529091169063099452df906064015f604051808303815f87803b158015610ba0575f80fd5b505af1158015610bb2573d5f803e3d5ffd5b50505050610bfd565b600354610bfd906001600160a01b0316610bdf575f546001600160a01b0316610bec565b6003546001600160a01b03165b6001600160a01b03851690836110ae565b604080518381526001600160a01b038516602082015290810182905233907f3c969f868e5e122e505d15be27843dbf7f4b091c1f7c41bf709875492923f3e09060600161095b565b610c4d6110e3565b610c565f61110f565b565b610c606110e3565b611388811115610cb25760405162461bcd60e51b815260206004820181905260248201527f4c4644553a20646973636f756e742063616e6e6f7420657863656564203530256044820152606401610463565b60048190556040518181527f4380d185219209b34ffa7f42fb87214e1e8b63a4957f532acc0cfa84697f05149060200160405180910390a150565b610cf56110e3565b60058390556001600160a01b0382165f90815260066020526040808220839055515f8051602061161683398151915291610d329181908790611540565b60405180910390a16001600160a01b03821615610d69575f805160206116168339815191525f83836040516109e893929190611540565b505050565b610d766110e3565b5f8481526007602052604090208390556001600160a01b03821615610dbb576001600160a01b0382165f90815260086020908152604080832087845290915290208190555b5f80516020611616833981519152845f85604051610ddb93929190611584565b60405180910390a16001600160a01b03821615610e1b575f80516020611616833981519152848383604051610e1293929190611584565b60405180910390a15b50505050565b6002545f906001600160a01b0316610e3a57505f919050565b600254604051635e50864f60e01b81526001600160a01b03848116600483015290911690635e50864f90602401602060405180830381865afa925050508015610ea0575060408051601f3d908101601f19168201909252610e9d91810190611471565b60015b15610eb6578015610eb45750600192915050565b505b6002546040516370a0823160e01b81526001600160a01b038481166004830152909116906370a0823190602401602060405180830381865afa925050508015610f1c575060408051601f3d908101601f19168201909252610f19918101906115c8565b60015b15610f2957151592915050565b505f919050565b5f806001600160a01b03831615610f5e576001600160a01b0383165f90815260066020526040902054610f62565b6005545b9050610f6d84610e21565b15610fa157612710600454612710610f85919061152d565b610f8f90836115df565b610f9991906115f6565b915050610fa4565b90505b92915050565b5f806001600160a01b03841615610fe3576001600160a01b0384165f908152600860209081526040808320868452909152902054610ff2565b5f838152600760205260409020545b9050610ffd85610e21565b1561103157612710600454612710611015919061152d565b61101f90836115df565b61102991906115f6565b915050611034565b90505b9392505050565b6110436110e3565b6001600160a01b03811661106c57604051631e4fbdf760e01b81525f6004820152602401610463565b6110758161110f565b50565b61108684848484600161115e565b610e1b57604051635274afe760e01b81526001600160a01b0385166004820152602401610463565b6110bb83838360016111cb565b610d6957604051635274afe760e01b81526001600160a01b0384166004820152602401610463565b5f546001600160a01b03163314610c565760405163118cdaa760e01b8152336004820152602401610463565b5f80546001600160a01b038381166001600160a01b0319831681178455604051919092169283917f8be0079c531659141344cd1fd0a4f28419497f9722a3daafe3b4186f6b6457e09190a35050565b6040516323b872dd60e01b5f8181526001600160a01b038781166004528616602452604485905291602083606481808c5af1925060015f511483166111ba5783831516156111ae573d5f823e3d81fd5b5f883b113d1516831692505b604052505f60605295945050505050565b60405163a9059cbb60e01b5f8181526001600160a01b038616600452602485905291602083604481808b5af1925060015f51148316611221578383151615611215573d5f823e3d81fd5b5f873b113d1516831692505b60405250949350505050565b5f8083601f84011261123d575f80fd5b50813567ffffffffffffffff811115611254575f80fd5b60208301915083602082850101111561126b575f80fd5b9250929050565b80356001600160a01b0381168114611288575f80fd5b919050565b5f805f6040848603121561129f575f80fd5b833567ffffffffffffffff8111156112b5575f80fd5b6112c18682870161122d565b90945092506112d4905060208501611272565b90509250925092565b5f602082840312156112ed575f80fd5b5035919050565b5f8060208385031215611305575f80fd5b823567ffffffffffffffff81111561131b575f80fd5b6113278582860161122d565b90969095509350505050565b5f805f60608486031215611345575f80fd5b61134e84611272565b925061135c60208501611272565b91506112d460408501611272565b5f6020828403121561137a575f80fd5b61103482611272565b5f8060408385031215611394575f80fd5b61139d83611272565b946020939093013593505050565b5f805f606084860312156113bd575f80fd5b833592506113cd60208501611272565b9150604084013590509250925092565b5f805f80608085870312156113f0575f80fd5b843593506020850135925061140760408601611272565b9396929550929360600135925050565b5f8060408385031215611428575f80fd5b61143183611272565b915061143f60208401611272565b90509250929050565b5f805f6060848603121561145a575f80fd5b61146384611272565b92506113cd60208501611272565b5f60208284031215611481575f80fd5b81518015158114610fa1575f80fd5b60608152836060820152838560808301375f60808583018101919091526001600160a01b039390931660208201526040810191909152601f909201601f191690910101919050565b60208082526021908201527f4c4644553a20496e73756666696369656e74206e6174697665207061796d656e6040820152601d60fa1b606082015260800190565b634e487b7160e01b5f52601160045260245ffd5b81810381811115610fa457610fa4611519565b6080808252600c908201526b2932b3b4b9ba3930ba34b7b760a11b60a082015260208101939093526001600160a01b03919091166040830152606082015260c00190565b6080808252600c908201526b29bab139b1b934b83a34b7b760a11b60a082015260208101939093526001600160a01b03919091166040830152606082015260c00190565b5f602082840312156115d8575f80fd5b5051919050565b8082028115828204841417610fa457610fa4611519565b5f8261161057634e487b7160e01b5f52601260045260245ffd5b50049056fe89186bbd353809bcc0aa77843d6ea72e488b7fd552bfe5afb4006dc6cd6fe6a3a2646970667358221220e4b9f0f1806d4c62bc32aa7e0772a23b6fe16dee001e617c4bb553ae690d480d64736f6c63430008180033",
  "linkReferences": {},
  "deployedLinkReferences": {}
}