{
  "_format": "hh-sol-artifact-1",
  "contractName": "LegacyAccessControl",
  "sourceName": "src/LegacyAccessControl.sol",
  "abi": [
    {
      "inputs": [],
      "stateMutability": "nonpayable",
      "type": "constructor"
    },
    {
      "anonymous": false,
      "inputs": [
        {
          "indexed": true,
          "internalType": "uint256",
          "name": "id",
          "type": "uint256"
        },
        {
          "indexed": true,
          "internalType": "string",
          "name": "vaultId",
          "type": "string"
        },
        {
          "indexed": false,
          "internalType": "string",
          "name": "granteeId",
          "type": "string"
        },
        {
          "indexed": false,
          "internalType": "string",
          "name": "granteeDID",
          "type": "string"
        },
        {
          "indexed": false,
          "internalType": "enum LegacyAccessControl.AccessScope",
          "name": "scope",
          "type": "uint8"
        },
        {
          "indexed": false,
          "internalType": "uint256",
          "name": "grantedAt",
          "type": "uint256"
        }
      ],
      "name": "AccessGranted",
      "type": "event"
    },
    {
      "anonymous": false,
      "inputs": [
        {
          "indexed": true,
          "internalType": "uint256",
          "name": "id",
          "type": "uint256"
        },
        {
          "indexed": true,
          "internalType": "string",
          "name": "vaultId",
          "type": "string"
        },
        {
          "indexed": false,
          "internalType": "string",
          "name": "granteeId",
          "type": "string"
        },
        {
          "indexed": false,
          "internalType": "address",
          "name": "revokedBy",
          "type": "address"
        },
        {
          "indexed": false,
          "internalType": "uint256",
          "name": "revokedAt",
          "type": "uint256"
        }
      ],
      "name": "AccessRevoked",
      "type": "event"
    },
    {
      "inputs": [
        {
          "internalType": "address",
          "name": "op",
          "type": "address"
        }
      ],
      "name": "addOperator",
      "outputs": [],
      "stateMutability": "nonpayable",
      "type": "function"
    },
    {
      "inputs": [
        {
          "internalType": "uint256",
          "name": "grantId",
          "type": "uint256"
        }
      ],
      "name": "getGrant",
      "outputs": [
        {
          "components": [
            {
              "internalType": "uint256",
              "name": "id",
              "type": "uint256"
            },
            {
              "internalType": "string",
              "name": "vaultId",
              "type": "string"
            },
            {
              "internalType": "string",
              "name": "granteeId",
              "type": "string"
            },
            {
              "internalType": "string",
              "name": "granteeDID",
              "type": "string"
            },
            {
              "internalType": "enum LegacyAccessControl.AccessScope",
              "name": "scope",
              "type": "uint8"
            },
            {
              "internalType": "bytes32",
              "name": "itemsHash",
              "type": "bytes32"
            },
            {
              "internalType": "address",
              "name": "grantedBy",
              "type": "address"
            },
            {
              "internalType": "uint256",
              "name": "grantedAt",
              "type": "uint256"
            },
            {
              "internalType": "uint256",
              "name": "expiresAt",
              "type": "uint256"
            },
            {
              "internalType": "bool",
              "name": "revoked",
              "type": "bool"
            },
            {
              "internalType": "uint256",
              "name": "revokedAt",
              "type": "uint256"
            }
          ],
          "internalType": "struct LegacyAccessControl.AccessGrant",
          "name": "",
          "type": "tuple"
        }
      ],
      "stateMutability": "view",
      "type": "function"
    },
    {
      "inputs": [
        {
          "internalType": "string",
          "name": "granteeId",
          "type": "string"
        }
      ],
      "name": "getGranteeGrants",
      "outputs": [
        {
          "internalType": "uint256[]",
          "name": "",
          "type": "uint256[]"
        }
      ],
      "stateMutability": "view",
      "type": "function"
    },
    {
      "inputs": [
        {
          "internalType": "string",
          "name": "vaultId",
          "type": "string"
        }
      ],
      "name": "getVaultGrants",
      "outputs": [
        {
          "internalType": "uint256[]",
          "name": "",
          "type": "uint256[]"
        }
      ],
      "stateMutability": "view",
      "type": "function"
    },
    {
      "inputs": [
        {
          "internalType": "string",
          "name": "vaultId",
          "type": "string"
        },
        {
          "internalType": "string",
          "name": "granteeId",
          "type": "string"
        }
      ],
      "name": "hasActiveGrant",
      "outputs": [
        {
          "internalType": "bool",
          "name": "",
          "type": "bool"
        },
        {
          "internalType": "enum LegacyAccessControl.AccessScope",
          "name": "",
          "type": "uint8"
        }
      ],
      "stateMutability": "view",
      "type": "function"
    },
    {
      "inputs": [
        {
          "internalType": "string",
          "name": "vaultId",
          "type": "string"
        },
        {
          "internalType": "string",
          "name": "granteeId",
          "type": "string"
        },
        {
          "internalType": "string",
          "name": "granteeDID",
          "type": "string"
        },
        {
          "internalType": "enum LegacyAccessControl.AccessScope",
          "name": "scope",
          "type": "uint8"
        },
        {
          "internalType": "bytes32",
          "name": "itemsHash",
          "type": "bytes32"
        },
        {
          "internalType": "uint256",
          "name": "expiresAt",
          "type": "uint256"
        }
      ],
      "name": "issueGrant",
      "outputs": [
        {
          "internalType": "uint256",
          "name": "grantId",
          "type": "uint256"
        }
      ],
      "stateMutability": "nonpayable",
      "type": "function"
    },
    {
      "inputs": [
        {
          "internalType": "address",
          "name": "",
          "type": "address"
        }
      ],
      "name": "operators",
      "outputs": [
        {
          "internalType": "bool",
          "name": "",
          "type": "bool"
        }
      ],
      "stateMutability": "view",
      "type": "function"
    },
    {
      "inputs": [],
      "name": "owner",
      "outputs": [
        {
          "internalType": "address",
          "name": "",
          "type": "address"
        }
      ],
      "stateMutability": "view",
      "type": "function"
    },
    {
      "inputs": [
        {
          "internalType": "address",
          "name": "op",
          "type": "address"
        }
      ],
      "name": "removeOperator",
      "outputs": [],
      "stateMutability": "nonpayable",
      "type": "function"
    },
    {
      "inputs": [
        {
          "internalType": "uint256",
          "name": "grantId",
          "type": "uint256"
        }
      ],
      "name": "revokeGrant",
      "outputs": [],
      "stateMutability": "nonpayable",
      "type": "function"
    },
    {
      "inputs": [],
      "name": "totalGrants",
      "outputs": [
        {
          "internalType": "uint256",
          "name": "",
          "type": "uint256"
        }
      ],
      "stateMutability": "view",
      "type": "function"
    },
    {
      "inputs": [
        {
          "internalType": "address",
          "name": "newOwner",
          "type": "address"
        }
      ],
      "name": "transferOwnership",
      "outputs": [],
      "stateMutability": "nonpayable",
      "type": "function"
    }
  ],
  "bytecode": "0x608060405234801561000f575f80fd5b505f80546001600160a01b0319163390811782558152600160208190526040909120805460ff191690911790556113de806100495f395ff3fe608060405234801561000f575f80fd5b50600436106100b1575f3560e01c8063a6b18ced1161006e578063a6b18ced1461017f578063ac8a584a146101a0578063b8cc6c93146101b3578063d9211be8146101d3578063db2aa123146101dc578063f2fde38b146101ef575f80fd5b806313e7c9d8146100b55780631d33267a146100ec5780634bc25f6f146101015780638da5cb5b146101215780639870d7fe1461014b578063a50d28f31461015e575b5f80fd5b6100d76100c3366004610cc7565b60016020525f908152604090205460ff1681565b60405190151581526020015b60405180910390f35b6100ff6100fa366004610cf4565b610202565b005b61011461010f366004610d50565b610380565b6040516100e39190610d8f565b5f54610133906001600160a01b031681565b6040516001600160a01b0390911681526020016100e3565b6100ff610159366004610cc7565b610410565b61017161016c366004610dd2565b61045f565b6040516100e3929190610e6d565b61019261018d366004610e83565b610592565b6040519081526020016100e3565b6100ff6101ae366004610cc7565b6108f9565b6101c66101c1366004610cf4565b610942565b6040516100e39190610f80565b61019260025481565b6101146101ea366004610d50565b610beb565b6100ff6101fd366004610cc7565b610c03565b335f9081526001602052604090205460ff168061022857505f546001600160a01b031633145b61026d5760405162461bcd60e51b81526020600482015260116024820152702620a19d103737ba1037b832b930ba37b960791b60448201526064015b60405180910390fd5b5f81815260036020526040902060025482106102c25760405162461bcd60e51b8152602060048201526014602482015273131050ce8819dc985b9d081b9bdd08199bdd5b9960621b6044820152606401610264565b600981015460ff161561030e5760405162461bcd60e51b8152602060048201526014602482015273131050ce88185b1c9958591e481c995d9bdad95960621b6044820152606401610264565b60098101805460ff1916600190811790915542600a83015560405161033591830190611097565b6040518091039020827f5f3b56f5e9d03d111dc29e5ced2bdeeab7d4a45c580fc85178e2ac69afe1d67a83600201334260405161037493929190611109565b60405180910390a35050565b606060055f84846040516020016103989291906111aa565b6040516020818303038152906040528051906020012081526020019081526020015f2080548060200260200160405190810160405280929190818152602001828054801561040357602002820191905f5260205f20905b8154815260200190600101908083116103ef575b5050505050905092915050565b5f546001600160a01b031633146104395760405162461bcd60e51b8152600401610264906111b9565b6001600160a01b03165f908152600160208190526040909120805460ff19169091179055565b5f805f84846040516020016104759291906111aa565b60408051601f1981840301815282825280516020918201205f81815260058352928320909450926104aa918b918b91016111aa565b6040516020818303038152906040528051906020012090505f5b825481101561057d575f60035f8584815481106104e3576104e36111e1565b5f91825260208083209091015483528201929092526040019020600981015490915060ff1615801561053d575082816001016040516020016105259190611097565b60405160208183030381529060405280519060200120145b80156105585750600881015415806105585750806008015442105b1561057457600401546001965060ff1694506105899350505050565b506001016104c4565b505f6004945094505050505b94509492505050565b335f9081526001602052604081205460ff16806105b857505f546001600160a01b031633145b6105f85760405162461bcd60e51b81526020600482015260116024820152702620a19d103737ba1037b832b930ba37b960791b6044820152606401610264565b60025490506040518061016001604052808281526020018b8b8080601f0160208091040260200160405190810160405280939291908181526020018383808284375f92019190915250505090825250604080516020601f8c018190048102820181019092528a815291810191908b908b90819084018382808284375f92019190915250505090825250604080516020601f8a01819004810282018101909252888152918101919089908990819084018382808284375f920191909152505050908252506020018560048111156106d0576106d0610e39565b8152602080820186905233604080840191909152426060840152608083018690525f60a0840181905260c090930183905284835260038252909120825181559082015160018201906107229082611255565b50604082015160028201906107379082611255565b506060820151600382019061074c9082611255565b506080820151816004015f6101000a81548160ff0219169083600481111561077657610776610e39565b021790555060a0820151600582015560c08201516006820180546001600160a01b0319166001600160a01b0390921691909117905560e08201516007820155610100820151600882015561012082015160098201805460ff191691151591909117905561014090910151600a909101556040515f906107fb908c908c906020016111aa565b6040516020818303038152906040528051906020012090505f89896040516020016108279291906111aa565b60408051601f1981840301815291815281516020928301205f85815260048452828120805460018181018355918352858320018890558282526005855292812080549384018155815292832090910185905560028054919350909161088b83611315565b91905055508b8b6040516108a09291906111aa565b6040518091039020837f3771a116541dafeff8ed4725e44aeb5afce9efadb829c90733a5142f649bb6e38c8c8c8c8c426040516108e296959493929190611361565b60405180910390a350509998505050505050505050565b5f546001600160a01b031633146109225760405162461bcd60e51b8152600401610264906111b9565b6001600160a01b03165f908152600160205260409020805460ff19169055565b61094a610c5f565b60025482106109925760405162461bcd60e51b8152602060048201526014602482015273131050ce8819dc985b9d081b9bdd08199bdd5b9960621b6044820152606401610264565b60035f8381526020019081526020015f20604051806101600160405290815f82015481526020016001820180546109c89061105f565b80601f01602080910402602001604051908101604052809291908181526020018280546109f49061105f565b8015610a3f5780601f10610a1657610100808354040283529160200191610a3f565b820191905f5260205f20905b815481529060010190602001808311610a2257829003601f168201915b50505050508152602001600282018054610a589061105f565b80601f0160208091040260200160405190810160405280929190818152602001828054610a849061105f565b8015610acf5780601f10610aa657610100808354040283529160200191610acf565b820191905f5260205f20905b815481529060010190602001808311610ab257829003601f168201915b50505050508152602001600382018054610ae89061105f565b80601f0160208091040260200160405190810160405280929190818152602001828054610b149061105f565b8015610b5f5780601f10610b3657610100808354040283529160200191610b5f565b820191905f5260205f20905b815481529060010190602001808311610b4257829003601f168201915b505050918352505060048281015460209092019160ff1690811115610b8657610b86610e39565b6004811115610b9757610b97610e39565b81526005820154602082015260068201546001600160a01b031660408201526007820154606082015260088201546080820152600982015460ff16151560a0820152600a9091015460c09091015292915050565b606060045f84846040516020016103989291906111aa565b5f546001600160a01b03163314610c2c5760405162461bcd60e51b8152600401610264906111b9565b6001600160a01b038116610c3e575f80fd5b5f80546001600160a01b0319166001600160a01b0392909216919091179055565b6040518061016001604052805f81526020016060815260200160608152602001606081526020015f6004811115610c9857610c98610e39565b81525f6020820181905260408201819052606082018190526080820181905260a0820181905260c09091015290565b5f60208284031215610cd7575f80fd5b81356001600160a01b0381168114610ced575f80fd5b9392505050565b5f60208284031215610d04575f80fd5b5035919050565b5f8083601f840112610d1b575f80fd5b50813567ffffffffffffffff811115610d32575f80fd5b602083019150836020828501011115610d49575f80fd5b9250929050565b5f8060208385031215610d61575f80fd5b823567ffffffffffffffff811115610d77575f80fd5b610d8385828601610d0b565b90969095509350505050565b602080825282518282018190525f9190848201906040850190845b81811015610dc657835183529284019291840191600101610daa565b50909695505050505050565b5f805f8060408587031215610de5575f80fd5b843567ffffffffffffffff80821115610dfc575f80fd5b610e0888838901610d0b565b90965094506020870135915080821115610e20575f80fd5b50610e2d87828801610d0b565b95989497509550505050565b634e487b7160e01b5f52602160045260245ffd5b60058110610e6957634e487b7160e01b5f52602160045260245ffd5b9052565b821515815260408101610ced6020830184610e4d565b5f805f805f805f805f60c08a8c031215610e9b575f80fd5b893567ffffffffffffffff80821115610eb2575f80fd5b610ebe8d838e01610d0b565b909b50995060208c0135915080821115610ed6575f80fd5b610ee28d838e01610d0b565b909950975060408c0135915080821115610efa575f80fd5b50610f078c828d01610d0b565b90965094505060608a013560058110610f1e575f80fd5b8093505060808a0135915060a08a013590509295985092959850929598565b5f81518084525f5b81811015610f6157602081850181015186830182015201610f45565b505f602082860101526020601f19601f83011685010191505092915050565b60208152815160208201525f6020830151610160806040850152610fa8610180850183610f3d565b91506040850151601f1980868503016060870152610fc68483610f3d565b9350606087015191508086850301608087015250610fe48382610f3d565b9250506080850151610ff960a0860182610e4d565b5060a085015160c085015260c085015161101e60e08601826001600160a01b03169052565b5060e0850151610100858101919091528501516101208086019190915285015161014061104e8187018315159052565b959095015193019290925250919050565b600181811c9082168061107357607f821691505b60208210810361109157634e487b7160e01b5f52602260045260245ffd5b50919050565b5f8083546110a48161105f565b600182811680156110bc57600181146110d1576110fd565b60ff19841687528215158302870194506110fd565b875f526020805f205f5b858110156110f45781548a8201529084019082016110db565b50505082870194505b50929695505050505050565b606081525f80855461111a8161105f565b806060860152608060018084165f811461113b576001811461115757611186565b60ff1985166080890152608084151560051b8901019550611186565b8a5f526020805f205f5b8681101561117c5781548b8201870152908401908201611161565b8a01608001975050505b505050506001600160a01b0386166020850152509050826040830152949350505050565b818382375f9101908152919050565b6020808252600e908201526d2620a19d103737ba1037bbb732b960911b604082015260600190565b634e487b7160e01b5f52603260045260245ffd5b634e487b7160e01b5f52604160045260245ffd5b601f82111561125057805f5260205f20601f840160051c8101602085101561122e5750805b601f840160051c820191505b8181101561124d575f815560010161123a565b50505b505050565b815167ffffffffffffffff81111561126f5761126f6111f5565b6112838161127d845461105f565b84611209565b602080601f8311600181146112b6575f841561129f5750858301515b5f19600386901b1c1916600185901b17855561130d565b5f85815260208120601f198616915b828110156112e4578886015182559484019460019091019084016112c5565b508582101561130157878501515f19600388901b60f8161c191681555b505060018460011b0185555b505050505050565b5f6001820161133257634e487b7160e01b5f52601160045260245ffd5b5060010190565b81835281816020850137505f828201602090810191909152601f909101601f19169091010190565b608081525f61137460808301888a611339565b8281036020840152611387818789611339565b9150506113976040830185610e4d565b82606083015297965050505050505056fea26469706673582212206535fdb15c43c42ca32e004842b053da3ca76037c5d9216f880544fb3e5f9d0364736f6c63430008180033",
  "linkReferences": {},
  "deployedLinkReferences": {}
}