{
  "_format": "hh-sol-artifact-1",
  "contractName": "LegacyVaultRegistry",
  "sourceName": "src/LegacyVaultRegistry.sol",
  "abi": [
    {
      "inputs": [],
      "stateMutability": "nonpayable",
      "type": "constructor"
    },
    {
      "anonymous": false,
      "inputs": [
        {
          "indexed": true,
          "internalType": "string",
          "name": "vaultId",
          "type": "string"
        },
        {
          "indexed": false,
          "internalType": "string",
          "name": "eventId",
          "type": "string"
        },
        {
          "indexed": false,
          "internalType": "bytes32",
          "name": "eventHash",
          "type": "bytes32"
        },
        {
          "indexed": false,
          "internalType": "uint256",
          "name": "blockHeight",
          "type": "uint256"
        },
        {
          "indexed": false,
          "internalType": "uint256",
          "name": "timestamp",
          "type": "uint256"
        }
      ],
      "name": "AuditEventAnchored",
      "type": "event"
    },
    {
      "anonymous": false,
      "inputs": [
        {
          "indexed": true,
          "internalType": "string",
          "name": "vaultId",
          "type": "string"
        },
        {
          "indexed": false,
          "internalType": "string",
          "name": "newCID",
          "type": "string"
        },
        {
          "indexed": false,
          "internalType": "bytes32",
          "name": "newHash",
          "type": "bytes32"
        },
        {
          "indexed": false,
          "internalType": "uint256",
          "name": "version",
          "type": "uint256"
        },
        {
          "indexed": false,
          "internalType": "uint256",
          "name": "timestamp",
          "type": "uint256"
        }
      ],
      "name": "ManifestUpdated",
      "type": "event"
    },
    {
      "anonymous": false,
      "inputs": [
        {
          "indexed": true,
          "internalType": "address",
          "name": "operator",
          "type": "address"
        }
      ],
      "name": "OperatorAdded",
      "type": "event"
    },
    {
      "anonymous": false,
      "inputs": [
        {
          "indexed": true,
          "internalType": "address",
          "name": "operator",
          "type": "address"
        }
      ],
      "name": "OperatorRemoved",
      "type": "event"
    },
    {
      "anonymous": false,
      "inputs": [
        {
          "indexed": true,
          "internalType": "string",
          "name": "vaultId",
          "type": "string"
        },
        {
          "indexed": false,
          "internalType": "string",
          "name": "ownerDID",
          "type": "string"
        },
        {
          "indexed": false,
          "internalType": "string",
          "name": "manifestCID",
          "type": "string"
        },
        {
          "indexed": false,
          "internalType": "bytes32",
          "name": "manifestHash",
          "type": "bytes32"
        },
        {
          "indexed": false,
          "internalType": "uint256",
          "name": "timestamp",
          "type": "uint256"
        }
      ],
      "name": "VaultCreated",
      "type": "event"
    },
    {
      "anonymous": false,
      "inputs": [
        {
          "indexed": true,
          "internalType": "string",
          "name": "vaultId",
          "type": "string"
        },
        {
          "indexed": false,
          "internalType": "enum LegacyVaultRegistry.VaultStatus",
          "name": "previousStatus",
          "type": "uint8"
        },
        {
          "indexed": false,
          "internalType": "enum LegacyVaultRegistry.VaultStatus",
          "name": "newStatus",
          "type": "uint8"
        },
        {
          "indexed": false,
          "internalType": "address",
          "name": "changedBy",
          "type": "address"
        },
        {
          "indexed": false,
          "internalType": "uint256",
          "name": "timestamp",
          "type": "uint256"
        }
      ],
      "name": "VaultStatusChanged",
      "type": "event"
    },
    {
      "inputs": [
        {
          "internalType": "address",
          "name": "op",
          "type": "address"
        }
      ],
      "name": "addOperator",
      "outputs": [],
      "stateMutability": "nonpayable",
      "type": "function"
    },
    {
      "inputs": [
        {
          "internalType": "string",
          "name": "vaultId",
          "type": "string"
        },
        {
          "internalType": "string",
          "name": "eventId",
          "type": "string"
        },
        {
          "internalType": "bytes32",
          "name": "eventHash",
          "type": "bytes32"
        }
      ],
      "name": "anchorAuditEvent",
      "outputs": [],
      "stateMutability": "nonpayable",
      "type": "function"
    },
    {
      "inputs": [],
      "name": "auditLog",
      "outputs": [
        {
          "internalType": "address",
          "name": "",
          "type": "address"
        }
      ],
      "stateMutability": "view",
      "type": "function"
    },
    {
      "inputs": [
        {
          "internalType": "string",
          "name": "vaultId",
          "type": "string"
        }
      ],
      "name": "getVault",
      "outputs": [
        {
          "components": [
            {
              "internalType": "string",
              "name": "vaultId",
              "type": "string"
            },
            {
              "internalType": "string",
              "name": "ownerDID",
              "type": "string"
            },
            {
              "internalType": "string",
              "name": "encryptedManifestCID",
              "type": "string"
            },
            {
              "internalType": "bytes32",
              "name": "manifestHash",
              "type": "bytes32"
            },
            {
              "internalType": "string",
              "name": "releasePolicyId",
              "type": "string"
            },
            {
              "internalType": "enum LegacyVaultRegistry.VaultStatus",
              "name": "status",
              "type": "uint8"
            },
            {
              "internalType": "uint256",
              "name": "createdAt",
              "type": "uint256"
            },
            {
              "internalType": "uint256",
              "name": "updatedAt",
              "type": "uint256"
            },
            {
              "internalType": "bool",
              "name": "exists",
              "type": "bool"
            }
          ],
          "internalType": "struct LegacyVaultRegistry.VaultRecord",
          "name": "",
          "type": "tuple"
        }
      ],
      "stateMutability": "view",
      "type": "function"
    },
    {
      "inputs": [
        {
          "internalType": "string",
          "name": "vaultId",
          "type": "string"
        }
      ],
      "name": "getVaultEvents",
      "outputs": [
        {
          "components": [
            {
              "internalType": "string",
              "name": "eventName",
              "type": "string"
            },
            {
              "internalType": "string",
              "name": "vaultId",
              "type": "string"
            },
            {
              "internalType": "bytes32",
              "name": "dataHash",
              "type": "bytes32"
            },
            {
              "internalType": "uint256",
              "name": "blockHeight",
              "type": "uint256"
            },
            {
              "internalType": "uint256",
              "name": "timestamp",
              "type": "uint256"
            }
          ],
          "internalType": "struct LegacyVaultRegistry.ChainEvent[]",
          "name": "",
          "type": "tuple[]"
        }
      ],
      "stateMutability": "view",
      "type": "function"
    },
    {
      "inputs": [
        {
          "internalType": "string",
          "name": "vaultId",
          "type": "string"
        }
      ],
      "name": "getVaultStatus",
      "outputs": [
        {
          "internalType": "enum LegacyVaultRegistry.VaultStatus",
          "name": "",
          "type": "uint8"
        }
      ],
      "stateMutability": "view",
      "type": "function"
    },
    {
      "inputs": [
        {
          "internalType": "address",
          "name": "",
          "type": "address"
        }
      ],
      "name": "operators",
      "outputs": [
        {
          "internalType": "bool",
          "name": "",
          "type": "bool"
        }
      ],
      "stateMutability": "view",
      "type": "function"
    },
    {
      "inputs": [],
      "name": "owner",
      "outputs": [
        {
          "internalType": "address",
          "name": "",
          "type": "address"
        }
      ],
      "stateMutability": "view",
      "type": "function"
    },
    {
      "inputs": [],
      "name": "policyEngine",
      "outputs": [
        {
          "internalType": "address",
          "name": "",
          "type": "address"
        }
      ],
      "stateMutability": "view",
      "type": "function"
    },
    {
      "inputs": [
        {
          "internalType": "string",
          "name": "vaultId",
          "type": "string"
        },
        {
          "internalType": "string",
          "name": "ownerDID",
          "type": "string"
        },
        {
          "internalType": "string",
          "name": "manifestCID",
          "type": "string"
        },
        {
          "internalType": "bytes32",
          "name": "manifestHash",
          "type": "bytes32"
        },
        {
          "internalType": "string",
          "name": "releasePolicyId",
          "type": "string"
        }
      ],
      "name": "registerVault",
      "outputs": [],
      "stateMutability": "nonpayable",
      "type": "function"
    },
    {
      "inputs": [
        {
          "internalType": "address",
          "name": "op",
          "type": "address"
        }
      ],
      "name": "removeOperator",
      "outputs": [],
      "stateMutability": "nonpayable",
      "type": "function"
    },
    {
      "inputs": [
        {
          "internalType": "address",
          "name": "_al",
          "type": "address"
        }
      ],
      "name": "setAuditLog",
      "outputs": [],
      "stateMutability": "nonpayable",
      "type": "function"
    },
    {
      "inputs": [
        {
          "internalType": "address",
          "name": "_pe",
          "type": "address"
        }
      ],
      "name": "setPolicyEngine",
      "outputs": [],
      "stateMutability": "nonpayable",
      "type": "function"
    },
    {
      "inputs": [
        {
          "internalType": "string",
          "name": "vaultId",
          "type": "string"
        },
        {
          "internalType": "enum LegacyVaultRegistry.VaultStatus",
          "name": "newStatus",
          "type": "uint8"
        }
      ],
      "name": "setVaultStatus",
      "outputs": [],
      "stateMutability": "nonpayable",
      "type": "function"
    },
    {
      "inputs": [
        {
          "internalType": "address",
          "name": "newOwner",
          "type": "address"
        }
      ],
      "name": "transferOwnership",
      "outputs": [],
      "stateMutability": "nonpayable",
      "type": "function"
    },
    {
      "inputs": [
        {
          "internalType": "string",
          "name": "vaultId",
          "type": "string"
        },
        {
          "internalType": "string",
          "name": "newCID",
          "type": "string"
        },
        {
          "internalType": "bytes32",
          "name": "newHash",
          "type": "bytes32"
        }
      ],
      "name": "updateManifest",
      "outputs": [],
      "stateMutability": "nonpayable",
      "type": "function"
    },
    {
      "inputs": [
        {
          "internalType": "string",
          "name": "vaultId",
          "type": "string"
        }
      ],
      "name": "vaultRegistered",
      "outputs": [
        {
          "internalType": "bool",
          "name": "",
          "type": "bool"
        }
      ],
      "stateMutability": "view",
      "type": "function"
    }
  ],
  "bytecode": "0x608060405234801561000f575f80fd5b505f80546001600160a01b0319163390811782558152600560205260409020805460ff19166001179055612051806100465f395ff3fe608060405234801561000f575f80fd5b5060043610610106575f3560e01c80636135b0851161009e578063ac8a584a1161006e578063ac8a584a14610245578063c990a21d14610258578063d5ede15014610278578063d706878c1461028b578063f2fde38b1461029e575f80fd5b80636135b085146101fa5780638da5cb5b1461020d578063927399a51461021f5780639870d7fe14610232575f80fd5b806345947bec116100d957806345947bec1461017c5780634649c13f1461019c57806348cd44ac146101af5780635a2d6ebd146101cf575f80fd5b8063015929381461010a578063039943731461011f57806313e7c9d8146101325780632c587d3614610169575b5f80fd5b61011d61011836600461188c565b6102b1565b005b61011d61012d366004611952565b610663565b6101546101403660046119a8565b60056020525f908152604090205460ff1681565b60405190151581526020015b60405180910390f35b61011d6101773660046119d5565b610864565b61018f61018a366004611a43565b6109e4565b6040516101609190611b03565b6101546101aa366004611a43565b610d20565b6101c26101bd366004611a43565b610d7f565b6040516101609190611bcf565b6002546101e2906001600160a01b031681565b6040516001600160a01b039091168152602001610160565b61011d6102083660046119a8565b610fde565b5f546101e2906001600160a01b031681565b6001546101e2906001600160a01b031681565b61011d6102403660046119a8565b611029565b61011d6102533660046119a8565b61109d565b61026b610266366004611a43565b61110e565b6040516101609190611c74565b61011d6102863660046119a8565b61119c565b61011d6102993660046119d5565b6111e7565b61011d6102ac3660046119a8565b6113db565b335f9081526005602052604090205460ff16806102d757505f546001600160a01b031633145b6102fc5760405162461bcd60e51b81526004016102f390611c82565b60405180910390fd5b5f61033b8a8a8080601f0160208091040260200160405190810160405280939291908181526020018383808284375f9201919091525061146f92505050565b5f8181526003602052604090206008015490915060ff161561039f5760405162461bcd60e51b815260206004820152601d60248201527f4c56523a207661756c7420616c7265616479207265676973746572656400000060448201526064016102f3565b6040518061012001604052808b8b8080601f0160208091040260200160405190810160405280939291908181526020018383808284375f92019190915250505090825250604080516020601f8c018190048102820181019092528a815291810191908b908b90819084018382808284375f92019190915250505090825250604080516020601f8a01819004810282018101909252888152918101919089908990819084018382808284375f92019190915250505090825250602080820187905260408051601f870183900483028101830182528681529201919086908690819084018382808284375f9201829052509385525050506020808301829052426040808501829052606085019190915260016080909401939093528482526003905220815181906104ce9082611d45565b50602082015160018201906104e39082611d45565b50604082015160028201906104f89082611d45565b5060608201516003820155608082015160048201906105179082611d45565b5060a0820151816005015f6101000a81548160ff0219169083600581111561054157610541611acf565b021790555060c0820151600682015560e08201516007820155610100909101516008909101805460ff1916911515919091179055604080516020601f8c018190048102820181019092528a81526105fe918c908c90819084018382808284375f9201919091525050604080518082018252600c81526b15985d5b1d10dc99585d195960a21b60208083019190915291519093506105e392508d918d9101611e05565b6040516020818303038152906040528051906020012061149e565b898960405161060e929190611e05565b60405180910390207f8c49dace131724468521c15ea35db57c1e21d5e48c48a2885116a96e184d7b5d89898989894260405161064f96959493929190611e3c565b60405180910390a250505050505050505050565b335f9081526005602052604090205460ff168061068957505f546001600160a01b031633145b6106a55760405162461bcd60e51b81526004016102f390611c82565b828260035f6106e884848080601f0160208091040260200160405190810160405280939291908181526020018383808284375f9201919091525061146f92505050565b815260208101919091526040015f206008015460ff1661071a5760405162461bcd60e51b81526004016102f390611e78565b5f61075986868080601f0160208091040260200160405190810160405280939291908181526020018383808284375f9201919091525061146f92505050565b5f81815260036020526040902060058101549192509060ff1661077c8187611542565b85826005015f6101000a81548160ff021916908360058111156107a1576107a1611acf565b0217905550426007830155604080516020601f8a01819004810282018101909252888152610805918a908a90819084018382808284375f920191909152506107ee92508a915061162d9050565b88600581111561080057610800611acf565b61149e565b8787604051610815929190611e05565b60405180910390207fa97e3dee3f75f64fdafd8a57c0e1fe16d16f93074a3231f2c96b32a6ba49023d828833426040516108529493929190611ea6565b60405180910390a25050505050505050565b335f9081526005602052604090205460ff168061088a57505f546001600160a01b031633145b6108a65760405162461bcd60e51b81526004016102f390611c82565b848460035f6108e984848080601f0160208091040260200160405190810160405280939291908181526020018383808284375f9201919091525061146f92505050565b815260208101919091526040015f206008015460ff1661091b5760405162461bcd60e51b81526004016102f390611e78565b61098487878080601f0160208091040260200160405190810160405280939291908181526020018383808284375f9201919091525050604080518082019091526012815271105d591a5d115d995b9d105b98da1bdc995960721b6020820152915086905061149e565b8686604051610994929190611e05565b60405180910390207f472d2ae1e9f3c26807af1d0e04dc0dd49b2ef4d60fc1f841c9ffa42d04e363cb86868643426040516109d3959493929190611edc565b60405180910390a250505050505050565b6109ec6117ea565b5f610a2b84848080601f0160208091040260200160405190810160405280939291908181526020018383808284375f9201919091525061146f92505050565b5f8181526003602052604090206008015490915060ff16610a5e5760405162461bcd60e51b81526004016102f390611e78565b5f818152600360205260409081902081516101208101909252805482908290610a8690611cc1565b80601f0160208091040260200160405190810160405280929190818152602001828054610ab290611cc1565b8015610afd5780601f10610ad457610100808354040283529160200191610afd565b820191905f5260205f20905b815481529060010190602001808311610ae057829003601f168201915b50505050508152602001600182018054610b1690611cc1565b80601f0160208091040260200160405190810160405280929190818152602001828054610b4290611cc1565b8015610b8d5780601f10610b6457610100808354040283529160200191610b8d565b820191905f5260205f20905b815481529060010190602001808311610b7057829003601f168201915b50505050508152602001600282018054610ba690611cc1565b80601f0160208091040260200160405190810160405280929190818152602001828054610bd290611cc1565b8015610c1d5780601f10610bf457610100808354040283529160200191610c1d565b820191905f5260205f20905b815481529060010190602001808311610c0057829003601f168201915b5050505050815260200160038201548152602001600482018054610c4090611cc1565b80601f0160208091040260200160405190810160405280929190818152602001828054610c6c90611cc1565b8015610cb75780601f10610c8e57610100808354040283529160200191610cb7565b820191905f5260205f20905b815481529060010190602001808311610c9a57829003601f168201915b505050918352505060058281015460209092019160ff1690811115610cde57610cde611acf565b6005811115610cef57610cef611acf565b8152600682015460208201526007820154604082015260089091015460ff1615156060909101529150505b92915050565b5f60035f610d6285858080601f0160208091040260200160405190810160405280939291908181526020018383808284375f9201919091525061146f92505050565b815260208101919091526040015f206008015460ff169392505050565b6060828260035f610dc484848080601f0160208091040260200160405190810160405280939291908181526020018383808284375f9201919091525061146f92505050565b815260208101919091526040015f206008015460ff16610df65760405162461bcd60e51b81526004016102f390611e78565b60045f610e3787878080601f0160208091040260200160405190810160405280939291908181526020018383808284375f9201919091525061146f92505050565b81526020019081526020015f20805480602002602001604051908101604052809291908181526020015f905b82821015610fd0578382905f5260205f2090600502016040518060a00160405290815f82018054610e9390611cc1565b80601f0160208091040260200160405190810160405280929190818152602001828054610ebf90611cc1565b8015610f0a5780601f10610ee157610100808354040283529160200191610f0a565b820191905f5260205f20905b815481529060010190602001808311610eed57829003601f168201915b50505050508152602001600182018054610f2390611cc1565b80601f0160208091040260200160405190810160405280929190818152602001828054610f4f90611cc1565b8015610f9a5780601f10610f7157610100808354040283529160200191610f9a565b820191905f5260205f20905b815481529060010190602001808311610f7d57829003601f168201915b50505050508152602001600282015481526020016003820154815260200160048201548152505081526020019060010190610e63565b505050509250505092915050565b5f546001600160a01b031633146110075760405162461bcd60e51b81526004016102f390611f0c565b600180546001600160a01b0319166001600160a01b0392909216919091179055565b5f546001600160a01b031633146110525760405162461bcd60e51b81526004016102f390611f0c565b6001600160a01b0381165f81815260056020526040808220805460ff19166001179055517fac6fa858e9350a46cec16539926e0fde25b7629f84b5a72bffaae4df888ae86d9190a250565b5f546001600160a01b031633146110c65760405162461bcd60e51b81526004016102f390611f0c565b6001600160a01b0381165f81815260056020526040808220805460ff19169055517f80c0b871b97b595b16a7741c1b06fed0c6f6f558639f18ccbce50724325dc40d9190a250565b5f8061114e84848080601f0160208091040260200160405190810160405280939291908181526020018383808284375f9201919091525061146f92505050565b5f8181526003602052604090206008015490915060ff166111815760405162461bcd60e51b81526004016102f390611e78565b5f9081526003602052604090206005015460ff169392505050565b5f546001600160a01b031633146111c55760405162461bcd60e51b81526004016102f390611f0c565b600280546001600160a01b0319166001600160a01b0392909216919091179055565b335f9081526005602052604090205460ff168061120d57505f546001600160a01b031633145b6112295760405162461bcd60e51b81526004016102f390611c82565b848460035f61126c84848080601f0160208091040260200160405190810160405280939291908181526020018383808284375f9201919091525061146f92505050565b815260208101919091526040015f206008015460ff1661129e5760405162461bcd60e51b81526004016102f390611e78565b5f6112dd88888080601f0160208091040260200160405190810160405280939291908181526020018383808284375f9201919091525061146f92505050565b5f818152600360205260409020909150600281016112fc878983611f34565b50600381018590554260078201555f82815260046020908152604091829020548251601f8c018390048302810183019093528a83529161138c918c908c90819084018382808284375f9201919091525050604080518082018252600f81526e13585b9a59995cdd155c19185d1959608a1b60208083019190915291519093506105e392508d918d918d9101611fee565b898960405161139c929190611e05565b60405180910390207fb0728fd28eb31856ec786225554918a95641e3c5090077dc34e6884fb16023bc898989854260405161064f959493929190611edc565b5f546001600160a01b031633146114045760405162461bcd60e51b81526004016102f390611f0c565b6001600160a01b03811661144e5760405162461bcd60e51b81526020600482015260116024820152704c56523a207a65726f206164647265737360781b60448201526064016102f3565b5f80546001600160a01b0319166001600160a01b0392909216919091179055565b5f816040516020016114819190612000565b604051602081830303815290604052805190602001209050919050565b5f6114a88461146f565b5f818152600460209081526040808320815160a0810183528881528084018a90529182018790524360608301524260808301528054600181018255908452919092208251939450919260059091029091019081906115069082611d45565b506020820151600182019061151b9082611d45565b50604082015181600201556060820151816003015560808201518160040155505050505050565b600582600581111561155657611556611acf565b0361159a5760405162461bcd60e51b81526020600482015260146024820152731315948e881d985d5b1d081a5cc81b1bd8dad95960621b60448201526064016102f3565b60038260058111156115ae576115ae611acf565b1415806115cc575060058160058111156115ca576115ca611acf565b145b6116295760405162461bcd60e51b815260206004820152602860248201527f4c56523a2072656c6561736564207661756c742063616e6e6f74206368616e67604482015267652073746174757360c01b60648201526084016102f3565b5050565b60605f82600581111561164257611642611acf565b0361167057505060408051808201909152600d81526c15985d5b1d155b9b1bd8dad959609a1b602082015290565b600182600581111561168457611684611acf565b036116b557505060408051808201909152601081526f14995b19585cd954995c5d595cdd195960821b602082015290565b60028260058111156116c9576116c9611acf565b036116fb57505060408051808201909152601181527011dd585c991a585b945d5bdc9d5b53595d607a1b602082015290565b600382600581111561170f5761170f611acf565b0361173f57505060408051808201909152600f81526e14995b19585cd9505c1c1c9bdd9959608a1b602082015290565b600482600581111561175357611753611acf565b0361178157505060408051808201909152600d81526c111a5cdc1d5d1953dc195b9959609a1b602082015290565b600582600581111561179557611795611acf565b036117c157505060408051808201909152600b81526a15985d5b1d131bd8dad95960aa1b602082015290565b505060408051808201909152600d81526c556e6b6e6f776e53746174757360981b602082015290565b6040518061012001604052806060815260200160608152602001606081526020015f8019168152602001606081526020015f600581111561182d5761182d611acf565b81526020015f81526020015f81526020015f151581525090565b5f8083601f840112611857575f80fd5b50813567ffffffffffffffff81111561186e575f80fd5b602083019150836020828501011115611885575f80fd5b9250929050565b5f805f805f805f805f60a08a8c0312156118a4575f80fd5b893567ffffffffffffffff808211156118bb575f80fd5b6118c78d838e01611847565b909b50995060208c01359150808211156118df575f80fd5b6118eb8d838e01611847565b909950975060408c0135915080821115611903575f80fd5b61190f8d838e01611847565b909750955060608c0135945060808c013591508082111561192e575f80fd5b5061193b8c828d01611847565b915080935050809150509295985092959850929598565b5f805f60408486031215611964575f80fd5b833567ffffffffffffffff81111561197a575f80fd5b61198686828701611847565b90945092505060208401356006811061199d575f80fd5b809150509250925092565b5f602082840312156119b8575f80fd5b81356001600160a01b03811681146119ce575f80fd5b9392505050565b5f805f805f606086880312156119e9575f80fd5b853567ffffffffffffffff80821115611a00575f80fd5b611a0c89838a01611847565b90975095506020880135915080821115611a24575f80fd5b50611a3188828901611847565b96999598509660400135949350505050565b5f8060208385031215611a54575f80fd5b823567ffffffffffffffff811115611a6a575f80fd5b611a7685828601611847565b90969095509350505050565b5f5b83811015611a9c578181015183820152602001611a84565b50505f910152565b5f8151808452611abb816020860160208601611a82565b601f01601f19169290920160200192915050565b634e487b7160e01b5f52602160045260245ffd5b60068110611aff57634e487b7160e01b5f52602160045260245ffd5b9052565b602081525f8251610120806020850152611b21610140850183611aa4565b91506020850151601f1980868503016040870152611b3f8483611aa4565b93506040870151915080868503016060870152611b5c8483611aa4565b93506060870151608087015260808701519150808685030160a087015250611b848382611aa4565b92505060a0850151611b9960c0860182611ae3565b5060c085015160e085015260e0850151610100818187015280870151915050611bc58286018215159052565b5090949350505050565b5f60208083018184528085518083526040925060408601915060408160051b8701018488015f5b83811015611c6657603f19898403018552815160a08151818652611c1c82870182611aa4565b915050888201518582038a870152611c348282611aa4565b838a0151878b015260608085015190880152608093840151939096019290925250509386019390860190600101611bf6565b509098975050505050505050565b60208101610d1a8284611ae3565b602080825260119082015270262b291d103737ba1037b832b930ba37b960791b604082015260600190565b634e487b7160e01b5f52604160045260245ffd5b600181811c90821680611cd557607f821691505b602082108103611cf357634e487b7160e01b5f52602260045260245ffd5b50919050565b601f821115611d4057805f5260205f20601f840160051c81016020851015611d1e5750805b601f840160051c820191505b81811015611d3d575f8155600101611d2a565b50505b505050565b815167ffffffffffffffff811115611d5f57611d5f611cad565b611d7381611d6d8454611cc1565b84611cf9565b602080601f831160018114611da6575f8415611d8f5750858301515b5f19600386901b1c1916600185901b178555611dfd565b5f85815260208120601f198616915b82811015611dd457888601518255948401946001909101908401611db5565b5085821015611df157878501515f19600388901b60f8161c191681555b505060018460011b0185555b505050505050565b818382375f9101908152919050565b81835281816020850137505f828201602090810191909152601f909101601f19169091010190565b608081525f611e4f60808301888a611e14565b8281036020840152611e62818789611e14565b6040840195909552505060600152949350505050565b6020808252601490820152731315948e881d985d5b1d081b9bdd08199bdd5b9960621b604082015260600190565b60808101611eb48287611ae3565b611ec16020830186611ae3565b6001600160a01b039390931660408201526060015292915050565b608081525f611eef608083018789611e14565b602083019590955250604081019290925260609091015292915050565b6020808252600e908201526d262b291d103737ba1037bbb732b960911b604082015260600190565b67ffffffffffffffff831115611f4c57611f4c611cad565b611f6083611f5a8354611cc1565b83611cf9565b5f601f841160018114611f91575f8515611f7a5750838201355b5f19600387901b1c1916600186901b178355611d3d565b5f83815260208120601f198716915b82811015611fc05786850135825560209485019460019092019101611fa0565b5086821015611fdc575f1960f88860031b161c19848701351681555b505060018560011b0183555050505050565b82848237909101908152602001919050565b5f8251612011818460208701611a82565b919091019291505056fea264697066735822122021f019ed174a76c974d6d4344552263f2c29254b8096c549f96f9b730576660264736f6c63430008180033",
  "linkReferences": {},
  "deployedLinkReferences": {}
}