{
  "_format": "hh-sol-artifact-1",
  "contractName": "LegacySoulboundRoute",
  "sourceName": "src/LegacySoulboundRoute.sol",
  "abi": [
    {
      "inputs": [],
      "stateMutability": "nonpayable",
      "type": "constructor"
    },
    {
      "inputs": [
        {
          "internalType": "address",
          "name": "sender",
          "type": "address"
        },
        {
          "internalType": "uint256",
          "name": "tokenId",
          "type": "uint256"
        },
        {
          "internalType": "address",
          "name": "owner",
          "type": "address"
        }
      ],
      "name": "ERC721IncorrectOwner",
      "type": "error"
    },
    {
      "inputs": [
        {
          "internalType": "address",
          "name": "operator",
          "type": "address"
        },
        {
          "internalType": "uint256",
          "name": "tokenId",
          "type": "uint256"
        }
      ],
      "name": "ERC721InsufficientApproval",
      "type": "error"
    },
    {
      "inputs": [
        {
          "internalType": "address",
          "name": "approver",
          "type": "address"
        }
      ],
      "name": "ERC721InvalidApprover",
      "type": "error"
    },
    {
      "inputs": [
        {
          "internalType": "address",
          "name": "operator",
          "type": "address"
        }
      ],
      "name": "ERC721InvalidOperator",
      "type": "error"
    },
    {
      "inputs": [
        {
          "internalType": "address",
          "name": "owner",
          "type": "address"
        }
      ],
      "name": "ERC721InvalidOwner",
      "type": "error"
    },
    {
      "inputs": [
        {
          "internalType": "address",
          "name": "receiver",
          "type": "address"
        }
      ],
      "name": "ERC721InvalidReceiver",
      "type": "error"
    },
    {
      "inputs": [
        {
          "internalType": "address",
          "name": "sender",
          "type": "address"
        }
      ],
      "name": "ERC721InvalidSender",
      "type": "error"
    },
    {
      "inputs": [
        {
          "internalType": "uint256",
          "name": "tokenId",
          "type": "uint256"
        }
      ],
      "name": "ERC721NonexistentToken",
      "type": "error"
    },
    {
      "inputs": [
        {
          "internalType": "address",
          "name": "owner",
          "type": "address"
        }
      ],
      "name": "OwnableInvalidOwner",
      "type": "error"
    },
    {
      "inputs": [
        {
          "internalType": "address",
          "name": "account",
          "type": "address"
        }
      ],
      "name": "OwnableUnauthorizedAccount",
      "type": "error"
    },
    {
      "anonymous": false,
      "inputs": [
        {
          "indexed": true,
          "internalType": "address",
          "name": "owner",
          "type": "address"
        },
        {
          "indexed": true,
          "internalType": "address",
          "name": "approved",
          "type": "address"
        },
        {
          "indexed": true,
          "internalType": "uint256",
          "name": "tokenId",
          "type": "uint256"
        }
      ],
      "name": "Approval",
      "type": "event"
    },
    {
      "anonymous": false,
      "inputs": [
        {
          "indexed": true,
          "internalType": "address",
          "name": "owner",
          "type": "address"
        },
        {
          "indexed": true,
          "internalType": "address",
          "name": "operator",
          "type": "address"
        },
        {
          "indexed": false,
          "internalType": "bool",
          "name": "approved",
          "type": "bool"
        }
      ],
      "name": "ApprovalForAll",
      "type": "event"
    },
    {
      "anonymous": false,
      "inputs": [
        {
          "indexed": false,
          "internalType": "uint256",
          "name": "_fromTokenId",
          "type": "uint256"
        },
        {
          "indexed": false,
          "internalType": "uint256",
          "name": "_toTokenId",
          "type": "uint256"
        }
      ],
      "name": "BatchMetadataUpdate",
      "type": "event"
    },
    {
      "anonymous": false,
      "inputs": [
        {
          "indexed": false,
          "internalType": "uint256",
          "name": "tokenId",
          "type": "uint256"
        }
      ],
      "name": "Locked",
      "type": "event"
    },
    {
      "anonymous": false,
      "inputs": [
        {
          "indexed": false,
          "internalType": "uint256",
          "name": "_tokenId",
          "type": "uint256"
        }
      ],
      "name": "MetadataUpdate",
      "type": "event"
    },
    {
      "anonymous": false,
      "inputs": [
        {
          "indexed": true,
          "internalType": "address",
          "name": "previousOwner",
          "type": "address"
        },
        {
          "indexed": true,
          "internalType": "address",
          "name": "newOwner",
          "type": "address"
        }
      ],
      "name": "OwnershipTransferred",
      "type": "event"
    },
    {
      "anonymous": false,
      "inputs": [
        {
          "indexed": true,
          "internalType": "address",
          "name": "from",
          "type": "address"
        },
        {
          "indexed": true,
          "internalType": "address",
          "name": "to",
          "type": "address"
        },
        {
          "indexed": true,
          "internalType": "uint256",
          "name": "tokenId",
          "type": "uint256"
        }
      ],
      "name": "Transfer",
      "type": "event"
    },
    {
      "anonymous": false,
      "inputs": [
        {
          "indexed": false,
          "internalType": "uint256",
          "name": "tokenId",
          "type": "uint256"
        }
      ],
      "name": "Unlocked",
      "type": "event"
    },
    {
      "inputs": [
        {
          "internalType": "address",
          "name": "to",
          "type": "address"
        },
        {
          "internalType": "uint256",
          "name": "tokenId",
          "type": "uint256"
        }
      ],
      "name": "approve",
      "outputs": [],
      "stateMutability": "nonpayable",
      "type": "function"
    },
    {
      "inputs": [
        {
          "internalType": "address",
          "name": "owner",
          "type": "address"
        }
      ],
      "name": "balanceOf",
      "outputs": [
        {
          "internalType": "uint256",
          "name": "",
          "type": "uint256"
        }
      ],
      "stateMutability": "view",
      "type": "function"
    },
    {
      "inputs": [
        {
          "internalType": "uint256",
          "name": "tokenId",
          "type": "uint256"
        }
      ],
      "name": "getApproved",
      "outputs": [
        {
          "internalType": "address",
          "name": "",
          "type": "address"
        }
      ],
      "stateMutability": "view",
      "type": "function"
    },
    {
      "inputs": [
        {
          "internalType": "string",
          "name": "label",
          "type": "string"
        }
      ],
      "name": "getRouteByLabel",
      "outputs": [
        {
          "internalType": "uint256",
          "name": "",
          "type": "uint256"
        },
        {
          "components": [
            {
              "internalType": "string",
              "name": "label",
              "type": "string"
            },
            {
              "internalType": "string",
              "name": "ipfsMetadataCID",
              "type": "string"
            },
            {
              "internalType": "uint256",
              "name": "registeredAt",
              "type": "uint256"
            },
            {
              "internalType": "string",
              "name": "stellarTarget",
              "type": "string"
            },
            {
              "internalType": "string",
              "name": "solanaTarget",
              "type": "string"
            }
          ],
          "internalType": "struct LegacySoulboundRoute.RouteDetails",
          "name": "",
          "type": "tuple"
        }
      ],
      "stateMutability": "view",
      "type": "function"
    },
    {
      "inputs": [
        {
          "internalType": "uint256",
          "name": "tokenId",
          "type": "uint256"
        }
      ],
      "name": "getRouteDetails",
      "outputs": [
        {
          "components": [
            {
              "internalType": "string",
              "name": "label",
              "type": "string"
            },
            {
              "internalType": "string",
              "name": "ipfsMetadataCID",
              "type": "string"
            },
            {
              "internalType": "uint256",
              "name": "registeredAt",
              "type": "uint256"
            },
            {
              "internalType": "string",
              "name": "stellarTarget",
              "type": "string"
            },
            {
              "internalType": "string",
              "name": "solanaTarget",
              "type": "string"
            }
          ],
          "internalType": "struct LegacySoulboundRoute.RouteDetails",
          "name": "",
          "type": "tuple"
        }
      ],
      "stateMutability": "view",
      "type": "function"
    },
    {
      "inputs": [
        {
          "internalType": "address",
          "name": "owner",
          "type": "address"
        },
        {
          "internalType": "address",
          "name": "operator",
          "type": "address"
        }
      ],
      "name": "isApprovedForAll",
      "outputs": [
        {
          "internalType": "bool",
          "name": "",
          "type": "bool"
        }
      ],
      "stateMutability": "view",
      "type": "function"
    },
    {
      "inputs": [
        {
          "internalType": "uint256",
          "name": "tokenId",
          "type": "uint256"
        }
      ],
      "name": "locked",
      "outputs": [
        {
          "internalType": "bool",
          "name": "",
          "type": "bool"
        }
      ],
      "stateMutability": "view",
      "type": "function"
    },
    {
      "inputs": [
        {
          "internalType": "address",
          "name": "to",
          "type": "address"
        },
        {
          "internalType": "string",
          "name": "label",
          "type": "string"
        },
        {
          "internalType": "string",
          "name": "tokenURI",
          "type": "string"
        },
        {
          "internalType": "string",
          "name": "ipfsMetadataCID",
          "type": "string"
        },
        {
          "internalType": "string",
          "name": "stellarTarget",
          "type": "string"
        },
        {
          "internalType": "string",
          "name": "solanaTarget",
          "type": "string"
        }
      ],
      "name": "mintRoute",
      "outputs": [
        {
          "internalType": "uint256",
          "name": "",
          "type": "uint256"
        }
      ],
      "stateMutability": "nonpayable",
      "type": "function"
    },
    {
      "inputs": [],
      "name": "name",
      "outputs": [
        {
          "internalType": "string",
          "name": "",
          "type": "string"
        }
      ],
      "stateMutability": "view",
      "type": "function"
    },
    {
      "inputs": [],
      "name": "owner",
      "outputs": [
        {
          "internalType": "address",
          "name": "",
          "type": "address"
        }
      ],
      "stateMutability": "view",
      "type": "function"
    },
    {
      "inputs": [
        {
          "internalType": "uint256",
          "name": "tokenId",
          "type": "uint256"
        }
      ],
      "name": "ownerOf",
      "outputs": [
        {
          "internalType": "address",
          "name": "",
          "type": "address"
        }
      ],
      "stateMutability": "view",
      "type": "function"
    },
    {
      "inputs": [],
      "name": "renounceOwnership",
      "outputs": [],
      "stateMutability": "nonpayable",
      "type": "function"
    },
    {
      "inputs": [
        {
          "internalType": "address",
          "name": "from",
          "type": "address"
        },
        {
          "internalType": "address",
          "name": "to",
          "type": "address"
        },
        {
          "internalType": "uint256",
          "name": "tokenId",
          "type": "uint256"
        }
      ],
      "name": "safeTransferFrom",
      "outputs": [],
      "stateMutability": "nonpayable",
      "type": "function"
    },
    {
      "inputs": [
        {
          "internalType": "address",
          "name": "from",
          "type": "address"
        },
        {
          "internalType": "address",
          "name": "to",
          "type": "address"
        },
        {
          "internalType": "uint256",
          "name": "tokenId",
          "type": "uint256"
        },
        {
          "internalType": "bytes",
          "name": "data",
          "type": "bytes"
        }
      ],
      "name": "safeTransferFrom",
      "outputs": [],
      "stateMutability": "nonpayable",
      "type": "function"
    },
    {
      "inputs": [
        {
          "internalType": "address",
          "name": "operator",
          "type": "address"
        },
        {
          "internalType": "bool",
          "name": "approved",
          "type": "bool"
        }
      ],
      "name": "setApprovalForAll",
      "outputs": [],
      "stateMutability": "nonpayable",
      "type": "function"
    },
    {
      "inputs": [
        {
          "internalType": "bytes4",
          "name": "interfaceId",
          "type": "bytes4"
        }
      ],
      "name": "supportsInterface",
      "outputs": [
        {
          "internalType": "bool",
          "name": "",
          "type": "bool"
        }
      ],
      "stateMutability": "view",
      "type": "function"
    },
    {
      "inputs": [],
      "name": "symbol",
      "outputs": [
        {
          "internalType": "string",
          "name": "",
          "type": "string"
        }
      ],
      "stateMutability": "view",
      "type": "function"
    },
    {
      "inputs": [
        {
          "internalType": "uint256",
          "name": "tokenId",
          "type": "uint256"
        }
      ],
      "name": "tokenURI",
      "outputs": [
        {
          "internalType": "string",
          "name": "",
          "type": "string"
        }
      ],
      "stateMutability": "view",
      "type": "function"
    },
    {
      "inputs": [
        {
          "internalType": "address",
          "name": "from",
          "type": "address"
        },
        {
          "internalType": "address",
          "name": "to",
          "type": "address"
        },
        {
          "internalType": "uint256",
          "name": "tokenId",
          "type": "uint256"
        }
      ],
      "name": "transferFrom",
      "outputs": [],
      "stateMutability": "nonpayable",
      "type": "function"
    },
    {
      "inputs": [
        {
          "internalType": "address",
          "name": "newOwner",
          "type": "address"
        }
      ],
      "name": "transferOwnership",
      "outputs": [],
      "stateMutability": "nonpayable",
      "type": "function"
    }
  ],
  "bytecode": "0x608060405234801562000010575f80fd5b50336040518060400160405280601681526020017f4c656761637920536f756c626f756e6420526f75746500000000000000000000815250604051806040016040528060038152602001622629a960e91b815250815f9081620000749190620001b5565b506001620000838282620001b5565b5050506001600160a01b038116620000b457604051631e4fbdf760e01b81525f600482015260240160405180910390fd5b620000bf81620000c6565b5062000281565b600780546001600160a01b038381166001600160a01b0319831681179093556040519116919082907f8be0079c531659141344cd1fd0a4f28419497f9722a3daafe3b4186f6b6457e0905f90a35050565b634e487b7160e01b5f52604160045260245ffd5b600181811c908216806200014057607f821691505b6020821081036200015f57634e487b7160e01b5f52602260045260245ffd5b50919050565b601f821115620001b057805f5260205f20601f840160051c810160208510156200018c5750805b601f840160051c820191505b81811015620001ad575f815560010162000198565b50505b505050565b81516001600160401b03811115620001d157620001d162000117565b620001e981620001e284546200012b565b8462000165565b602080601f8311600181146200021f575f8415620002075750858301515b5f19600386901b1c1916600185901b17855562000279565b5f85815260208120601f198616915b828110156200024f578886015182559484019460019091019084016200022e565b50858210156200026d57878501515f19600388901b60f8161c191681555b505060018460011b0185555b505050505050565b611f07806200028f5f395ff3fe608060405234801561000f575f80fd5b5060043610610127575f3560e01c80638da5cb5b116100a9578063b45a3c0e1161006e578063b45a3c0e1461028a578063b88d4fde1461029d578063c87b56dd146102b0578063e985e9c5146102c3578063f2fde38b146102d6575f80fd5b80638da5cb5b1461021d5780639283b2cf1461022e57806395d89b411461024e578063a22cb46514610256578063b380330614610269575f80fd5b806342842e0e116100ef57806342842e0e146101bb5780634a245099146101ce5780636352211e146101ef57806370a0823114610202578063715018a614610215575f80fd5b806301ffc9a71461012b57806306fdde0314610153578063081812fc14610168578063095ea7b31461019357806323b872dd146101a8575b5f80fd5b61013e61013936600461185b565b6102e9565b60405190151581526020015b60405180910390f35b61015b610313565b60405161014a91906118c3565b61017b6101763660046118d5565b6103a2565b6040516001600160a01b03909116815260200161014a565b6101a66101a1366004611907565b6103c9565b005b6101a66101b636600461192f565b6103d8565b6101a66101c936600461192f565b610466565b6101e16101dc3660046119a6565b610485565b60405190815260200161014a565b61017b6101fd3660046118d5565b61072e565b6101e1610210366004611aa1565b610738565b6101a661077d565b6007546001600160a01b031661017b565b61024161023c3660046118d5565b610790565b60405161014a9190611b25565b61015b610a33565b6101a6610264366004611b37565b610a42565b61027c610277366004611b70565b610a4d565b60405161014a929190611baf565b61013e6102983660046118d5565b610d79565b6101a66102ab366004611bdb565b610d8c565b61015b6102be3660046118d5565b610da4565b61013e6102d1366004611cb0565b610e25565b6101a66102e4366004611aa1565b610e52565b5f6001600160e01b03198216632483248360e11b148061030d575061030d82610e8f565b92915050565b60605f805461032190611ce1565b80601f016020809104026020016040519081016040528092919081815260200182805461034d90611ce1565b80156103985780601f1061036f57610100808354040283529160200191610398565b820191905f5260205f20905b81548152906001019060200180831161037b57829003601f168201915b5050505050905090565b5f6103ac82610ede565b505f828152600460205260409020546001600160a01b031661030d565b6103d4828233610f16565b5050565b6001600160a01b03821661040657604051633250574960e11b81525f60048201526024015b60405180910390fd5b5f610412838333610f23565b9050836001600160a01b0316816001600160a01b031614610460576040516364283d7b60e01b81526001600160a01b03808616600483015260248201849052821660448201526064016103fd565b50505050565b61048083838360405180602001604052805f815250610d8c565b505050565b5f61048e610fc7565b5f8b8b6040516020016104a2929190611d19565b60408051601f1981840301815291815281516020928301205f8181526009909352912054909150156105165760405162461bcd60e51b815260206004820152601d60248201527f4c53523a20526f75746520616c7265616479207265676973746572656400000060448201526064016103fd565b5f60085f815461052590611d28565b918290555090506105368e82610ff4565b610575818c8c8080601f0160208091040260200160405190810160405280939291908181526020018383808284375f9201919091525061100d92505050565b8060095f8481526020019081526020015f20819055506040518060a001604052808e8e8080601f0160208091040260200160405190810160405280939291908181526020018383808284375f92019190915250505090825250604080516020601f8d018190048102820181019092528b815291810191908c908c90819084018382808284375f920191909152505050908252504260208083019190915260408051601f8b0183900483028101830182528a8152920191908a908a90819084018382808284375f92019190915250505090825250604080516020601f8901819004810282018101909252878152918101919088908890819084018382808284375f920182905250939094525050838152600a602052604090208251909150819061069e9082611d90565b50602082015160018201906106b39082611d90565b5060408201516002820155606082015160038201906106d29082611d90565b50608082015160048201906106e79082611d90565b50506040518281527f032bc66be43dbccb7487781d168eb7bda224628a3b2c3388bdf69b532a3a1611915060200160405180910390a19d9c50505050505050505050505050565b5f61030d82610ede565b5f6001600160a01b038216610762576040516322718ad960e21b81525f60048201526024016103fd565b506001600160a01b03165f9081526003602052604090205490565b610785610fc7565b61078e5f61105c565b565b6107c16040518060a0016040528060608152602001606081526020015f815260200160608152602001606081525090565b6107ca82610ede565b505f828152600a602052604090819020815160a081019092528054829082906107f290611ce1565b80601f016020809104026020016040519081016040528092919081815260200182805461081e90611ce1565b80156108695780601f1061084057610100808354040283529160200191610869565b820191905f5260205f20905b81548152906001019060200180831161084c57829003601f168201915b5050505050815260200160018201805461088290611ce1565b80601f01602080910402602001604051908101604052809291908181526020018280546108ae90611ce1565b80156108f95780601f106108d0576101008083540402835291602001916108f9565b820191905f5260205f20905b8154815290600101906020018083116108dc57829003601f168201915b505050505081526020016002820154815260200160038201805461091c90611ce1565b80601f016020809104026020016040519081016040528092919081815260200182805461094890611ce1565b80156109935780601f1061096a57610100808354040283529160200191610993565b820191905f5260205f20905b81548152906001019060200180831161097657829003601f168201915b505050505081526020016004820180546109ac90611ce1565b80601f01602080910402602001604051908101604052809291908181526020018280546109d890611ce1565b8015610a235780601f106109fa57610100808354040283529160200191610a23565b820191905f5260205f20905b815481529060010190602001808311610a0657829003601f168201915b5050505050815250509050919050565b60606001805461032190611ce1565b6103d43383836110ad565b5f610a7f6040518060a0016040528060608152602001606081526020015f815260200160608152602001606081525090565b5f8484604051602001610a93929190611d19565b60408051601f1981840301815291815281516020928301205f81815260099093529082205490925090819003610b025760405162461bcd60e51b81526020600482015260146024820152731314d48e88149bdd5d19481b9bdd08199bdd5b9960621b60448201526064016103fd565b80600a5f8381526020019081526020015f20806040518060a00160405290815f82018054610b2f90611ce1565b80601f0160208091040260200160405190810160405280929190818152602001828054610b5b90611ce1565b8015610ba65780601f10610b7d57610100808354040283529160200191610ba6565b820191905f5260205f20905b815481529060010190602001808311610b8957829003601f168201915b50505050508152602001600182018054610bbf90611ce1565b80601f0160208091040260200160405190810160405280929190818152602001828054610beb90611ce1565b8015610c365780601f10610c0d57610100808354040283529160200191610c36565b820191905f5260205f20905b815481529060010190602001808311610c1957829003601f168201915b5050505050815260200160028201548152602001600382018054610c5990611ce1565b80601f0160208091040260200160405190810160405280929190818152602001828054610c8590611ce1565b8015610cd05780601f10610ca757610100808354040283529160200191610cd0565b820191905f5260205f20905b815481529060010190602001808311610cb357829003601f168201915b50505050508152602001600482018054610ce990611ce1565b80601f0160208091040260200160405190810160405280929190818152602001828054610d1590611ce1565b8015610d605780601f10610d3757610100808354040283529160200191610d60565b820191905f5260205f20905b815481529060010190602001808311610d4357829003601f168201915b50505050508152505090509350935050505b9250929050565b5f610d8382610ede565b50600192915050565b610d978484846103d8565b6104603385858585611174565b6060610daf82610ede565b505f610dc560408051602081019091525f815290565b90505f610dd18461129c565b905081515f03610de2579392505050565b805115610e14578181604051602001610dfc929190611e4c565b60405160208183030381529060405292505050919050565b610e1d8461133b565b949350505050565b6001600160a01b039182165f90815260056020908152604080832093909416825291909152205460ff1690565b610e5a610fc7565b6001600160a01b038116610e8357604051631e4fbdf760e01b81525f60048201526024016103fd565b610e8c8161105c565b50565b5f6001600160e01b031982166380ac58cd60e01b1480610ebf57506001600160e01b03198216635b5e139f60e01b145b8061030d57506301ffc9a760e01b6001600160e01b031983161461030d565b5f818152600260205260408120546001600160a01b03168061030d57604051637e27328960e01b8152600481018490526024016103fd565b61048083838360016113ac565b5f828152600260205260408120546001600160a01b03168015801590610f5157506001600160a01b03851615155b15610fb35760405162461bcd60e51b815260206004820152602c60248201527f4c53523a20746f6b656e20697320736f756c626f756e6420616e64206e6f6e2d60448201526b7472616e7366657261626c6560a01b60648201526084016103fd565b610fbe8585856114b0565b95945050505050565b6007546001600160a01b0316331461078e5760405163118cdaa760e01b81523360048201526024016103fd565b6103d4828260405180602001604052805f8152506115a2565b5f8281526006602052604090206110248282611d90565b506040518281527ff8e1a15aba9398e019f0b49df1a4fde98ee17ae345cb5f6b5e2c27f5033e8ce79060200160405180910390a15050565b600780546001600160a01b038381166001600160a01b0319831681179093556040519116919082907f8be0079c531659141344cd1fd0a4f28419497f9722a3daafe3b4186f6b6457e0905f90a35050565b6001600160a01b0383166110d65760405163a9fbf51f60e01b81525f60048201526024016103fd565b6001600160a01b03821661110857604051630b61174360e31b81526001600160a01b03831660048201526024016103fd565b6001600160a01b038381165f81815260056020908152604080832094871680845294825291829020805460ff191686151590811790915591519182527f17307eab39ab6107e8899845ad3d59bd9653f200f220920489ca2b5937696c31910160405180910390a3505050565b6001600160a01b0383163b1561129557604051630a85bd0160e11b81526001600160a01b0384169063150b7a02906111b6908890889087908790600401611e7a565b6020604051808303815f875af19250505080156111f0575060408051601f3d908101601f191682019092526111ed91810190611eb6565b60015b611257573d80801561121d576040519150601f19603f3d011682016040523d82523d5f602084013e611222565b606091505b5080515f0361124f57604051633250574960e11b81526001600160a01b03851660048201526024016103fd565b805160208201fd5b6001600160e01b03198116630a85bd0160e11b1461129357604051633250574960e11b81526001600160a01b03851660048201526024016103fd565b505b5050505050565b5f8181526006602052604090208054606091906112b890611ce1565b80601f01602080910402602001604051908101604052809291908181526020018280546112e490611ce1565b801561132f5780601f106113065761010080835404028352916020019161132f565b820191905f5260205f20905b81548152906001019060200180831161131257829003601f168201915b50505050509050919050565b606061134682610ede565b505f61135c60408051602081019091525f815290565b90505f81511161137a5760405180602001604052805f8152506113a5565b80611384846115b9565b604051602001611395929190611e4c565b6040516020818303038152906040525b9392505050565b80806113c057506001600160a01b03821615155b15611481575f6113cf84610ede565b90506001600160a01b038316158015906113fb5750826001600160a01b0316816001600160a01b031614155b801561140e575061140c8184610e25565b155b156114375760405163a9fbf51f60e01b81526001600160a01b03841660048201526024016103fd565b811561147f5783856001600160a01b0316826001600160a01b03167f8c5be1e5ebec7d5bd14f71427d1e84f3dd0314c0f7b2291e5b200ac8c7c3b92560405160405180910390a45b505b50505f90815260046020526040902080546001600160a01b0319166001600160a01b0392909216919091179055565b5f828152600260205260408120546001600160a01b03908116908316156114dc576114dc818486611649565b6001600160a01b03811615611516576114f75f855f806113ac565b6001600160a01b0381165f90815260036020526040902080545f190190555b6001600160a01b03851615611544576001600160a01b0385165f908152600360205260409020805460010190555b5f8481526002602052604080822080546001600160a01b0319166001600160a01b0389811691821790925591518793918516917fddf252ad1be2c89b69c2b068fc378daa952ba7f163c4a11628f55a4df523b3ef91a4949350505050565b6115ac83836116ad565b610480335f858585611174565b60605f6115c58361170e565b60010190505f8167ffffffffffffffff8111156115e4576115e4611bc7565b6040519080825280601f01601f19166020018201604052801561160e576020820181803683370190505b5090508181016020015b5f19016f181899199a1a9b1b9c1cb0b131b232b360811b600a86061a8153600a850494508461161857509392505050565b6116548383836117e5565b610480576001600160a01b03831661168257604051637e27328960e01b8152600481018290526024016103fd565b60405163177e802f60e01b81526001600160a01b0383166004820152602481018290526044016103fd565b6001600160a01b0382166116d657604051633250574960e11b81525f60048201526024016103fd565b5f6116e283835f610f23565b90506001600160a01b03811615610480576040516339e3563760e11b81525f60048201526024016103fd565b5f8072184f03e93ff9f4daa797ed6e38ed64bf6a1f0160401b831061174c5772184f03e93ff9f4daa797ed6e38ed64bf6a1f0160401b830492506040015b6d04ee2d6d415b85acef81000000008310611778576d04ee2d6d415b85acef8100000000830492506020015b662386f26fc10000831061179657662386f26fc10000830492506010015b6305f5e10083106117ae576305f5e100830492506008015b61271083106117c257612710830492506004015b606483106117d4576064830492506002015b600a831061030d5760010192915050565b5f6001600160a01b03831615801590610e1d5750826001600160a01b0316846001600160a01b0316148061181e575061181e8484610e25565b80610e1d5750505f908152600460205260409020546001600160a01b03908116911614919050565b6001600160e01b031981168114610e8c575f80fd5b5f6020828403121561186b575f80fd5b81356113a581611846565b5f5b83811015611890578181015183820152602001611878565b50505f910152565b5f81518084526118af816020860160208601611876565b601f01601f19169290920160200192915050565b602081525f6113a56020830184611898565b5f602082840312156118e5575f80fd5b5035919050565b80356001600160a01b0381168114611902575f80fd5b919050565b5f8060408385031215611918575f80fd5b611921836118ec565b946020939093013593505050565b5f805f60608486031215611941575f80fd5b61194a846118ec565b9250611958602085016118ec565b9150604084013590509250925092565b5f8083601f840112611978575f80fd5b50813567ffffffffffffffff81111561198f575f80fd5b602083019150836020828501011115610d72575f80fd5b5f805f805f805f805f805f60c08c8e0312156119c0575f80fd5b6119c98c6118ec565b9a5067ffffffffffffffff8060208e013511156119e4575f80fd5b6119f48e60208f01358f01611968565b909b50995060408d0135811015611a09575f80fd5b611a198e60408f01358f01611968565b909950975060608d0135811015611a2e575f80fd5b611a3e8e60608f01358f01611968565b909750955060808d0135811015611a53575f80fd5b611a638e60808f01358f01611968565b909550935060a08d0135811015611a78575f80fd5b50611a898d60a08e01358e01611968565b81935080925050509295989b509295989b9093969950565b5f60208284031215611ab1575f80fd5b6113a5826118ec565b5f815160a08452611ace60a0850182611898565b905060208301518482036020860152611ae78282611898565b9150506040830151604085015260608301518482036060860152611b0b8282611898565b91505060808301518482036080860152610fbe8282611898565b602081525f6113a56020830184611aba565b5f8060408385031215611b48575f80fd5b611b51836118ec565b915060208301358015158114611b65575f80fd5b809150509250929050565b5f8060208385031215611b81575f80fd5b823567ffffffffffffffff811115611b97575f80fd5b611ba385828601611968565b90969095509350505050565b828152604060208201525f610e1d6040830184611aba565b634e487b7160e01b5f52604160045260245ffd5b5f805f8060808587031215611bee575f80fd5b611bf7856118ec565b9350611c05602086016118ec565b925060408501359150606085013567ffffffffffffffff80821115611c28575f80fd5b818701915087601f830112611c3b575f80fd5b813581811115611c4d57611c4d611bc7565b604051601f8201601f19908116603f01168101908382118183101715611c7557611c75611bc7565b816040528281528a6020848701011115611c8d575f80fd5b826020860160208301375f60208483010152809550505050505092959194509250565b5f8060408385031215611cc1575f80fd5b611cca836118ec565b9150611cd8602084016118ec565b90509250929050565b600181811c90821680611cf557607f821691505b602082108103611d1357634e487b7160e01b5f52602260045260245ffd5b50919050565b818382375f9101908152919050565b5f60018201611d4557634e487b7160e01b5f52601160045260245ffd5b5060010190565b601f82111561048057805f5260205f20601f840160051c81016020851015611d715750805b601f840160051c820191505b81811015611295575f8155600101611d7d565b815167ffffffffffffffff811115611daa57611daa611bc7565b611dbe81611db88454611ce1565b84611d4c565b602080601f831160018114611df1575f8415611dda5750858301515b5f19600386901b1c1916600185901b178555611293565b5f85815260208120601f198616915b82811015611e1f57888601518255948401946001909101908401611e00565b5085821015611e3c57878501515f19600388901b60f8161c191681555b5050505050600190811b01905550565b5f8351611e5d818460208801611876565b835190830190611e71818360208801611876565b01949350505050565b6001600160a01b03858116825284166020820152604081018390526080606082018190525f90611eac90830184611898565b9695505050505050565b5f60208284031215611ec6575f80fd5b81516113a58161184656fea2646970667358221220cc6d1b8c752241e8be48af3d3843cf36c35a65eb0274a1c19a826cba551c477464736f6c63430008180033",
  "linkReferences": {},
  "deployedLinkReferences": {}
}