{
  "_format": "hh-sol-artifact-1",
  "contractName": "LegacyAuditLog",
  "sourceName": "src/LegacyAuditLog.sol",
  "abi": [
    {
      "inputs": [],
      "stateMutability": "nonpayable",
      "type": "constructor"
    },
    {
      "anonymous": false,
      "inputs": [
        {
          "indexed": true,
          "internalType": "uint256",
          "name": "id",
          "type": "uint256"
        },
        {
          "indexed": true,
          "internalType": "string",
          "name": "vaultId",
          "type": "string"
        },
        {
          "indexed": false,
          "internalType": "enum LegacyAuditLog.AuditAction",
          "name": "action",
          "type": "uint8"
        },
        {
          "indexed": false,
          "internalType": "bytes32",
          "name": "eventHash",
          "type": "bytes32"
        },
        {
          "indexed": false,
          "internalType": "uint256",
          "name": "timestamp",
          "type": "uint256"
        }
      ],
      "name": "AuditEventRecorded",
      "type": "event"
    },
    {
      "inputs": [
        {
          "internalType": "address",
          "name": "op",
          "type": "address"
        }
      ],
      "name": "addOperator",
      "outputs": [],
      "stateMutability": "nonpayable",
      "type": "function"
    },
    {
      "inputs": [
        {
          "internalType": "uint256",
          "name": "eventId",
          "type": "uint256"
        }
      ],
      "name": "getEvent",
      "outputs": [
        {
          "components": [
            {
              "internalType": "uint256",
              "name": "id",
              "type": "uint256"
            },
            {
              "internalType": "string",
              "name": "vaultId",
              "type": "string"
            },
            {
              "internalType": "string",
              "name": "actorId",
              "type": "string"
            },
            {
              "internalType": "enum LegacyAuditLog.AuditAction",
              "name": "action",
              "type": "uint8"
            },
            {
              "internalType": "bytes32",
              "name": "targetHash",
              "type": "bytes32"
            },
            {
              "internalType": "bytes32",
              "name": "metadataHash",
              "type": "bytes32"
            },
            {
              "internalType": "bytes32",
              "name": "previousHash",
              "type": "bytes32"
            },
            {
              "internalType": "uint256",
              "name": "timestamp",
              "type": "uint256"
            },
            {
              "internalType": "uint256",
              "name": "blockHeight",
              "type": "uint256"
            }
          ],
          "internalType": "struct LegacyAuditLog.AuditEvent",
          "name": "",
          "type": "tuple"
        }
      ],
      "stateMutability": "view",
      "type": "function"
    },
    {
      "inputs": [
        {
          "internalType": "uint256",
          "name": "count",
          "type": "uint256"
        }
      ],
      "name": "getLatestEvents",
      "outputs": [
        {
          "components": [
            {
              "internalType": "uint256",
              "name": "id",
              "type": "uint256"
            },
            {
              "internalType": "string",
              "name": "vaultId",
              "type": "string"
            },
            {
              "internalType": "string",
              "name": "actorId",
              "type": "string"
            },
            {
              "internalType": "enum LegacyAuditLog.AuditAction",
              "name": "action",
              "type": "uint8"
            },
            {
              "internalType": "bytes32",
              "name": "targetHash",
              "type": "bytes32"
            },
            {
              "internalType": "bytes32",
              "name": "metadataHash",
              "type": "bytes32"
            },
            {
              "internalType": "bytes32",
              "name": "previousHash",
              "type": "bytes32"
            },
            {
              "internalType": "uint256",
              "name": "timestamp",
              "type": "uint256"
            },
            {
              "internalType": "uint256",
              "name": "blockHeight",
              "type": "uint256"
            }
          ],
          "internalType": "struct LegacyAuditLog.AuditEvent[]",
          "name": "",
          "type": "tuple[]"
        }
      ],
      "stateMutability": "view",
      "type": "function"
    },
    {
      "inputs": [
        {
          "internalType": "string",
          "name": "vaultId",
          "type": "string"
        }
      ],
      "name": "getVaultEventIds",
      "outputs": [
        {
          "internalType": "uint256[]",
          "name": "",
          "type": "uint256[]"
        }
      ],
      "stateMutability": "view",
      "type": "function"
    },
    {
      "inputs": [],
      "name": "latestHash",
      "outputs": [
        {
          "internalType": "bytes32",
          "name": "",
          "type": "bytes32"
        }
      ],
      "stateMutability": "view",
      "type": "function"
    },
    {
      "inputs": [
        {
          "internalType": "address",
          "name": "",
          "type": "address"
        }
      ],
      "name": "operators",
      "outputs": [
        {
          "internalType": "bool",
          "name": "",
          "type": "bool"
        }
      ],
      "stateMutability": "view",
      "type": "function"
    },
    {
      "inputs": [],
      "name": "owner",
      "outputs": [
        {
          "internalType": "address",
          "name": "",
          "type": "address"
        }
      ],
      "stateMutability": "view",
      "type": "function"
    },
    {
      "inputs": [
        {
          "internalType": "string",
          "name": "vaultId",
          "type": "string"
        },
        {
          "internalType": "string",
          "name": "actorId",
          "type": "string"
        },
        {
          "internalType": "enum LegacyAuditLog.AuditAction",
          "name": "action",
          "type": "uint8"
        },
        {
          "internalType": "bytes32",
          "name": "targetHash",
          "type": "bytes32"
        },
        {
          "internalType": "bytes32",
          "name": "metadataHash",
          "type": "bytes32"
        }
      ],
      "name": "recordEvent",
      "outputs": [
        {
          "internalType": "uint256",
          "name": "eventId",
          "type": "uint256"
        },
        {
          "internalType": "bytes32",
          "name": "eventHash",
          "type": "bytes32"
        }
      ],
      "stateMutability": "nonpayable",
      "type": "function"
    },
    {
      "inputs": [
        {
          "internalType": "address",
          "name": "op",
          "type": "address"
        }
      ],
      "name": "removeOperator",
      "outputs": [],
      "stateMutability": "nonpayable",
      "type": "function"
    },
    {
      "inputs": [],
      "name": "totalEvents",
      "outputs": [
        {
          "internalType": "uint256",
          "name": "",
          "type": "uint256"
        }
      ],
      "stateMutability": "view",
      "type": "function"
    },
    {
      "inputs": [
        {
          "internalType": "address",
          "name": "newOwner",
          "type": "address"
        }
      ],
      "name": "transferOwnership",
      "outputs": [],
      "stateMutability": "nonpayable",
      "type": "function"
    },
    {
      "inputs": [
        {
          "internalType": "uint256",
          "name": "fromId",
          "type": "uint256"
        },
        {
          "internalType": "uint256",
          "name": "toId",
          "type": "uint256"
        }
      ],
      "name": "verifyChain",
      "outputs": [
        {
          "internalType": "bool",
          "name": "valid",
          "type": "bool"
        }
      ],
      "stateMutability": "view",
      "type": "function"
    }
  ],
  "bytecode": "0x608060405234801561000f575f80fd5b505f80546001600160a01b03191633908117825581526001602081905260408220805460ff1916909117905560035561150d8061004b5f395ff3fe608060405234801561000f575f80fd5b50600436106100b1575f3560e01c80639870d7fe1161006e5780639870d7fe1461018d578063ac8a584a146101a2578063ba870686146101b5578063f2fde38b146101be578063f45823d4146101d1578063ff1cee58146101e4575f80fd5b806313e7c9d8146100b557806321e6be3d146100ec5780636d1884e01461010c5780636f17d2581461012c57806380eaee3d146101435780638da5cb5b14610163575b5f80fd5b6100d76100c3366004610e86565b60016020525f908152604090205460ff1681565b60405190151581526020015b60405180910390f35b6100ff6100fa366004610ef8565b61020c565b6040516100e39190610f37565b61011f61011a366004610f7a565b61029d565b6040516100e39190611095565b61013560035481565b6040519081526020016100e3565b610156610151366004610f7a565b6104b1565b6040516100e391906110a7565b5f54610175906001600160a01b031681565b6040516001600160a01b0390911681526020016100e3565b6101a061019b366004610e86565b61071d565b005b6101a06101b0366004610e86565b61076c565b61013560025481565b6101a06101cc366004610e86565b6107b5565b6100d76101df366004611109565b610811565b6101f76101f2366004611129565b610af5565b604080519283526020830191909152016100e3565b606060055f84846040516020016102249291906111bb565b6040516020818303038152906040528051906020012081526020019081526020015f2080548060200260200160405190810160405280929190818152602001828054801561028f57602002820191905f5260205f20905b81548152602001906001019080831161027b575b505050505090505b92915050565b6102a5610e2c565b60025482106102f25760405162461bcd60e51b81526020600482015260146024820152731310530e88195d995b9d081b9bdd08199bdd5b9960621b60448201526064015b60405180910390fd5b60048281548110610305576103056111ca565b905f5260205f209060090201604051806101200160405290815f8201548152602001600182018054610336906111de565b80601f0160208091040260200160405190810160405280929190818152602001828054610362906111de565b80156103ad5780601f10610384576101008083540402835291602001916103ad565b820191905f5260205f20905b81548152906001019060200180831161039057829003601f168201915b505050505081526020016002820180546103c6906111de565b80601f01602080910402602001604051908101604052809291908181526020018280546103f2906111de565b801561043d5780601f106104145761010080835404028352916020019161043d565b820191905f5260205f20905b81548152906001019060200180831161042057829003601f168201915b5050509183525050600382015460209091019060ff16601981111561046457610464610fd4565b601981111561047557610475610fd4565b81526004820154602082015260058201546040820152600682015460608201526007820154608082015260089091015460a09091015292915050565b600254606090808311156104c3578092505b5f8367ffffffffffffffff8111156104dd576104dd611216565b60405190808252806020026020018201604052801561051657816020015b610503610e2c565b8152602001906001900390816104fb5790505b5090505f5b8481101561071557600481610530878661123e565b61053a9190611251565b8154811061054a5761054a6111ca565b905f5260205f209060090201604051806101200160405290815f820154815260200160018201805461057b906111de565b80601f01602080910402602001604051908101604052809291908181526020018280546105a7906111de565b80156105f25780601f106105c9576101008083540402835291602001916105f2565b820191905f5260205f20905b8154815290600101906020018083116105d557829003601f168201915b5050505050815260200160028201805461060b906111de565b80601f0160208091040260200160405190810160405280929190818152602001828054610637906111de565b80156106825780601f1061065957610100808354040283529160200191610682565b820191905f5260205f20905b81548152906001019060200180831161066557829003601f168201915b5050509183525050600382015460209091019060ff1660198111156106a9576106a9610fd4565b60198111156106ba576106ba610fd4565b815260200160048201548152602001600582015481526020016006820154815260200160078201548152602001600882015481525050828281518110610702576107026111ca565b602090810291909101015260010161051b565b509392505050565b5f546001600160a01b031633146107465760405162461bcd60e51b81526004016102e990611264565b6001600160a01b03165f908152600160208190526040909120805460ff19169091179055565b5f546001600160a01b031633146107955760405162461bcd60e51b81526004016102e990611264565b6001600160a01b03165f908152600160205260409020805460ff19169055565b5f546001600160a01b031633146107de5760405162461bcd60e51b81526004016102e990611264565b6001600160a01b0381166107f0575f80fd5b5f80546001600160a01b0319166001600160a01b0392909216919091179055565b5f60025482106108635760405162461bcd60e51b815260206004820152601860248201527f4c414c3a2072616e6765206f7574206f6620626f756e6473000000000000000060448201526064016102e9565b818311156108a85760405162461bcd60e51b81526020600482015260126024820152714c414c3a20696e76616c69642072616e676560701b60448201526064016102e9565b5f6108b4846001611251565b90505b828111610aeb575f60046108cc60018461123e565b815481106108dc576108dc6111ca565b5f91825260209091206009909102015460046108f960018561123e565b81548110610909576109096111ca565b905f5260205f2090600902016001016004600185610927919061123e565b81548110610937576109376111ca565b905f5260205f2090600902016002016004600186610955919061123e565b81548110610965576109656111ca565b5f91825260209091206003600990920201015460ff16601981111561098c5761098c610fd4565b600461099960018861123e565b815481106109a9576109a96111ca565b905f5260205f2090600902016004015460046001886109c8919061123e565b815481106109d8576109d86111ca565b905f5260205f2090600902016005015460046001896109f7919061123e565b81548110610a0757610a076111ca565b905f5260205f20906009020160060154600460018a610a26919061123e565b81548110610a3657610a366111ca565b905f5260205f20906009020160070154600460018b610a55919061123e565b81548110610a6557610a656111ca565b905f5260205f20906009020160080154604051602001610a8d999897969594939291906112fb565b6040516020818303038152906040528051906020012090508060048381548110610ab957610ab96111ca565b905f5260205f2090600902016006015414610ad8575f92505050610297565b5080610ae381611343565b9150506108b7565b5060019392505050565b335f90815260016020526040812054819060ff1680610b1d57505f546001600160a01b031633145b610b5d5760405162461bcd60e51b81526020600482015260116024820152702620a61d103737ba1037b832b930ba37b960791b60448201526064016102e9565b60025491508189898989896019811115610b7957610b79610fd4565b89896003544243604051602001610b9a9b9a9998979695949392919061135b565b6040516020818303038152906040528051906020012090505f6040518061012001604052808481526020018b8b8080601f0160208091040260200160405190810160405280939291908181526020018383808284375f92019190915250505090825250604080516020601f8c018190048102820181019092528a815291810191908b908b90819084018382808284375f92019190915250505090825250602001876019811115610c4c57610c4c610fd4565b815260208082018890526040820187905260035460608301524260808301524360a090920191909152600480546001810182555f91909152825160099091027f8a35acfbc15ff81a39ae7d344fd709f28e8600b4aa8c65c6b64bfe7fe36bd19b810191825591830151929350839290917f8a35acfbc15ff81a39ae7d344fd709f28e8600b4aa8c65c6b64bfe7fe36bd19c0190610ce990826113f8565b5060408201516002820190610cfe90826113f8565b50606082015160038201805460ff19166001836019811115610d2257610d22610fd4565b02179055506080820151600482015560a0820151600582015560c0820151600682015560e08201516007820155610100909101516008909101558815610db25760055f8b8b604051602001610d789291906111bb565b60408051601f19818403018152918152815160209283012083528282019390935291015f9081208054600181018255908252919020018390555b600382905560028054905f610dc683611343565b91905055508989604051610ddb9291906111bb565b6040518091039020837f1a408f18f89bf0159a7445d58b4b2ae0b28e919ef94d62a466c11247a79fc6c1888542604051610e17939291906114b8565b60405180910390a35097509795505050505050565b6040518061012001604052805f815260200160608152602001606081526020015f6019811115610e5e57610e5e610fd4565b81525f6020820181905260408201819052606082018190526080820181905260a09091015290565b5f60208284031215610e96575f80fd5b81356001600160a01b0381168114610eac575f80fd5b9392505050565b5f8083601f840112610ec3575f80fd5b50813567ffffffffffffffff811115610eda575f80fd5b602083019150836020828501011115610ef1575f80fd5b9250929050565b5f8060208385031215610f09575f80fd5b823567ffffffffffffffff811115610f1f575f80fd5b610f2b85828601610eb3565b90969095509350505050565b602080825282518282018190525f9190848201906040850190845b81811015610f6e57835183529284019291840191600101610f52565b50909695505050505050565b5f60208284031215610f8a575f80fd5b5035919050565b5f81518084525f5b81811015610fb557602081850181015186830182015201610f99565b505f602082860101526020601f19601f83011685010191505092915050565b634e487b7160e01b5f52602160045260245ffd5b601a811061100457634e487b7160e01b5f52602160045260245ffd5b9052565b5f61012082518452602083015181602086015261102782860182610f91565b915050604083015184820360408601526110418282610f91565b91505060608301516110566060860182610fe8565b506080830151608085015260a083015160a085015260c083015160c085015260e083015160e08501526101008084015181860152508091505092915050565b602081525f610eac6020830184611008565b5f60208083016020845280855180835260408601915060408160051b8701019250602087015f5b828110156110fc57603f198886030184526110ea858351611008565b945092850192908501906001016110ce565b5092979650505050505050565b5f806040838503121561111a575f80fd5b50508035926020909101359150565b5f805f805f805f60a0888a03121561113f575f80fd5b873567ffffffffffffffff80821115611156575f80fd5b6111628b838c01610eb3565b909950975060208a013591508082111561117a575f80fd5b506111878a828b01610eb3565b9096509450506040880135601a811061119e575f80fd5b969995985093969295946060840135945060809093013592915050565b818382375f9101908152919050565b634e487b7160e01b5f52603260045260245ffd5b600181811c908216806111f257607f821691505b60208210810361121057634e487b7160e01b5f52602260045260245ffd5b50919050565b634e487b7160e01b5f52604160045260245ffd5b634e487b7160e01b5f52601160045260245ffd5b818103818111156102975761029761122a565b808201808211156102975761029761122a565b6020808252600e908201526d2620a61d103737ba1037bbb732b960911b604082015260600190565b5f8154611298816111de565b600182811680156112b057600181146112c5576112f1565b60ff19841687528215158302870194506112f1565b855f526020805f205f5b858110156112e85781548a8201529084019082016112cf565b50505082870194505b5050505092915050565b8981525f61131561130f602084018c61128c565b8a61128c565b9788525050602086019490945260408501929092526060840152608083015260a082015260c0019392505050565b5f600182016113545761135461122a565b5060010190565b8b8152898b60208301375f8a8201602081015f81528a8c82375060209901988901979097525060408701949094526060860192909252608085015260a084015260c08301525060e001949350505050565b601f8211156113f357805f5260205f20601f840160051c810160208510156113d15750805b601f840160051c820191505b818110156113f0575f81556001016113dd565b50505b505050565b815167ffffffffffffffff81111561141257611412611216565b6114268161142084546111de565b846113ac565b602080601f831160018114611459575f84156114425750858301515b5f19600386901b1c1916600185901b1785556114b0565b5f85815260208120601f198616915b8281101561148757888601518255948401946001909101908401611468565b50858210156114a457878501515f19600388901b60f8161c191681555b505060018460011b0185555b505050505050565b606081016114c68286610fe8565b60208201939093526040015291905056fea2646970667358221220950610e153688c911db3734459c177c682433ef777c5fbdd96d156112a689ede64736f6c63430008180033",
  "linkReferences": {},
  "deployedLinkReferences": {}
}