{
  "_format": "hh-sol-artifact-1",
  "contractName": "LegacyReferral",
  "sourceName": "src/LegacyReferral.sol",
  "abi": [
    {
      "inputs": [],
      "stateMutability": "nonpayable",
      "type": "constructor"
    },
    {
      "anonymous": false,
      "inputs": [
        {
          "indexed": false,
          "internalType": "string",
          "name": "parameterName",
          "type": "string"
        },
        {
          "indexed": false,
          "internalType": "uint256",
          "name": "value",
          "type": "uint256"
        },
        {
          "indexed": false,
          "internalType": "uint256",
          "name": "timestamp",
          "type": "uint256"
        }
      ],
      "name": "ParameterUpdated",
      "type": "event"
    },
    {
      "anonymous": false,
      "inputs": [
        {
          "indexed": true,
          "internalType": "address",
          "name": "customer",
          "type": "address"
        },
        {
          "indexed": true,
          "internalType": "address",
          "name": "referrer",
          "type": "address"
        },
        {
          "indexed": false,
          "internalType": "uint256",
          "name": "timestamp",
          "type": "uint256"
        }
      ],
      "name": "ReferralLinked",
      "type": "event"
    },
    {
      "anonymous": false,
      "inputs": [
        {
          "indexed": true,
          "internalType": "address",
          "name": "referrer",
          "type": "address"
        },
        {
          "indexed": true,
          "internalType": "bytes32",
          "name": "namespaceHash",
          "type": "bytes32"
        },
        {
          "indexed": false,
          "internalType": "address",
          "name": "parentReferrer",
          "type": "address"
        },
        {
          "indexed": false,
          "internalType": "uint256",
          "name": "timestamp",
          "type": "uint256"
        }
      ],
      "name": "ReferrerRegistered",
      "type": "event"
    },
    {
      "anonymous": false,
      "inputs": [
        {
          "indexed": true,
          "internalType": "address",
          "name": "customer",
          "type": "address"
        },
        {
          "indexed": true,
          "internalType": "address",
          "name": "referrer",
          "type": "address"
        },
        {
          "indexed": false,
          "internalType": "uint256",
          "name": "amount",
          "type": "uint256"
        },
        {
          "indexed": false,
          "internalType": "address",
          "name": "tokenAddress",
          "type": "address"
        },
        {
          "indexed": false,
          "internalType": "uint256",
          "name": "level",
          "type": "uint256"
        },
        {
          "indexed": false,
          "internalType": "uint256",
          "name": "timestamp",
          "type": "uint256"
        }
      ],
      "name": "RewardPaid",
      "type": "event"
    },
    {
      "inputs": [
        {
          "internalType": "address",
          "name": "",
          "type": "address"
        }
      ],
      "name": "customerToReferrer",
      "outputs": [
        {
          "internalType": "address",
          "name": "",
          "type": "address"
        }
      ],
      "stateMutability": "view",
      "type": "function"
    },
    {
      "inputs": [
        {
          "internalType": "address",
          "name": "customer",
          "type": "address"
        }
      ],
      "name": "distributeNativeReward",
      "outputs": [],
      "stateMutability": "payable",
      "type": "function"
    },
    {
      "inputs": [
        {
          "internalType": "address",
          "name": "customer",
          "type": "address"
        },
        {
          "internalType": "address",
          "name": "tokenAddress",
          "type": "address"
        },
        {
          "internalType": "uint256",
          "name": "totalAmount",
          "type": "uint256"
        }
      ],
      "name": "distributeTokenReward",
      "outputs": [],
      "stateMutability": "nonpayable",
      "type": "function"
    },
    {
      "inputs": [],
      "name": "level1Bps",
      "outputs": [
        {
          "internalType": "uint256",
          "name": "",
          "type": "uint256"
        }
      ],
      "stateMutability": "view",
      "type": "function"
    },
    {
      "inputs": [],
      "name": "level2Bps",
      "outputs": [
        {
          "internalType": "uint256",
          "name": "",
          "type": "uint256"
        }
      ],
      "stateMutability": "view",
      "type": "function"
    },
    {
      "inputs": [
        {
          "internalType": "address",
          "name": "customer",
          "type": "address"
        },
        {
          "internalType": "address",
          "name": "referrer",
          "type": "address"
        }
      ],
      "name": "linkCustomer",
      "outputs": [],
      "stateMutability": "nonpayable",
      "type": "function"
    },
    {
      "inputs": [
        {
          "internalType": "address",
          "name": "",
          "type": "address"
        }
      ],
      "name": "operators",
      "outputs": [
        {
          "internalType": "bool",
          "name": "",
          "type": "bool"
        }
      ],
      "stateMutability": "view",
      "type": "function"
    },
    {
      "inputs": [],
      "name": "owner",
      "outputs": [
        {
          "internalType": "address",
          "name": "",
          "type": "address"
        }
      ],
      "stateMutability": "view",
      "type": "function"
    },
    {
      "inputs": [
        {
          "internalType": "address",
          "name": "",
          "type": "address"
        }
      ],
      "name": "referrers",
      "outputs": [
        {
          "internalType": "bytes32",
          "name": "namespaceHash",
          "type": "bytes32"
        },
        {
          "internalType": "address",
          "name": "parentReferrer",
          "type": "address"
        },
        {
          "internalType": "uint256",
          "name": "totalReferrals",
          "type": "uint256"
        },
        {
          "internalType": "uint256",
          "name": "totalEarned",
          "type": "uint256"
        },
        {
          "internalType": "bool",
          "name": "active",
          "type": "bool"
        }
      ],
      "stateMutability": "view",
      "type": "function"
    },
    {
      "inputs": [
        {
          "internalType": "address",
          "name": "referrerAddr",
          "type": "address"
        },
        {
          "internalType": "string",
          "name": "namespace",
          "type": "string"
        },
        {
          "internalType": "address",
          "name": "parentReferrer",
          "type": "address"
        }
      ],
      "name": "registerReferrer",
      "outputs": [],
      "stateMutability": "nonpayable",
      "type": "function"
    },
    {
      "inputs": [
        {
          "internalType": "address",
          "name": "op",
          "type": "address"
        },
        {
          "internalType": "bool",
          "name": "status",
          "type": "bool"
        }
      ],
      "name": "setOperator",
      "outputs": [],
      "stateMutability": "nonpayable",
      "type": "function"
    },
    {
      "inputs": [
        {
          "internalType": "uint256",
          "name": "_level1Bps",
          "type": "uint256"
        },
        {
          "internalType": "uint256",
          "name": "_level2Bps",
          "type": "uint256"
        }
      ],
      "name": "setRewardSplits",
      "outputs": [],
      "stateMutability": "nonpayable",
      "type": "function"
    },
    {
      "inputs": [
        {
          "internalType": "address",
          "name": "newOwner",
          "type": "address"
        }
      ],
      "name": "transferOwnership",
      "outputs": [],
      "stateMutability": "nonpayable",
      "type": "function"
    }
  ],
  "bytecode": "0x60806040526105dc6002556101f460035534801561001b575f80fd5b505f80546001600160a01b0319163390811782558152600160208190526040909120805460ff191690911790556115a0806100555f395ff3fe6080604052600436106100bf575f3560e01c80634a3b68cc1161007c5780638da5cb5b116100575780638da5cb5b14610290578063ae3f7e79146102ae578063f2fde38b146102cd578063f60ddf36146102ec575f80fd5b80634a3b68cc146101ca5780634ff16d1414610252578063558a729714610271575f80fd5b8063099452df146100c35780630e7ac85b146100e457806313e7c9d81461010c5780631e26595f1461014a5780631e3f2c9a1461015f5780633b757008146101ab575b5f80fd5b3480156100ce575f80fd5b506100e26100dd366004611292565b6102ff565b005b3480156100ef575f80fd5b506100f960035481565b6040519081526020015b60405180910390f35b348015610117575f80fd5b5061013a6101263660046112cb565b60016020525f908152604090205460ff1681565b6040519015158152602001610103565b348015610155575f80fd5b506100f960025481565b34801561016a575f80fd5b506101936101793660046112cb565b60056020525f90815260409020546001600160a01b031681565b6040516001600160a01b039091168152602001610103565b3480156101b6575f80fd5b506100e26101c53660046112eb565b610953565b3480156101d5575f80fd5b506102206101e43660046112cb565b600460208190525f91825260409091208054600182015460028301546003840154939094015491936001600160a01b0390911692909160ff1685565b604080519586526001600160a01b0390941660208601529284019190915260608301521515608082015260a001610103565b34801561025d575f80fd5b506100e261026c366004611378565b610b29565b34801561027c575f80fd5b506100e261028b3660046113a5565b610c66565b34801561029b575f80fd5b505f54610193906001600160a01b031681565b3480156102b9575f80fd5b506100e26102c83660046113da565b610cb9565b3480156102d8575f80fd5b506100e26102e73660046112cb565b610eed565b6100e26102fa3660046112cb565b610f5d565b335f9081526001602052604090205460ff168061032557505f546001600160a01b031633145b61034a5760405162461bcd60e51b81526004016103419061140b565b60405180910390fd5b5f811161038b5760405162461bcd60e51b815260206004820152600f60248201526e13148e881e995c9bc8185b5bdd5b9d608a1b6044820152606401610341565b6001600160a01b0382166103da5760405162461bcd60e51b81526020600482015260166024820152754c523a207a65726f20746f6b656e206164647265737360501b6044820152606401610341565b6040516323b872dd60e01b81523360048201523060248201526044810182905282906001600160a01b038216906323b872dd906064016020604051808303815f875af115801561042c573d5f803e3d5ffd5b505050506040513d601f19601f820116820180604052508101906104509190611435565b61049c5760405162461bcd60e51b815260206004820152601760248201527f4c523a207472616e7366657246726f6d206661696c65640000000000000000006044820152606401610341565b6001600160a01b038085165f908152600560205260409020541680610581575f5460405163a9059cbb60e01b81526001600160a01b039182166004820152602481018590529083169063a9059cbb906044016020604051808303815f875af115801561050a573d5f803e3d5ffd5b505050506040513d601f19601f8201168201806040525081019061052e9190611435565b61057a5760405162461bcd60e51b815260206004820152601960248201527f4c523a206f776e6572207472616e73666572206661696c6564000000000000006044820152606401610341565b5050505050565b5f612710600254856105939190611464565b61059d9190611481565b6001600160a01b038084165f90815260046020526040812060010154929350911680158015906105e857506001600160a01b0381165f908152600460208190526040909120015460ff165b1561060b57612710600354876105fe9190611464565b6106089190611481565b91505b5f8261061785896114a0565b61062191906114a0565b9050831561074d576001600160a01b0385165f90815260046020526040812060030180548692906106539084906114b3565b909155505060405163a9059cbb60e01b81526001600160a01b0386811660048301526024820186905287169063a9059cbb906044016020604051808303815f875af11580156106a4573d5f803e3d5ffd5b505050506040513d601f19601f820116820180604052508101906106c89190611435565b61070d5760405162461bcd60e51b815260206004820152601660248201527513148e881b0c481d1c985b9cd9995c8819985a5b195960521b6044820152606401610341565b846001600160a01b0316896001600160a01b03165f8051602061154b833981519152868b60014260405161074494939291906114c6565b60405180910390a35b8215610877576001600160a01b0382165f908152600460205260408120600301805485929061077d9084906114b3565b909155505060405163a9059cbb60e01b81526001600160a01b0383811660048301526024820185905287169063a9059cbb906044016020604051808303815f875af11580156107ce573d5f803e3d5ffd5b505050506040513d601f19601f820116820180604052508101906107f29190611435565b6108375760405162461bcd60e51b815260206004820152601660248201527513148e881b0c881d1c985b9cd9995c8819985a5b195960521b6044820152606401610341565b816001600160a01b0316896001600160a01b03165f8051602061154b833981519152858b60024260405161086e94939291906114c6565b60405180910390a35b8015610948575f5460405163a9059cbb60e01b81526001600160a01b039182166004820152602481018390529087169063a9059cbb906044016020604051808303815f875af11580156108cc573d5f803e3d5ffd5b505050506040513d601f19601f820116820180604052508101906108f09190611435565b6109485760405162461bcd60e51b815260206004820152602360248201527f4c523a206f776e65722072656d61696e696e67207472616e73666572206661696044820152621b195960ea1b6064820152608401610341565b505050505050505050565b335f9081526001602052604090205460ff168061097957505f546001600160a01b031633145b6109955760405162461bcd60e51b81526004016103419061140b565b6001600160a01b0384166109bb5760405162461bcd60e51b8152600401610341906114ea565b806001600160a01b0316846001600160a01b031603610a0e5760405162461bcd60e51b815260206004820152600f60248201526e13148e881cd95b19881c185c995b9d608a1b6044820152606401610341565b5f8383604051602001610a22929190611514565b60408051601f19818403018152828252805160209182012060a0840183528084526001600160a01b038087168584019081528a82165f81815260048087528782206002810180548b8b0190815260038301805460608e01908152600160808f01818152978990529b8690529c518455965199830180549a9098166001600160a01b0319909a16999099179096559651909455965190915594519201805492151560ff199093169290921790915590519092508291907f2cf14e5adca34b335f41e1b9250931228bf7d23f7e32c4e48a452d80d3b61bc290610b1a90869042906001600160a01b03929092168252602082015260400190565b60405180910390a35050505050565b5f546001600160a01b03163314610b525760405162461bcd60e51b815260040161034190611523565b612710610b5f82846114b3565b1115610ba65760405162461bcd60e51b81526020600482015260166024820152754c523a2073706c69742065786365656473203130302560501b6044820152606401610341565b60028290556003819055604080516060808252600990820152686c6576656c3142707360b81b608082015260208101849052428183015290517f185daf617c465de5e0042f7aae1503b1a216ea8927cacf296e58b516e82afea89181900360a00190a1604080516060808252600990820152686c6576656c3242707360b81b608082015260208101839052428183015290517f185daf617c465de5e0042f7aae1503b1a216ea8927cacf296e58b516e82afea89181900360a00190a15050565b5f546001600160a01b03163314610c8f5760405162461bcd60e51b815260040161034190611523565b6001600160a01b03919091165f908152600160205260409020805460ff1916911515919091179055565b335f9081526001602052604090205460ff1680610cdf57505f546001600160a01b031633145b610cfb5760405162461bcd60e51b81526004016103419061140b565b6001600160a01b03821615801590610d1b57506001600160a01b03811615155b610d375760405162461bcd60e51b8152600401610341906114ea565b806001600160a01b0316826001600160a01b031603610d895760405162461bcd60e51b815260206004820152600e60248201526d26291d1039b2b633103932b332b960911b6044820152606401610341565b6001600160a01b0381165f908152600460208190526040909120015460ff16610dec5760405162461bcd60e51b815260206004820152601560248201527426291d1034b730b1ba34bb32903932b332b93932b960591b6044820152606401610341565b6001600160a01b038281165f908152600560205260409020541615610e485760405162461bcd60e51b815260206004820152601260248201527113148e88185b1c9958591e481b1a5b9ad95960721b6044820152606401610341565b6001600160a01b038281165f90815260056020908152604080832080546001600160a01b031916948616948517905592825260049052908120600201805460019290610e959084906114b3565b92505081905550806001600160a01b0316826001600160a01b03167f09bf736fef7ad7f2182f212057cf590aa396f7676bb50ba7bb75b2cf31e0e7e342604051610ee191815260200190565b60405180910390a35050565b5f546001600160a01b03163314610f165760405162461bcd60e51b815260040161034190611523565b6001600160a01b038116610f3c5760405162461bcd60e51b8152600401610341906114ea565b5f80546001600160a01b0319166001600160a01b0392909216919091179055565b335f9081526001602052604090205460ff1680610f8357505f546001600160a01b031633145b610f9f5760405162461bcd60e51b81526004016103419061140b565b5f3411610fe15760405162461bcd60e51b815260206004820152601060248201526f13148e881e995c9bc81c185e5b595b9d60821b6044820152606401610341565b6001600160a01b038082165f90815260056020526040902054168061103c575f80546040516001600160a01b03909116913480156108fc02929091818181858888f19350505050158015611037573d5f803e3d5ffd5b505050565b5f6127106002543461104e9190611464565b6110589190611481565b6001600160a01b038084165f90815260046020526040812060010154929350911680158015906110a357506001600160a01b0381165f908152600460208190526040909120015460ff165b156110c657612710600354346110b99190611464565b6110c39190611481565b91505b5f826110d285346114a0565b6110dc91906114a0565b90508315611187576001600160a01b0385165f908152600460205260408120600301805486929061110e9084906114b3565b90915550506040516001600160a01b0386169085156108fc029086905f818181858888f19350505050158015611146573d5f803e3d5ffd5b50846001600160a01b0316866001600160a01b03165f8051602061154b833981519152865f60014260405161117e94939291906114c6565b60405180910390a35b8215611230576001600160a01b0382165f90815260046020526040812060030180548592906111b79084906114b3565b90915550506040516001600160a01b0383169084156108fc029085905f818181858888f193505050501580156111ef573d5f803e3d5ffd5b50816001600160a01b0316866001600160a01b03165f8051602061154b833981519152855f60024260405161122794939291906114c6565b60405180910390a35b801561126e575f80546040516001600160a01b039091169183156108fc02918491818181858888f1935050505015801561126c573d5f803e3d5ffd5b505b50505050505b50565b80356001600160a01b038116811461128d575f80fd5b919050565b5f805f606084860312156112a4575f80fd5b6112ad84611277565b92506112bb60208501611277565b9150604084013590509250925092565b5f602082840312156112db575f80fd5b6112e482611277565b9392505050565b5f805f80606085870312156112fe575f80fd5b61130785611277565b9350602085013567ffffffffffffffff80821115611323575f80fd5b818701915087601f830112611336575f80fd5b813581811115611344575f80fd5b886020828501011115611355575f80fd5b60208301955080945050505061136d60408601611277565b905092959194509250565b5f8060408385031215611389575f80fd5b50508035926020909101359150565b8015158114611274575f80fd5b5f80604083850312156113b6575f80fd5b6113bf83611277565b915060208301356113cf81611398565b809150509250929050565b5f80604083850312156113eb575f80fd5b6113f483611277565b915061140260208401611277565b90509250929050565b60208082526010908201526f26291d103737ba1037b832b930ba37b960811b604082015260600190565b5f60208284031215611445575f80fd5b81516112e481611398565b634e487b7160e01b5f52601160045260245ffd5b808202811582820484141761147b5761147b611450565b92915050565b5f8261149b57634e487b7160e01b5f52601260045260245ffd5b500490565b8181038181111561147b5761147b611450565b8082018082111561147b5761147b611450565b9384526001600160a01b039290921660208401526040830152606082015260800190565b60208082526010908201526f4c523a207a65726f206164647265737360801b604082015260600190565b818382375f9101908152919050565b6020808252600d908201526c26291d103737ba1037bbb732b960991b60408201526060019056fe0820bc88dc3522e807c369f12e32e0b7e0f618d6ffe14a1de36c2363dedc5b60a264697066735822122063bb51ef79a105b3e56cc913e167fdbb778df223673403fd96768c2a5335658064736f6c63430008180033",
  "linkReferences": {},
  "deployedLinkReferences": {}
}